:020000040000fa
:080000000002040000000000f2
:020000040000fa
:04000800340b0000b5
:020000040000fa
:04000c00340b0000b1
:020000040000fa
:04001000340b0000ad
:020000040000fa
:04001400340b0000a9
:020000040000fa
:04001800340b0000a5
:020000040000fa
:04001c00340b0000a1
:020000040000fa
:04002000340b00009d
:020000040000fa
:04002400340b000099
:020000040000fa
:04002800340b000095
:020000040000fa
:04002c00340b000091
:020000040000fa
:04003000340b00008d
:020000040000fa
:040034008003000045
:020000040000fa
:04003800340b000085
:020000040000fa
:04003c00340b000081
:020000040000fa
:04004000340b00007d
:020000040000fa
:04004400340b000079
:020000040000fa
:04004800340b000075
:020000040000fa
:04004c00340b000071
:020000040000fa
:04005000fa020000b0
:020000040000fa
:04005400c4080000dc
:020000040000fa
:04005800040b000095
:020000040000fa
:04005c00340b000061
:020000040000fa
:04006000340b00005d
:020000040000fa
:04006400340b000059
:020000040000fa
:04006800340b000055
:020000040000fa
:04006c00340b000051
:020000040000fa
:04007000340b00004d
:020000040000fa
:04007400340b000049
:020000040000fa
:04007800340b000045
:020000040000fa
:04007c00340b000041
:020000040000fa
:04008000340b00003d
:020000040000fa
:04008400340b000039
:020000040000fa
:04008800340b000035
:020000040000fa
:04008c00340b000031
:020000040000fa
:04009000340b00002d
:020000040000fa
:04009400340b000029
:020000040000fa
:04009800340b000025
:020000040000fa
:04009c00340b000021
:020000040000fa
:0400a000340b00001d
:020000040000fa
:0400a400340b000019
:020000040000fa
:0400a800340b000015
:020000040000fa
:0400ac00340b000011
:020000040000fa
:0400b000340b00000d
:020000040000fa
:0400b400340b000009
:020000040000fa
:0400b800340b000005
:020000040000fa
:0400bc00340b000001
:020000040000fa
:0400c000340b0000fd
:020000040000fa
:0400c400340b0000f9
:020000040000fa
:0400c800340b0000f5
:020000040000fa
:0400cc00340b0000f1
:020000040000fa
:0400d000340b0000ed
:020000040000fa
:0400d400340b0000e9
:020000040000fa
:0400d800340b0000e5
:020000040000fa
:0400dc00340b0000e1
:020000040000fa
:0400e000340b0000dd
:020000040000fa
:0400e400340b0000d9
:020000040000fa
:0400e800340b0000d5
:020000040000fa
:0400ec00340b0000d1
:020000040000fa
:0400f000340b0000cd
:020000040000fa
:0400f400340b0000c9
:020000040000fa
:0400f800340b0000c5
:020000040000fa
:0400fc00340b0000c1
:020000040000fa
:04010000340b0000bc
:020000040000fa
:04010400340b0000b8
:020000040000fa
:04010800340b0000b4
:020000040000fa
:04010c00340b0000b0
:020000040000fa
:04011000340b0000ac
:020000040000fa
:04011400340b0000a8
:020000040000fa
:04011800340b0000a4
:020000040000fa
:04011c00340b0000a0
:020000040000fa
:04012000340b00009c
:020000040000fa
:04012400340b000098
:020000040000fa
:04012800340b000094
:020000040000fa
:04012c00340b000090
:020000040000fa
:04013000340b00008c
:020000040000fa
:04013400340b000088
:020000040000fa
:04013800340b000084
:020000040000fa
:04013c00340b000080
:020000040000fa
:04014000340b00007c
:020000040000fa
:04014400340b000078
:020000040000fa
:04014800340b000074
:020000040000fa
:04014c00340b000070
:020000040000fa
:04015000340b00006c
:020000040000fa
:04015400340b000068
:020000040000fa
:04015800340b000064
:020000040000fa
:04015c00340b000060
:020000040000fa
:04016000340b00005c
:020000040000fa
:04016400340b000058
:020000040000fa
:04016800340b000054
:020000040000fa
:04016c00340b000050
:020000040000fa
:04017000340b00004c
:020000040000fa
:04017400340b000048
:020000040000fa
:04017800340b000044
:020000040000fa
:04017c00340b000040
:020000040000fa
:04018000340b00003c
:020000040000fa
:04018400340b000038
:020000040000fa
:04018800340b000034
:020000040000fa
:04018c00340b000030
:020000040000fa
:04019000340b00002c
:020000040000fa
:04019400340b000028
:020000040000fa
:04019800340b000024
:020000040000fa
:04019c00340b000020
:020000040000fa
:0401a000340b00001c
:020000040000fa
:0401a400340b000018
:020000040000fa
:0401a800340b000014
:020000040000fa
:0401ac00340b000010
:020000040000fa
:0401b000340b00000c
:020000040000fa
:0401b400340b000008
:020000040000fa
:0401b800340b000004
:020000040000fa
:0401bc00340b000000
:020000040000fa
:0401c000340b0000fc
:020000040000fa
:0401c400340b0000f8
:020000040000fa
:0401c800340b0000f4
:020000040000fa
:0401cc00340b0000f0
:020000040000fa
:0401d000340b0000ec
:020000040000fa
:0401d400340b0000e8
:020000040000fa
:0401d800340b0000e4
:020000040000fa
:0401dc00340b0000e0
:020000040000fa
:0401e000340b0000dc
:020000040000fa
:0401e400340b0000d8
:020000040000fa
:0401e800340b0000d4
:020000040000fa
:0401ec00340b0000d0
:020000040000fa
:0401f000340b0000cc
:020000040000fa
:0401f400340b0000c8
:020000040000fa
:0401f800340b0000c4
:020000040000fa
:0401fc00340b0000c0
:020000040000fa
:04020000340b0000bb
:020000040000fa
:04020400340b0000b7
:020000040000fa
:04020800340b0000b3
:020000040000fa
:04020c00340b0000af
:020000040000fa
:04021000340b0000ab
:020000040000fa
:04021400340b0000a7
:020000040000fa
:04021800340b0000a3
:020000040000fa
:04021c00340b00009f
:020000040000fa
:04022000340b00009b
:020000040000fa
:04022400340b000097
:020000040000fa
:04022800340b000093
:020000040000fa
:04022c00340b00008f
:020000040000fa
:04023000340b00008b
:020000040000fa
:04023400340b000087
:020000040000fa
:04023800340b000083
:020000040000fa
:04023c00340b00007f
:020000040000fa
:04024000340b00007b
:020000040000fa
:04024400340b000077
:020000040000fa
:04024800340b000073
:020000040000fa
:04024c00340b00006f
:020000040000fa
:04025000340b00006b
:020000040000fa
:04025400340b000067
:020000040000fa
:04025800340b000063
:020000040000fa
:04025c00340b00005f
:020000040000fa
:04026000340b00005b
:020000040000fa
:04026400340b000057
:020000040000fa
:04026800340b000053
:020000040000fa
:04026c00340b00004f
:020000040000fa
:04027000340b00004b
:020000040000fa
:04027400340b000047
:020000040000fa
:04027800340b000043
:020000040000fa
:04027c00340b00003f
:020000040000fa
:04028000340b00003b
:020000040000fa
:10040000af2921000eff27000e0188000000000028
:10041000000020000000e000020032000001200087
:100420002002880014000700910407000000e0008b
:1004300003003a00a0fa210001002000020037006a
:100440000000200001002000810f70000100320038
:100450000f000700000020000000e0000200320052
:100460000000020000000000301202000000000046
:100470000040da000000fe00000820000000e0005c
:1004800002003200002020009001880000000600d9
:10049000a1028800800478000000eb001f003700f4
:1004a000e284440054a0b4009905ba00e2844400f8
:1004b00054a0b4009906ba00e284440054a0b400e9
:1004c0000006eb00476fde00fd07b200ae018800ba
:1004d000636ce10003003a000ad801000000eb0061
:1004e0000e003700606ce10008003a00004deb00a0
:1004f0000a05e800020039003420ec000af0a000f0
:100500008b05e900f9ff3e00040037006168e10057
:10051000010032000086eb000b00070019c7ba008b
:100520000e04e0001905ba0003003a000a00e000da
:10053000dbff3a0000000600fe07b200ae028800b2
:100540008a047800f5ff37000cd0a300e20f4d00bd
:100550001c00390089027800354dba000a05e80010
:10056000020039003420ec000af0a0008b05e900fd
:100570000f003200254dba000a05e80002003900dc
:100580003420ec000af0a0008b05e90008003200de
:100590000c00e0000600320015cdba000a05e800a4
:1005a000020039003420ec000af0a0008b05e900bd
:1005b0008984e80054a0b4000b00e000e2ff3a0098
:1005c000000006009902ba00055d78008b05e9007d
:1005d000f7ff3200c82ade00055d78008b05e900d0
:1005e000f3ff32000c00e000f1ff320019ddba0029
:1005f000eeff3700809fbe000200fa00401280002c
:10060000004f7800b0cab3009e40780080cf500001
:1006100003003a0040c5b30030f0b70031003700a6
:1006200030d0bf000080fb0011062000810f500079
:100630002600320011062000810f50000a003c0005
:1006400071042000810f50001d0032004105200080
:10065000810f50000e00320001022000810f500077
:10066000140032001f00370081062000810f500067
:100670000a003200d1062000810f5000160032001f
:1006800051062000810f500007003200150037008e
:1006900080c6b30030f0b7001200370050c6b30078
:1006a00030f0b7000f00370000c2b30030f0b700e1
:1006b0000c00370070c4b30030f0b70009003700f9
:1006c00010c6b30030f0b70006003700d0c6b30044
:1006d00030f0b7000300370050c6b30030f0b70069
:1006e0000000000030d0bf000080fb0040128800f6
:1006f0000148a9000080fa004f00be00004006003b
:100700003600f800809fbe00829fbe00849fbe001e
:10071000869fbe00889fbe008a9fbe003600fa00fa
:100720000068a900310e8000510f9800322e800021
:10073000620f980000002800300e8800000028009a
:10074000302e88005e0890008000eb003005070026
:100750000200200003702400c6030700700f9800f9
:10076000011798006e0890008000eb002805070034
:100770000200200003702400be0307001017980039
:1007800021179800088180007e0890008e1090004c
:10079000e0040700800078000801440020272100c1
:1007a0000000410001087800088180001e109000c0
:1007b000ae109000d70407008000780008014400c4
:1007c0006028210000004100010878007e089000a8
:1007d0008e1090000001be00a7030700b2fd2000ac
:1007e000930424005f050700d2cc2c00431c240096
:1007f0005c050700700f98000117980002002000a8
:10080000035824007e0890008e1090007b0407009f
:10081000700f9800011798001e109000ae10900005
:100820000001be0094030700b2fd200093042400e1
:100830004c050700d2cc2c00431c240049050700be
:100840001017980021179800020020000358240078
:100850001e109000ae10900068040700101798005a
:10086000211798007e0990008e1190001e109000b4
:10087000ae1090007f03070082222f00333924003e
:100880005e0407000002be0050808000618080008e
:100890000001be000400be007703070050808800fe
:1008a000618088001e119000ae1190007e089000bb
:1008b0008e10900070030700020020000300240047
:1008c0004e040700301798004117980050808000b0
:1008d00061808000470407003e119000ce11900017
:1008e000200507000002be001080800021808000eb
:1008f0000001be000400be005f03070010808800f6
:10090000218088005080800061808000b20507004f
:100910003e119000ce119000120507000002be00ab
:1009200030808000418080000001be000400be00d5
:1009300051030700308088004180880000818000da
:100940000000e8000081880000818000e90f50006d
:10095000040236002030ef006000b800008fbe00b7
:100960006000b80020079800310798000000eb00f5
:10097000400798001c0037004e00900080004000a7
:10098000202721000080400010007800cf80de008a
:100990009c0407000001be001e0078009e0090002d
:1009a00035030700008fbe004e009000800040001d
:1009b000602821000080400010007800cf80de0019
:1009c000900407000001be002e009000be009000c1
:1009d0002903070020079800310798004e00900077
:1009e0000000e800400798004e009000e90f50001a
:1009f000e1ff340002002000832c24001e00780058
:100a00009e009000d70407000001be001a030700f3
:100a1000b2fd200093042400d2040700020020004d
:100a200003582400f5030700008fbe0002002000d9
:100a3000832c24002e009000be009000c904070003
:100a40000001be000c030700b2fd20009304240047
:100a5000c40407000200200003582400e703070035
:100a600020079800310798007480800085808000fe
:100a700010808000218080000001be000400be00c4
:100a8000fc0207000004be0094808000a580800066
:100a900030808000418080000001be000400be0064
:100aa000f40207000801be00500307005017980029
:100ab000611798001480800025808000708080007d
:100ac000818080000001be000400be00e902070032
:100ad0000004be00148080002580800070808000ab
:100ae000818080000001be000400be00e10207001a
:100af0000001be000800be009a0407000004be000a
:100b0000348080004580800090808000a18080003b
:100b10000001be000400be00d60207000005be00b2
:100b2000348080004580800090808000a18080001b
:100b30000001be000400be00ce0207000001be009e
:100b40000a00be00870407000001be000800be00c6
:100b5000c9020700220507005007980061079800a6
:100b600050808000618080005e119000ee11900046
:100b7000c002070070079800010f980007003700b7
:100b8000b2fd2000930c24007e0090008e0890009f
:100b9000b802070070079800010f980018c0b30052
:100ba000b2fd2000930c24007e0090008e0890007f
:100bb000d60307000000e00001003d000044eb0008
:100bc0000804e000eeff3a0007003700b2fd200005
:100bd000930c24007e0090008e089000a60207006f
:100be00070079800010f980018c0b300b2fd2000f4
:100bf000930c2c007e0090008e089000c10307002b
:100c00000000e000010034000044eb000804e000b4
:100c1000eeff3a0018c0b300b2fd20009304240098
:100c20007e0090008e089000b80307000000e000ee
:100c300001003c000044eb000804e0000800320022
:100c4000b2fd2000930c24007e0090008e089000de
:100c50008802070070079800010f98001200370003
:100c600018c0b300b2fd200093042c007e00900059
:100c70008e089000a30307000000e000010035008b
:100c80000044eb000804e00007003200b2fd200041
:100c9000930c24007e0090008e08900076020700de
:100ca00070079800010f980018c0b300b2fd200033
:100cb00093fc2b007e0090008e08900093030700a9
:100cc0000000e00001003c000044eb000804e000ec
:100cd0001000320018c0b300b2fd200093fc2300c6
:100ce0007e0090008e089000860307000000e00060
:100cf000010035000044eb000804e000050032006c
:100d00005e009000ee00900001f0a20050079800f5
:100d10006107980018c0b30002002000832424005b
:100d20005e009000ee009000780307000000e000f5
:100d300001003c000044eb000804e0000b003a0016
:100d400018c0b3000200200083242c005e00900035
:100d5000ee0090006b0307000000e000010035008a
:100d60000044eb000804e000050032005e11900032
:100d7000ee11900060172100a00907000500370060
:100d8000b0808000c18080000001be00601721009b
:100d90009a0907005e019000ee019000e014210026
:100da000ac09070070179800011f98005080800060
:100db000618080000001be0060172100a5090700c6
:100dc000101f9800211f98001e199000ae19900066
:100dd0007e1090008e189000260207000001be00d1
:100de000e00f2100850907001e199000ae19900040
:100df0007e1090008e1890001f0207000001be00b8
:100e0000601221007d0907001e0178009e019000fc
:100e1000e00f21008f090700100f9800210f9800a4
:100e20002e019000be019000601221008909070088
:100e3000300f9800410f9800308b8000418b80006c
:100e400018c0b3000200200003f823002d030700a0
:100e50000000e000010035000044eb000804e00061
:100e600059003200308b8000418b800018c0b300e5
:100e70000200200003f82b00240307000000e0001c
:100e800001003c000044eb000804e0004e0032008a
:100e9000708c8000818c800018c0b300a2702d007f
:100ea00033c22300170307000000e00001003500f3
:100eb0000044eb000804e00043003200708c800026
:100ec000818c800018c0b300a2702d0033c22b00ab
:100ed0000e0307000000e00001003c000044eb00ae
:100ee0000804e0003800320018c0b300d214220019
:100ef00003e523001e0078009e0090000103070018
:100f00000000e000010035000044eb000804e000b0
:100f10002d00320018c0b300d214220003e52b00cc
:100f20001e0078009e009000f80207000000e0001c
:100f300001003c000044eb000804e0002200320005
:100f400018c0b300d214220003e523002e00900045
:100f5000be009000eb0207000000e0000100350039
:100f60000044eb000804e0001700320018c0b30092
:100f7000d214220003e52b002e009000be0090004a
:100f8000e20207000000e00001003c000044eb002a
:100f90000804e0000c0032006000b800100f980058
:100fa000210f98006000b800300f9800410f9800a2
:100fb0006000b800d0888800e18888006000b80030
:100fc000d0888800e18888004081800051818000bd
:100fd0000001be003e089000ce089000a501070069
:100fe00018c0b300f2282c0053e72300c702070003
:100ff0000000e00001003c000044eb000804e000b9
:10100000080032004081800051818000f2282c00cd
:1010100053e7230098010700300f9800410f980014
:101020001600370040818000518180000001be0021
:101030003e089000ce0890008e01070018c0b30053
:10104000f2282c0053e72b00ae0207000000e0005e
:10105000010035000044eb000804e0000700320006
:101060004081800051818000f2282c0053e723004a
:1010700080010700300f9800410f98002081800008
:10108000318180000001be001e089000ae08900073
:101090007801070018c0b300f2282c0053e72300a2
:1010a0009a0207000000e00001003c000044eb0051
:1010b0000804e000080032002081800031818000b7
:1010c000f2282c0053e723006b010700100f980053
:1010d000210f9800160037002081800031818000a8
:1010e0000001be001e089000ae08900061010700dc
:1010f00018c0b300f2282c0053e72b008102070030
:101100000000e000010035000044eb000804e000ae
:10111000070032002081800031818000f2282c00fd
:1011200053e7230053010700100f9800210f980088
:101130001e099000ae09900022818800338188004a
:101140003e099000ce0990004281880053818800ba
:101150001e099000ae0990003e089000ce08900055
:10116000160707000080fa004f05be004f04be00be
:101170004f03be004f02be004f01be004f00be0035
:101180003600f900004006003600f800809fbe00df
:10119000829fbe00849fbe00869fbe000000fa00b2
:1011a00010118000620060000000e00009013200c0
:1011b0002222a90008013700f102210091407800a5
:1011c00030c6b30080cf5000010036002f70ef0012
:1011d0002fd0bf000080fb003111800081407800db
:1011e0002220210000004100014878002fd0bf00dc
:1011f0000040e8002ff0b7002fd0bf000080fb00b8
:101200000000e9002120210000804000104078000b
:10121000ea4f5000f0003a00202021009040780072
:1012200030c7b30080cf50001a003a0030202100b0
:101230009040780050c6b30080cf500015003a00af
:10124000402021009040780040c7b30080cf50007c
:1012500010003a002173800000002400008060002c
:1012600000f0a7000000ea000000e9004f00de00e7
:10127000004078000080fb00610060004e00dd004f
:101280002173800001e0a10001007000207388003c
:10129000ce003700202021009040780000c7b30026
:1012a00080cf50000d003a0030202100904078009f
:1012b000b0c2b30080cf500008003a00b08b80006d
:1012c000c18b80000200200003f82300ea00070021
:1012d000b08b8800c18b8800bc0037002020210023
:1012e0009040780000c7b30080cf50000d003a0056
:1012f0003020210090407800d0c2b30080cf500051
:1013000008003a00b08b8000c18b800002002000f2
:1013100003f82300d7000700b08b8800c18b88003a
:10132000aa003700202021009040780040c6b3007a
:1013300080cf50000d003a0030202100904078000e
:10134000b0c2b30080cf500008003a00b08b8000dc
:10135000c18b80000200200003f82300c6000700b4
:10136000b08b8800c18b88009800370020202100b6
:101370009040780040c6b30080cf50000d003a0086
:101380003020210090407800d0c2b30080cf5000c0
:1013900008003a00b08b8000c18b80000200200062
:1013a00003f82300b3000700b08b8800c18b8800ce
:1013b00086003700202021009040780020c7b3002d
:1013c00080cf500020003a0030202100904078006b
:1013d000b0c2b30080cf50001b003a0021738000e0
:1013e000000024000080600000f0a7000000ea0078
:1013f0000000e9004f00de00004078000080fb00a4
:10140000610060004e00dd002173800001e0a1005a
:101410000100700020738800e08080002003b0008d
:10142000e08088003065800007090700e2080700b7
:101430007065800004090700df08070060222900aa
:10144000dd0807006100370020202100904078006f
:1014500020c7b30080cf500018003a003020210090
:1014600090407800d0c2b30080cf500013003a0003
:1014700021738000000024000080600000f0a700bd
:101480000000ea000000e9004f00de0000407800a4
:101490000080fb00610060004e00dd0021738000d1
:1014a00001e0a1000100700020738800e08080004e
:1014b0002003b100e0808800440037002020210094
:1014c00090407800c0c6b30080cf500018003a00aa
:1014d0003020210090407800b0c2b30080cf50008f
:1014e00013003a0021738000000024000080600097
:1014f00000f0a7000000ea000000e9004f00de0055
:10150000004078000080fb00610060004e00dd00bc
:101510002173800001e0a1000100700020738800a9
:10152000f08080002003b000f080880027003700a2
:101530002020210090407800c0c6b30080cf50002a
:1015400018003a003020210090407800d0c2b3004b
:1015500080cf500013003a00217380000000240067
:101560000080600000f0a7000000ea000000e90031
:101570004f00de00004078000080fb00610060004a
:101580004e00dd002173800001e0a1000100700029
:1015900020738800f08080002003b100f080880074
:1015a0000a003700202021009040780030c7b300a7
:1015b00080cf500003003a0010002000d080880047
:1015c00002003700802229007b0807002f70ef00ff
:1015d0000100370000000000101180006100600071
:1015e0000000e000f4fe3a000168a9000080fa0063
:1015f0004f03be004f02be004f01be004f00be00b1
:101600003600f900004006003600f800809fbe005a
:10161000829fbe00849fbe00869fbe000000fa002d
:101620000188a900c1022100914078002dd0bf009f
:1016300080cf5000040032004d0807000000fb007e
:1016400020118800010037002e70ef000080fa00a2
:101650004f03be004f02be004f01be004f00be0050
:101660003600f900004006000040da000000fe00ed
:101670000000050003f0a200889fbe008a9fbe0004
:101680008c1f78009f010700a60133006450e10021
:101690004f0032006420e1005200320003826c00ef
:1016a00007003b000905d0000306d000820f54005c
:1016b0000c065d000200390002003200890178004a
:1016c000030678008582550004003d000003fd00fc
:1016d0008103fd008502ea008b854200840f7200c1
:1016e00002003b0060001000e08018006011b800ac
:1016f0000005eb007a28e1000a00390006007800b6
:10170000c75ddd00f707b200878075002d00370048
:10171000828171000a017800610560008180d1003a
:101720000080d3008502e900f9ff3b000604400079
:101730008784480002003b0060041400e0841c0021
:101740000988a300070032008a817100828171003c
:10175000610164008904d1000884d3008b05e8008e
:10176000170037000978a30013003a000b00e000cf
:10177000130034008b05e9000804440089844c0000
:101780000a4474000978a3000d003a000b00e00041
:10179000070034008b05e9000804440089844c00ec
:1017a00001003a000b0020000978a300f7ff320087
:1017b0000001eb0002003700828171000a0178000d
:1017c000150107000cf0a70001f0a0005e01370032
:1017d0006420e10002003a00838f6c005e01330058
:1017e0000801be000200be0057013700889fbe00fe
:1017f0008a9fbe008c1f7800420107001002200063
:1018000002003b00a0818800460137008a00620088
:101810006408e10002003a00a08188004e01370010
:101820006108e100fcff32000800be0003047800fc
:101830007200070001f0a1000900070008f0a600ef
:10184000040037000001be0091042400b0fd200018
:1018500088ff070009f0a70001f0a2003a01370055
:10186000889fbe008a9fbe008c9fbe000004be0001
:101870000f0107000800be00890678006420e1001f
:1018800008003900040032000160a00012022000ac
:10189000a28188005300370091fc2300b0fd200096
:1018a0004e0037000006eb0009f0a10003f823000a
:1018b000020020000800be0092000700060034006d
:1018c00001f82300000020000801be004b000700c3
:1018d0000004be002c0020000800be0093e8230096
:1018e000320a230087000700120034000801be00fe
:1018f000d1fd2300703d2b005fff07000005be00f7
:10190000b3f32300f27a26000800be001501070099
:1019100003f823000200200056ff07000801be0064
:1019200055ff07000a01be00340007000004be0096
:101930000c06e8000800be0001f0a1000200200033
:10194000039823006f0007000800be001600350052
:101950000801be00030107000005be0032cd2c00c7
:1019600043fb230044ff0700809fbe00126928004c
:1019700003d52b000a00be00fa000700620f210009
:1019800013ef2b003cff07000a01be00f500070023
:101990004f01be00190007000801be00f10007005a
:1019a0000801be0034ff07000c00e0000b0032000d
:1019b0000c10a70001f0a200b2fd200093fc230050
:1019c0006260e1000400320022a9200063f02300dd
:1019d0000c10a70063f8230027ff07000df0a700f5
:1019e00001f0a2004f06be004f05be004f04be002e
:1019f000000006000081eb000e013700889fbe004a
:101a00008a9fbe008c1f7800be000700c50033000f
:101a100003866c006450e1002e0032006420e10077
:101a2000330032006150e1002f0032006120e100fc
:101a30003100320085855500eb07b0000900200019
:101a400008042000050037000804440089844c0085
:101a50000a0031000603430087834b000001530056
:101a600081815b00f8ff33000203be000800a00084
:101a70000804440089844c00f6ff3900c639dd00b3
:101a80008301730001003200130020008904d1009b
:101a90000884d3000998a300050032000800a700bd
:101aa0000300a0008904d1000884d3008b05e8005e
:101ab0008904d1000884d3000001eb000281d20028
:101ac0005500070001f0a1000cf0a70001f0a000f4
:101ad0009d0037006420e1009f0032000801be0035
:101ae0000200be00f7ff37006120e1009a003200db
:101af0006000b800f3ff37000000200001f8270065
:101b0000f0ff3700140020006a013700f4ff2f00b7
:101b1000680137000001be00650007000470a700df
:101b200003f0a1006509b100160032000d00350078
:101b30006828e10006003500f0ff2f00f1ff2700c4
:101b40000300e00013003b00010028000000050036
:101b500000004000818048008502e900fcff3a0057
:101b600008003700f88f420002003c008000eb00c4
:101b7000000005008100d1000080d3008502e8004c
:101b8000fcff3a000300e00002003b006000100090
:101b9000e0801800000006000001be0044000700bd
:101ba0000470a70003f0a10003f8a30013003a009b
:101bb0006509b10010003200090035006928e10014
:101bc0000200350001002800000005000000400070
:101bd000818048008502e900fcff3a000000060011
:101be000f88f4200050035008100d1000080d3004d
:101bf0008502e800fcff3a00000006008000eb00d0
:101c0000000005004f89de008201780044013700a2
:101c10006011b8005201370081002000618055003a
:101c20000b003d000b00200061fe2f000100e100d1
:101c30001d00340082817100610164008904d100bb
:101c40000884d3000000e800faff3a007100200089
:101c500061006400030070000200600009003200af
:101c600061044400e0844c000988a50005003200ae
:101c70008b05e8006808e10002003a008904d10001
:101c80000884d300f20f20000258e10005003d0057
:101c9000c75ddd00f907b200898075000800780093
:101ca000000006000bf827008b00780000000500fc
:101cb000c70ade00f107b200f50fb20008003200db
:101cc000e1cf4200020032000170a00024000500b4
:101cd000810f700001003200040805004400050077
:101ce000810f700002003a00140005008502e9002f
:101cf0000000400081c04800fcff3b000170a000d4
:101d0000240005000004be00e9ff07000003be0038
:101d10000405be000200be00e5ff0700844f750009
:101d2000000006000200be006450e100050036001d
:101d30006420e100020036000968a30001003a00b7
:101d40000800be000160a0004f0678004f05be00ed
:101d50004f04be0000000600f0ff2f00f1ff270037
:101d6000f9ff3700889fbe008a9fbe008c1f780055
:101d7000e4ff0700ebff330003866c006450e100d2
:101d8000240032006420e100270032006150e100ad
:101d9000220032006120e100210032008b854200e8
:101da000eb07b1000134b800003ab8000804420063
:101db00089844a00013ab8000030b80088804000a9
:101dc00009014a00040033000000400081804800ff
:101dd000020149008b05e900c909dd00830170009b
:101de0000100320013002000c814de004814dd009a
:101df0004709de001200b200c808de000884700047
:101e000085ff070001f0a1000cf0a70001f0a00081
:101e1000cdff37006120e100cfff32000801be0096
:101e20000200be00f7ff37006150e100fcff3a00fe
:101e3000c9ff3700889fbe008a9fbe008c9fbe00ee
:101e4000820578000004be0099ff07000800be006c
:101e50006420e1000700390002003a00f1ff27008a
:101e6000f0ff2f000160a00012022000a281880074
:101e7000550037006120e10003003a000b00a70085
:101e800001f823005000370001f0a10002002100fa
:101e9000936424001bff07000800be000400350007
:101ea000b2fd2000930c2400dc0007000004be00fb
:101eb0000005eb000b00a6004f0dde0001f0a100b5
:101ec0000004be0032982f0023ea2300a5ff07007c
:101ed0000001eb0003f023000b00a70003f8230030
:101ee000e5fd07000bff07000000a7000a00a200a5
:101ef00044ff07000b00e000030032000200200056
:101f000003f02300dbfd070001f0a2000006be0085
:101f1000020020009304240092ff07000801be0085
:101f2000d5fd0700809fbe000c00be0022a22a0043
:101f3000d3a723008bff07004f01be00cefd070093
:101f40000004be0001f0a10002002000039823005d
:101f5000ecfe07000800be00190035000001be00bd
:101f600080ff07000006be00b2c52900e36223001f
:101f70007cff070022222b00f3942b00befd0700fc
:101f80000c01be0077ff0700e273280083c0230026
:101f9000b9fd07000c01be0072ff070042aa2a002b
:101fa000a3e22b00b4fd07000c01be006dff07008b
:101fb0000801be006bff07000801be00aefd070070
:101fc0000a00a70001f0a2004f06be004f05be00a8
:101fd0004f04be00000006000001eb0095ff370033
:101fe000889fbe008a9fbe008c1f78000004be0040
:101ff0002fff07000478a30026003a006120e100cb
:102000002500320009f8a30025003a006420e10011
:1020100021003200f507b1000508a30002003200dc
:1020200000004000818048006044b8000310200098
:1020300002002000000040008180480008054400a4
:1020400089854c000a0541008b8549000a0550002e
:102050008b855800030033000a00be0002047400a0
:10206000838474008301d1000281d300830f710047
:10207000f0ff3a008904d1000884d30060014900d0
:1020800082017800c1adde00fb07b000e2fe070070
:102090002dff37000960a0000800be002aff3700ae
:1020a00012022000a2818800f0ff2f00f1ff27001c
:1020b00025ff3700889fbe008a9fbe00841f7800de
:1020c00010ff07004f00780011003300f0ff2f00d1
:1020d000838f6c0006003b00040565000a00a70022
:1020e0000800370009f0a6001000200008003700a3
:1020f000820f5400838f5c00030039001000200021
:1021000001003e000000200009f0a7000000ea00e6
:102110004f05be004f04be000000e00000000600b6
:10212000881f7800030478000300e00007003d00ea
:1021300060001000e080180060011900e0811900c3
:1021400002003b0001f02d000300370004000700ef
:1021500008f0a70001f0a0004f047800000006007e
:10216000889fbe008a9fbe0000827000040271003a
:1021700004827100260032000004be000200be008e
:102180006011b8006b092000950220000182cf0089
:102190000a0039000541b1000082cf000700390074
:1021a0000541b1000982cf00040039000541b100aa
:1021b0000882cf00010039000541b10005425200fc
:1021c000120032000a003b0082817100610164004c
:1021d0008100d1000080d3008984d3000884d3001b
:1021e0008b05e8000442e800f7ff3a0007003700db
:1021f0000804440089844c000000480081804800a5
:102200008b05e9000442e900f9ff3a0082fe07006d
:102210004f05be004f04be00000006000400200071
:1022200000003700889fbe008a9fbe008c1f780088
:102230004f26dd00b3fe0700bafe33006120e10047
:10224000430032006250e10041003e003e00390090
:102250006420e1003c003200058255000f003b0085
:102260000402e80038003a00800f5300818f5b00c1
:10227000350034000800be0003f0a10001f0a60004
:1022800003f0a0000cf0a700fbfc0700aefe370037
:102290000603430087834b000c46460000055300ad
:1022a00081855b00020033000a03be000c00a00021
:1022b0000402e900f6ff3b008505780006024300b2
:1022c00087824b0004003a006000b80009f0a700c4
:1022d00001f0a0009cfe37000002520081825a00eb
:1022e0000704e000040033000603430087834b002b
:1022f0008b05e900faff3700090578000604be00e7
:102300000203be006011b80043fe0700e00f520058
:10231000e08f5a000700350002003c000c08a300c3
:10232000040032000601be0003f0a0000cf0a7007c
:10233000d1fc07000a85680001f0a1000af0a7009f
:1023400001f0a00080fe37000800be007efe3700ce
:10235000100220000cf0a600a08188007efe37004d
:020000040000fa
:10236000782000003a20000000200000202000001b
:102370002020000020790000203a0000200000000a
:1023800020200000202000002020000074200000f9
:102390003a20000000200000202000002020000043
:1023a000207400002a31000030300000203a000084
:1023b000200000000d0a0000006c0000203a000020
:1023c000200000002020000020200000202000002d
:1023d000722000003a2000000020000020200000b1
:1023e0002020000020440000312000003a2000009e
:1023f00000200000202000002020000020440000d9
:10240000312a000031300000302000003a20000066
:1024100000200000202000002020000020440000b8
:10242000322000003a2000000020000020200000a0
:102430002020000020440000322a0000313000003b
:10244000302000003a200000000000000a000000d8
:1024500065720000726f0000720a00000000000048
:020000040000fa
:102460000400fa00881f78006806070026060700a7
:10247000290507001a0207008d050700422cef000e
:10248000750407006000b800108088002180880073
:102490006000b80030808800418088006000b8008b
:1024a00050808800618088006000b80070808800db
:1024b000818088006000b80090808800a18088003a
:1024c0006000b800b0808800c18088000070ef0014
:1024d0000170ef001c30ef001e30ef0000002800fc
:1024e000300e880000002800302e880065cea8003d
:1024f00063172100e214210061122100e00f210086
:10250000320307001a30ef00d0808000e40f500043
:1025100069003200e40f50000c003c00e10f500055
:1025200023003200e10f500003003c000000e000f7
:102530000f003200af003700e20f50003b003200c6
:10254000e30f50004a003200aa003700e60f5000a7
:102550007c003200e60f500069003500e70f5000a4
:1025600089003200e80f500097003200a1003700c8
:102570006000b80070808800818088006000b8002a
:1025800090808800a18088006000b800b08088003a
:10259000c180880065cea900803e20002e0507007e
:1025a000d08080000000e800d080880091003700d3
:1025b00065cea8006000b800008fbe000c00370098
:1025c0001e0178009e019000b2808800c3808800c0
:1025d0005000200020050700a2702d0033c2230008
:1025e0001e0078009e00900022fc0700008fbe00b5
:1025f00018c0b300223d2500b3272c001e00780030
:102600009e00900041fd07000000e00001003d0039
:102610000044eb000804e000e9ff3a00803e20009f
:102620000d0507007c010700720037000000200044
:10263000812c240070808800818088006000b800b0
:1026400090808800a1808800b0fd200091fc2300cc
:10265000b0808800c180880000712200fe0407005d
:10266000d08080000000e800d08088006100370042
:1026700000002000812c2400708088008180880068
:1026800000002000812c240090808800a180880018
:10269000b0fd200091fc2300b0808800c18088003c
:1026a00000712200ec040700d08080000000e800e8
:1026b000d08088004f00370000002000812c2400cb
:1026c000708088008180880000002000812c240018
:1026d00090808800a1808800b0fd20009104240033
:1026e000b0808800c180880000712200da040700f1
:1026f000d08080000000e800d08088003d003700d6
:102700006000b80070808800818088000000200090
:10271000812c240090808800a1808800b0fd2000da
:1027200091042400b0808800c180880000712200dc
:10273000c9040700d08080000000e800d080880035
:102740002c0037006000b80070808800818088000d
:1027500000002000812c240090808800a180880047
:1027600040be2c0061092400b0808800c180880030
:1027700000712200b8040700d08080000000e8004b
:10278000d08088001b0037006000b800708088008f
:10279000818088006000b80090808800a180880057
:1027a00040be2c0061092400b0808800c1808800f0
:1027b00000712200a8040700d08080000000e8001b
:1027c000d08088000b0037006000b800708088005f
:1027d000818088006000b80090808800a180880017
:1027e000b0fd2000910c2400b0808800c1808800da
:1027f00000000000001b2900ef030700108080008c
:1028000021808000c3fc0700000078000e04070050
:10281000e9030700501b2900e70307003080800010
:1028200041808000bbfc0700000078000604070020
:10283000e1030700001c2900df030700508080002f
:102840006180800002002000433b240045fd07001a
:10285000b2fd2000930c240068fc0700adfc0700cb
:1028600000007800f8030700d3030700b01c29001c
:10287000d1030700508080006180800002002a00a0
:10288000c370240037fd0700b2fd2000930c240024
:102890005afc07009ffc070000007800ea030700cd
:1028a000c5030700a01d2900c303070016ff37005a
:1028b0001000fa00881f7800000020000114240096
:1028c00040079800510798006000b800008fbe00d4
:1028d000d0cc2c00c1dc2300600798007107980061
:1028e0001e0178009e0190004e009000de009000d6
:1028f00060fb070018c0b3006e019000fe0190005d
:1029000082fc07000000e00001003c000044eb00f6
:102910000804e000080032006e019000fe01900003
:102920001e0078009e00900053fb070020079800cf
:10293000310798001e0037001e0178009e019000ac
:102940004e009000de0090004afb07000002be002f
:102950006e009000fe00900001f0a20018c0b300cd
:102960000001be000400be0066fc07000000e0009d
:10297000010035000044eb000804e00008003200cc
:102980006e019000fe0190001e0078009e009000f5
:1029900038fb070020079800310798000400370033
:1029a0004e019000de019000220798003307980046
:1029b0002e019000be019000028fbe002e019000fb
:1029c000be0190006000b800fc000700e00120009c
:1029d00021040700c2ff37001800fa002068a90090
:1029e00000002800300e880000002800302e8800eb
:1029f000310e800000002800008040008000eb00c5
:102a000083fc0700b2fd200093042400d5fc0700de
:102a10000001be0018fb0700d2cc2c00431c240090
:102a2000d0fc07000200200003582400f3fb07003d
:102a3000008fbe00312e8000000028000080400082
:102a40008000eb0072fc0700b2fd2000930424001c
:102a5000c4fc07000001be0007fb0700d2cc2c001d
:102a6000431c2400bffc0700020020000358240080
:102a7000e2fb07002007980031079800310e800024
:102a800000002800008040008000eb0060fc070090
:102a9000b2fd200093042400b2fc07000001be0038
:102aa000f5fa07000200200003582400d3fb0700ba
:102ab0004007980051079800312e80000000280040
:102ac000008040008000eb0051fc0700b2fd2000b8
:102ad00093042400a3fc07000001be00e6fa0700ef
:102ae0000200200003582400c4fb07006007980080
:102af000710798004e019000de0190000000200058
:102b000061392400bdfb0700000f9800110f9800e9
:102b10006e019000fe019000000020006139240049
:102b2000b6fb0700200f9800310f9800d01d290038
:102b3000210307001e0078009e009000f5fb0700af
:102b400000007800400307001b030700201e290037
:102b5000190307002e009000be009000edfb070057
:102b6000000078003803070013030700d01e290077
:102b7000110307000e0890009e089000e5fb070077
:102b800000007800300307000b030700901f2900a6
:102b90000903070002002000832c24000e08900087
:102ba0009e0890006ffc0700dafb07000000780029
:102bb000250307000003070090202900fe020700fc
:102bc0002e089000be089000d2fb0700000078009d
:102bd0001d030700f802070050212900f602070034
:102be00002002000832c24002e089000be089000d4
:102bf0005cfc0700c7fb0700000078001203070019
:102c0000ed020700a01d2900eb020700800c200048
:102c10009103070076ff37000000fa00001b29002f
:102c2000e50207001080800021808000b9fb0700ca
:102c30000000780004030700df020700501b290092
:102c4000dd0207003080800041808000b1fb07007a
:102c500000007800fc020700d7020700001c2900d2
:102c6000d5020700508080006180800002002000b3
:102c7000433b24003bfc0700b2fd2000930c2400e2
:102c80005efb0700a3fb070000007800ee020700d0
:102c9000c9020700b01c2900c7020700508080004d
:102ca0006180800002002a00c37024002dfc070010
:102cb000b2fd2000930c240050fb070095fb070099
:102cc00000007800e0020700bb020700a01d2900f9
:102cd000b9020700800c20005f030700cfff370018
:102ce0000000fa0021000700022cef00000028007d
:102cf000006088000080fa00000006000000fa0072
:102d000080b521004061880080b521008061880085
:102d100000fa20003061880000fa2000706188000d
:102d20002a2cef002c2cef0000c02c001061880032
:102d30000020200000618800300020002061880011
:102d40000080fa00000006000000fa000080fa008f
:102d5000000006000000fa000080fa0000000600f3
:102d60000000fa000080fa00000006000000fa00ef
:102d700080b521004065880080b52100806588000d
:102d8000a62cef00ae2cef00aa2cef00ac2cef002d
:102d900000c02c001065880000202000006588001d
:102da00030002000206588000080fa000000060046
:102db0000000fa000080fa00000006000800fa0097
:102dc000881f7800008fbe00220798003307980004
:102dd00018c0b3006011b8002e009000be00900033
:102de0004afb07000000e00001003c000044eb004b
:102df0000804e000080032006266260063fa23003f
:102e00002e009000be0090001bfa070020079800db
:102e1000310798001100370018c0b3006011b800e6
:102e20002e009000be00900036fb07000000e0007e
:102e3000010035000044eb000804e0000700320008
:102e40006266260063fa23002e009000be00900008
:102e500008fa0700200798003107980018c0b3004f
:102e60006011b8001e0078009e00900027fb07004c
:102e70000000e00001003c000044eb000804e0001a
:102e8000070032006266260063fa23001e00780005
:102e90009e009000f8f90700008fbe001000370078
:102ea00018c0b3006011b8001e0078009e009000aa
:102eb00014fb07000000e000010035000044eb00b7
:102ec0000804e000060032006266260063fa230070
:102ed0001e0078009e009000e6f90700008fbe00fb
:102ee00018c0b3000200200003142c002e00900034
:102ef000be00900003fb07000000e000010034006a
:102f00000044eb000804e00009003200450ea9006f
:102f100040658000ec00b90080007800b0aa2a006b
:102f20000008b8004308de007065880048003700dc
:102f300018c0b30002002000031424002e009000eb
:102f4000be009000f1fa07000000e00001003d0023
:102f50000044eb000804e00009003200450ea80020
:102f600040658000ec00b90080007800b0aa2a001b
:102f70000008b8004308de007065880034003700a0
:102f800018c0b3006266260063fa2b002e00900082
:102f9000be009000dbfa07000000e00001003500f1
:102fa0000044eb000804e0000f003200450ea900c9
:102fb000406580008000eb0015fb07002e019000ab
:102fc000be01900067fb07000200200003142400ec
:102fd0008afa0700cffa0700000078000000ea0034
:102fe000706588001a00370018c0b30062662600ba
:102ff00063fa23002e009000be009000c3fa070081
:103000000000e00001003c000044eb000804e00088
:103010000e003200450ea800406580008000eb00e5
:10302000fbfa07002e019000be0190004dfb070047
:10303000020020000314240070fa0700b5fa07000c
:10304000000078007065880001003700ae2cef00aa
:1030500018c0b3000200200003142c001e007800ea
:103060009e009000a7fa07000000e0000100340075
:103070000044eb000804e00009003200452ea800df
:1030800080658000ec00b90080007800b0aa2a00ba
:103090000008b8004308de003065880048003700ab
:1030a00018c0b30002002000031424001e007800a2
:1030b0009e00900095fa07000000e00001003d002e
:1030c0000044eb000804e00009003200452ea9008e
:1030d00080658000ec00b90080007800b0aa2a006a
:1030e0000008b8004308de0030658800340037006f
:1030f00018c0b3006266260063fa2b001e00780039
:103100009e0090007ffa07000000e00001003500fb
:103110000044eb000804e0000f003200452ea80038
:10312000806580008000eb00b9fa07001e0178007e
:103130009e0190000bfb07000200200003142400f6
:103140002efa070073fa0700000078000000ea007a
:10315000306588001a00370018c0b3006266260088
:1031600063fa23001e0078009e00900067fa0700b3
:103170000000e00001003c000044eb000804e00017
:103180000e003200452ea900806580008000eb0013
:103190009ffa07001e0178009e019000f1fa0700d7
:1031a000020020000314240014fa070059fa070053
:1031b000000078003065880001003700a62cef0081
:1031c0004f0478000080fa00000006000800fa00b2
:1031d000000f780011079800220798003307980025
:1031e0006000b800809fbe006000b800809fbe00f5
:1031f000a0702d0031c22300809fbe006000b80087
:10320000809fbe006000b800809fbe00a6702d00a9
:1032100037ba2300d4cc2c00c5d42300c24b2700de
:1032200033f123001e0078003b000700f4875700ad
:103230006000b800809fbe006000b800809fbe00a4
:10324000a0702d0031c22300809fbe006000b80036
:10325000809fbe006000b800809fbe00a6702d0059
:1032600037ba2300d4cc2c00c5d42300c24b27008e
:1032700033f123001e00900027000700f487570059
:103280006000b800809fbe006000b800809fbe0054
:10329000a0702d0031c22300809fbe006000b800e6
:1032a000809fbe006000b800809fbe006033b80001
:1032b0006022b80092c22500f3d823002e009000af
:1032c00015000700f48757006000b800809fbe001b
:1032d0006000b800809fbe00a0702d0031c22300a6
:1032e000809fbe006000b800809fbe006000b800f4
:1032f000809fbe006033b8006022b800020020004a
:10330000031224003e00900003000700f4875700da
:103310000080fa00000006000e00fa00000f78009e
:103320001207980023079800340798004507980073
:1033300056079800670798001e0078001e0190004d
:10334000ae0190000288be001e0078003e01900091
:10335000ce01900022009800330098001e007800f3
:103360005e019000ee01900042009800530098002a
:103370001e0078003eb99700ceb997006200980011
:10338000730098001e0078001eb99700aeb9970030
:1033900022109800331098001e0078007eb197002c
:1033a0008eb9970002109800131098001e00780044
:1033b0005eb19700eeb1970022089800330898009c
:1033c0001e0078003eb19700ceb197000208980029
:1033d000130898001e0178006000b800600998008a
:1033e000710998001e0178006000b800400998003b
:1033f000510998000080fa00000006000600fa005b
:10340000000f780012079800230798001e0078002c
:103410001e019000ae019000020898001308980069
:103420000080fa00000006000600fa00000f780095
:1034300012079800230798001e0078001e019000d4
:10344000ae01900022089800330898000080fa002e
:10345000000006000e00fa00889fbe00400798009a
:1034600052079800630798004e0090005e0190009c
:10347000ee01900022089800330898004e0090005a
:10348000000a9000900a90004e009000b008900052
:10349000200890000001be000400be0075f807007f
:1034a000008fbe004e009000d008900040089000b1
:1034b0000001be001e0078009e0090006df807001d
:1034c0000002be004e00900090109000001090008e
:1034d0000001be000400be0048f907002007980064
:1034e000310798004e009000f008900060089000ae
:1034f0001e0178009e0190005ff807004e019000c9
:1035000060099800710998004e009000f008900042
:103510006008900018c0b30002002000832c240033
:103520007af907000000e00001003c000044eb00d5
:103530000804e000060032004e0190000000200068
:10354000812c24006009980071099800110037004f
:103550004e009000f00890006008900018c0b30082
:1035600002002000832c2c0066f907000000e00018
:10357000010035000044eb000804e00005003200c3
:103580004e01900000002000812c2c006009980062
:10359000710998004e00900060049000f0049000c3
:1035a0004e00900090009000100078001e017800fe
:1035b0009e019000ebf907000001be000800be006c
:1035c0002df807000004be004e009000200290007d
:1035d000b00290004e009000f0089000600890004b
:1035e0000001be000400be00def907000001be00bd
:1035f0000800be0020f807000004be004e00900046
:10360000d0009000400090002e019000be0190007c
:10361000d4f907000001be000800be0016f807003c
:103620004e01900020119800311198004e0090003a
:103630001e0178009e0190004208980053089800ef
:103640004e009000b0109000201090004f04be007b
:103650000080fa00000006000000fa002188a9009e
:103660002168a90010cea90010aea80050022000c9
:10367000203688002134800000fc2f00008060008c
:103680000000a0002034880021e2a90021a2a900a6
:103690002182a9002162a90001118000f0cf2f0032
:1036a000008060000011880020c2a90020a2a900ab
:1036b0002082a9002062a9000111800090ff2f0044
:1036c00000806000001188002002a9002362a90088
:1036d00023a2a90023e2a90023c2a90022a2a900d3
:1036e00011118000f0f32f0000806000101188009d
:1036f000701c2000401188000188a9002188a800c2
:103700000168a9002168a80021e2a8002342a800be
:103710002c70ef002d70ef002e70ef002f70ef0077
:103720000080fa00000006000200fa00004f780056
:103730002dd0bf000080fb00e11921000080400077
:103740001e4878002dd0bf000040e8002df0b700e3
:10375000d10221009140780040c6b30080cf5000d4
:1037600001003a002d70ef000080fa000000060012
:103770000200fa002cd0bf000080fb00e1192100fc
:1037800000804000104f78002cd0bf000040e800bf
:103790002cf0b700c10221009140780040c6b30070
:1037a00080cf500001003a002c70ef001e407800de
:1037b0000080fa00000006000400fa0010079800dc
:1037c0000040eb00004f78002ed0bf00e14f5000ca
:1037d00003003a001e00900010407800d2ff07005e
:1037e00010c0b300004f7800060037001e80fb00b9
:1037f0009e0090000080400010407800caff070043
:103800001e4fe8001e80fb009e00900000804000dc
:10381000104078000004e000f4ff3a002ed0bf0012
:103820000004e00006003a0010c0b3002ef0b7001c
:103830001e009000104078000000fb00201188005e
:103840000080fa00000006000600fa002007980039
:10385000ae00900011079800b0002000000f780023
:10386000602621001e0040008040eb0001487800e7
:103870002e0090000000e00003003d002e009000ac
:103880000000ea00200798001e0fe900ae0090003b
:10389000a000200000017800110009008200d8007b
:1038a0008000fd00004078000043b00080407800b8
:1038b000602621001e004000014878002e01900083
:1038c000706626000090b900c288de004f90de00ce
:1038d00000805000200798002e0090000000e000bb
:1038e000e9ff3a001e0090000000e00005003d00e6
:1038f0001e0fe900602621001e004000d1c2b30067
:10390000014878009e007800602621000080400079
:103910000080fa00000006000200fa001c00070008
:103920002d0007006000b8002081880031818800e8
:103930006000b80040818800518188000000eb00e1
:10394000000f78000d0037001e0078008000400056
:1039500020272100008040008000eb000108780053
:103960001e00780080004000602821000080400098
:103970008000eb00010878001e0fe8001e007800b0
:10398000e90f5000f0ff34000080fa00000006004c
:103990000000fa0005e1a9000021ef0060442000ca
:1039a0001008880005a1a9000421a90021088000b1
:1039b000f0fc2f00008060000050a000200888006c
:1039c00004c1a9000068a9002068a80005e1a800ba
:1039d0000080fa00000006000000fa0011e1a900d2
:1039e0000621ef000080eb006008880011a1a9000b
:1039f0001021a90081088000f0fc2f0000806000e9
:103a00000050a0008008880010c1a90000e8a900ab
:103a100020e8a90011e1a8000080fa0000000600db
:103a20000400fa00100798000621ef00300880001b
:103a3000000f780000000000310880001e007800b0
:103a4000808050001e009000808f5000faff3900e7
:103a50000080fa00000006000600fa002007980027
:103a60002e0090008000eb0069f80700f25128005a
:103a7000b3f82300bbf8070047f8070010079800c9
:103a80000000eb00000f7800030037001e009000dc
:103a9000e3ff07001e0fe800703e20009e00780044
:103aa000808f5000f9ff34000080fa00000006000b
:103ab0000000fa0004000700260007003900070094
:103ac0000080fa00000006000000fa0060cea800a6
:103ad00060eea800610ea800612ea8006ecea900bd
:103ae0006eeea9006f0ea9006f2ea900e1358000cf
:103af00000f82f0080806000600720000100700047
:103b0000e0358800e1358000f00f280080806000fb
:103b10000080270001007000e03588000136800039
:103b200000f82f0080806000700720000100700006
:103b30000036880001368000f00f28008080600089
:103b40000090270001007000003688000080fa0015
:103b5000000006000000fa00010e8000c0ff2f00e8
:103b600000806000000e8800c041a900c061a8006c
:103b7000010e8000f0f82f0000806000000e880029
:103b8000010e8000f03f2e0000806000000e8800d3
:103b9000c1e1a800c3c1a800c421ef000080fa0061
:103ba000000006000000fa00012e8000c0ff2f0078
:103bb00000806000002e8800c045a900c065a900f3
:103bc000012e8000f0f82f0000806000002e880099
:103bd000012e8000f03f2e0000806000002e880043
:103be000c1e5a800c3c5a800c425ef000080fa0005
:103bf000000006000000fa00020007000080fa0042
:103c0000000006000000fa0021e3a9002003a9003b
:103c10002023a9002043a9002063a9002083a90034
:103c200001198000000e20000100700000198800ba
:103c300001198000f0cf2f0000806000001988007b
:103c40002143a9002183a90021a3a9002203a900df
:103c50002223a9001119800030f82f000080600095
:103c60001019880011198000f0cf2f00008060002b
:103c7000101988002343a90011198000f0ff2100ca
:103c8000008060001019880070c7b30024e3b700fb
:103c900021198000f00f2e000080600000a0a0001d
:103ca0002019880025e3a9009119800080ff2f00ca
:103cb00000806000901988003303a9002623ef00dc
:103cc0002823ef003023ef002e23ef0021e3a8008c
:103cd0000080fa00000006000000fa003003a8008f
:103ce0002003a9002023a800000000000019800084
:103cf000610060000000e000fcff3200001880005e
:103d00000080fa00000006000000fa000080eb00ce
:103d1000007088000080eb00807088000080eb005d
:103d2000007188000080eb00807188000080eb004b
:103d3000007288000080eb00807288000080eb0039
:103d40000073880061cea900302ea900304ea90072
:103d5000410ea900412ea9000e2eef001e2eef00ed
:103d60002e2eef003e2eef004e2eef005e2eef00c7
:103d70000080eb0070738800062eef00162eef0017
:103d8000262eef00362eef00462eef00562eef00c7
:103d9000662eef000a2eef001a2eef002a2eef00fb
:103da0003a2eef004a2eef005a2eef006a2eef0057
:103db0000c2eef001c2eef002c2eef003c2eef00ff
:103dc0004c2eef005c2eef006c2eef00082eef0063
:103dd000182eef00282eef00382eef00482eef00af
:103de000582eef00682eef00042eef00142eef0087
:103df000242eef00342eef00442eef00542eef005f
:103e0000642eef000080fa00000006000000fa00b7
:103e1000313a800000e02f00808060001002200016
:103e200001007000303a88004567a900213a8000ff
:103e300000fe2f0000806000203a8800213a8000b8
:103e4000f0f32f0000806000203a8800320020004c
:103e500080072000a10920003374200080497800e9
:103e60008149780082497800103a8000000178008a
:103e70000200a000600420007105200023742000cf
:103e8000804978008149780082497800000000006c
:103e9000113a8000000027008080600000002300ad
:103ea000808f5000faff3a0000000000113a8000b5
:103eb00000022000008060000000e000fbff3200f4
:103ec0000080fa00000006000000fa00020007006f
:103ed0000080fa00000006000000fa002128a90076
:103ee0002148a90041e2a900206ea800012ea800e7
:103ef000008ea900100ea8000f2ea9002e6ea9009a
:103f00001e0ea90041a2a9000112800030fe2f0060
:103f100000806000c000b300001288004362a90066
:103f20004342a9004322a9004302a80042e2a8009c
:103f300042c2a90042a2a90045e2a9004402a90088
:103f40002148a8000148a90041e2a8000080fa0029
:043f50000000060067
:020000040000fa
:103f54003010000002000000800000003210000059
:103f6400020000008000000036100000680100001c
:103f7400800000000010000020000000800000000d
:103f840072120000280000008000000020100000d1
:103f94000c000000800000009e110000d40000000e
:103fa400800000002c1000000400000080000000cd
:103fb4003410000002000000800000000000000037
:020000040000fa
:103fc4000000fa000000280000468800c228ef0024
:0c3fd400c3e8a8000080fa00000006000e
:020000040000fa
:02000004000af0
:04afe000cfff00009f
:020000040000fa
:02000004000af0
:04afe400ffff00006b
:020000040000fa
:02000004000af0
:04afe8007fff0000e7
:020000040000fa
:02000004000af0
:04afec005aff000008
:020000040000fa
:02000004000af0
:04aff000bbff0000a3
:020000040000fa
:02000004000af0
:04aff400ffff00005b
:00000001FF
