:020000040000fa
:080000000002040000000000f2
:020000040000fa
:04000800fa020000f8
:020000040000fa
:04000c00fa020000f4
:020000040000fa
:04001000fa020000f0
:020000040000fa
:04001400fa020000ec
:020000040000fa
:04001800fa020000e8
:020000040000fa
:04001c00fa020000e4
:020000040000fa
:04002000fa020000e0
:020000040000fa
:04002400fa020000dc
:020000040000fa
:04002800fa020000d8
:020000040000fa
:04002c00fa020000d4
:020000040000fa
:04003000fa020000d0
:020000040000fa
:04003400d2330000c3
:020000040000fa
:04003800fa020000c8
:020000040000fa
:04003c00fa020000c4
:020000040000fa
:04004000fa020000c0
:020000040000fa
:04004400fa020000bc
:020000040000fa
:040048001c3b00005d
:020000040000fa
:04004c00fa020000b4
:020000040000fa
:040050009e490000c5
:020000040000fa
:04005400ac200000dc
:020000040000fa
:04005800da3000009a
:020000040000fa
:04005c00fa020000a4
:020000040000fa
:04006000fa020000a0
:020000040000fa
:04006400fa0200009c
:020000040000fa
:04006800fa02000098
:020000040000fa
:04006c00fa02000094
:020000040000fa
:04007000fa02000090
:020000040000fa
:040074000c46000036
:020000040000fa
:04007800fa02000088
:020000040000fa
:04007c00fa02000084
:020000040000fa
:04008000fa02000080
:020000040000fa
:04008400fa0200007c
:020000040000fa
:04008800fa02000078
:020000040000fa
:04008c00fa02000074
:020000040000fa
:04009000fa02000070
:020000040000fa
:04009400fa0200006c
:020000040000fa
:04009800fa02000068
:020000040000fa
:04009c00fa02000064
:020000040000fa
:0400a0005c260000da
:020000040000fa
:0400a4000a3100001d
:020000040000fa
:0400a800fa02000058
:020000040000fa
:0400ac00fa02000054
:020000040000fa
:0400b000fa02000050
:020000040000fa
:0400b400fa0200004c
:020000040000fa
:0400b800fa02000048
:020000040000fa
:0400bc00fa02000044
:020000040000fa
:0400c000fa02000040
:020000040000fa
:0400c400fa0200003c
:020000040000fa
:0400c800fa02000038
:020000040000fa
:0400cc00fa02000034
:020000040000fa
:0400d000fa02000030
:020000040000fa
:0400d400fa0200002c
:020000040000fa
:0400d800fa02000028
:020000040000fa
:0400dc00fa02000024
:020000040000fa
:0400e000fa02000020
:020000040000fa
:0400e400fa0200001c
:020000040000fa
:0400e800fa02000018
:020000040000fa
:0400ec00fa02000014
:020000040000fa
:0400f000fa02000010
:020000040000fa
:0400f400fa0200000c
:020000040000fa
:0400f800fa02000008
:020000040000fa
:0400fc00fa02000004
:020000040000fa
:04010000fa020000ff
:020000040000fa
:04010400fa020000fb
:020000040000fa
:04010800fa020000f7
:020000040000fa
:04010c00fa020000f3
:020000040000fa
:04011000fa020000ef
:020000040000fa
:04011400fa020000eb
:020000040000fa
:04011800fa020000e7
:020000040000fa
:04011c00fa020000e3
:020000040000fa
:04012000fa020000df
:020000040000fa
:04012400fa020000db
:020000040000fa
:04012800fa020000d7
:020000040000fa
:04012c00fa020000d3
:020000040000fa
:04013000fa020000cf
:020000040000fa
:04013400fa020000cb
:020000040000fa
:04013800fa020000c7
:020000040000fa
:04013c00fa020000c3
:020000040000fa
:04014000fa020000bf
:020000040000fa
:04014400fa020000bb
:020000040000fa
:04014800fa020000b7
:020000040000fa
:04014c00fa020000b3
:020000040000fa
:04015000fa020000af
:020000040000fa
:04015400fa020000ab
:020000040000fa
:04015800fa020000a7
:020000040000fa
:04015c00fa020000a3
:020000040000fa
:04016000fa0200009f
:020000040000fa
:04016400fa0200009b
:020000040000fa
:04016800fa02000097
:020000040000fa
:04016c00fa02000093
:020000040000fa
:0401700050490000f2
:020000040000fa
:04017400204900001e
:020000040000fa
:04017800fa02000087
:020000040000fa
:04017c00fa02000083
:020000040000fa
:04018000fa0200007f
:020000040000fa
:04018400fa0200007b
:020000040000fa
:04018800fa02000077
:020000040000fa
:04018c00fa02000073
:020000040000fa
:04019000fa0200006f
:020000040000fa
:04019400fa0200006b
:020000040000fa
:04019800fa02000067
:020000040000fa
:04019c00fa02000063
:020000040000fa
:0401a000fa0200005f
:020000040000fa
:0401a400fa0200005b
:020000040000fa
:0401a800fa02000057
:020000040000fa
:0401ac00fa02000053
:020000040000fa
:0401b000fa0200004f
:020000040000fa
:0401b400fa0200004b
:020000040000fa
:0401b800fa02000047
:020000040000fa
:0401bc00fa02000043
:020000040000fa
:0401c000fa0200003f
:020000040000fa
:0401c400fa0200003b
:020000040000fa
:0401c800fa02000037
:020000040000fa
:0401cc00fa02000033
:020000040000fa
:0401d000fa0200002f
:020000040000fa
:0401d400fa0200002b
:020000040000fa
:0401d800fa02000027
:020000040000fa
:0401dc00fa02000023
:020000040000fa
:0401e000fa0200001f
:020000040000fa
:0401e400fa0200001b
:020000040000fa
:0401e800fa02000017
:020000040000fa
:0401ec00fa02000013
:020000040000fa
:0401f000fa0200000f
:020000040000fa
:0401f400fa0200000b
:020000040000fa
:0401f800fa02000007
:020000040000fa
:0401fc00fa02000003
:020000040000fa
:04020000fa020000fe
:020000040000fa
:04020400fa020000fa
:020000040000fa
:04020800fa020000f6
:020000040000fa
:04020c00fa020000f2
:020000040000fa
:04021000fa020000ee
:020000040000fa
:04021400fa020000ea
:020000040000fa
:04021800fa020000e6
:020000040000fa
:04021c00fa020000e2
:020000040000fa
:04022000fa020000de
:020000040000fa
:04022400fa020000da
:020000040000fa
:04022800fa020000d6
:020000040000fa
:04022c00fa020000d2
:020000040000fa
:04023000fa020000ce
:020000040000fa
:04023400fa020000ca
:020000040000fa
:04023800fa020000c6
:020000040000fa
:04023c00fa020000c2
:020000040000fa
:04024000fa020000be
:020000040000fa
:04024400fa020000ba
:020000040000fa
:04024800fa020000b6
:020000040000fa
:04024c00fa020000b2
:020000040000fa
:04025000fa020000ae
:020000040000fa
:04025400fa020000aa
:020000040000fa
:04025800fa020000a6
:020000040000fa
:04025c00fa020000a2
:020000040000fa
:04026000fa0200009e
:020000040000fa
:04026400fa0200009a
:020000040000fa
:04026800fa02000096
:020000040000fa
:04026c00fa02000092
:020000040000fa
:04027000fa0200008e
:020000040000fa
:04027400fa0200008a
:020000040000fa
:04027800fa02000086
:020000040000fa
:04027c00fa02000082
:020000040000fa
:04028000fa0200007e
:020000040000fa
:100400002f4821000eff27000e0188000000000089
:10041000000020000000e000020032000001200087
:100420002002880014000700740007000000e000ac
:1004300003003a0080b724000100200002003700ca
:100440000000200001002000810f70000100320038
:100450000f000700000020000000e0000200320052
:100460000000020000000000d60b020000000000a7
:100470000040da000000fe00002620000000e0003e
:1004800002003200002020009001880000000600d9
:10049000a1028800800478000000eb001f003700f4
:1004a000e284440054a0b4009905ba00e2844400f8
:1004b00054a0b4009906ba00e284440054a0b400e9
:1004c0000006eb00476fde00fd07b200ae018800ba
:1004d000636ce10003003a000ad801000000eb0061
:1004e0000e003700606ce10008003a00004deb00a0
:1004f0000a05e800020039003420ec000af0a000f0
:100500008b05e900f9ff3e00040037006168e10057
:10051000010032000086eb000b00070019c7ba008b
:100520001905ba000e04e00003003a000a00e000da
:10053000dbff3a0000000600fe07b200ae028800b2
:100540008a047800f5ff37000cd0a300e20f4d00bd
:100550001c00390089027800354dba000a05e80010
:10056000020039003420ec000af0a0008b05e900fd
:100570000f003200254dba000a05e80002003900dc
:100580003420ec000af0a0008b05e90008003200de
:100590000c00e0000600320015cdba000a05e800a4
:1005a000020039003420ec000af0a0008b05e900bd
:1005b0008984e80054a0b4000b00e000e2ff3a0098
:1005c000000006009902ba00055d78008b05e9007d
:1005d000f7ff3200c82ade00055d78008b05e900d0
:1005e000f3ff32000c00e000f1ff320019ddba0029
:1005f000eeff37000040da000000fe0000000500ba
:1006000003f0a200889fbe008a9fbe008c1f780066
:100610009f010700a60133006450e1004f00320043
:100620006420e1005200320003826c0007003b00ae
:100630000905d0000306d000820f54000c065d00af
:1006400002003900020032008901780003067800b8
:100650008582550004003d000003fd008103fd007c
:100660008502ea008b854200840f720002003b0085
:1006700060001000e08018006011b8000005eb0079
:100680007a28e1000a00390006007800c75ddd0025
:10069000f707b200878075002d0037008281710056
:1006a0000a017800610560008180d1000080d300dc
:1006b0008502e900f9ff3b000604400087844800fa
:1006c00002003b0060041400e0841c000988a300c1
:1006d000070032008a81710082817100610164002b
:1006e0008904d1000884d3008b05e8001700370087
:1006f0000978a30013003a000b00e0001300340057
:100700008b05e9000804440089844c000a44740005
:100710000978a3000d003a000b00e0000700340048
:100720008b05e9000804440089844c0001003a006c
:100730000b0020000978a300f7ff32000001eb0056
:1007400002003700828171000a017800150107005c
:100750000cf0a70001f0a0005e0137006420e1006a
:1007600002003a00838f6c005e0133000801be0076
:100770000200be0057013700889fbe008a9fbe005e
:100780008c1f7800420107001002200002003b008d
:1007900000848800460137008a0062006408e10096
:1007a00002003a00008488004e0137006108e10031
:1007b000fcff32000800be0003047800720007004e
:1007c00001f0a1000900070008f0a60004003700ae
:1007d0000001be0091042400b0fd200088ff070046
:1007e00009f0a70001f0a2003a013700889fbe007f
:1007f0008a9fbe008c9fbe000004be000f01070050
:100800000800be00890678006420e1000800390075
:10081000040032000160a00012022000028488005f
:100820005300370091fc2300b0fd20004e0037003c
:100830000006eb0009f0a10003f8230002002000ed
:100840000800be00920007000600340001f82300f3
:10085000000020000801be004b0007000004be009d
:100860002c0020000800be0093e82300320a230079
:1008700087000700120034000801be00d1fd2300ec
:10088000703d2b005fff07000005be00b3f323009f
:10089000f27a26000800be001501070003f82300c5
:1008a0000200200056ff07000801be0055ff0700a8
:1008b0000a01be00340007000004be000c06e80078
:1008c0000800be0001f0a1000200200003982300f0
:1008d0006f0007000800be00160035000801be00ca
:1008e000030107000005be0032cd2c0043fb2300ae
:1008f00044ff0700809fbe001269280003d52b002b
:100900000a00be00fa000700620f210013ef2b005f
:100910003cff07000a01be00f50007004f01be00c2
:10092000190007000801be00f10007000801be0021
:1009300034ff07000c00e0000b0032000c10a70091
:1009400001f0a200b2fd200093fc23006260e100f0
:100950000400320022a9200063f023000c10a7003d
:1009600063f8230027ff07000df0a70001f0a200a5
:100970004f06be004f05be004f04be00000006003b
:100980000081eb000e013700889fbe008a9fbe00e9
:100990008c1f7800be000700c500330003866c0082
:1009a0006450e1002e0032006420e1003300320088
:1009b0006150e1002f0032006120e100310032007f
:1009c00085855500eb07b0000900200008042000d1
:1009d000050037000804440089844c000a003100f7
:1009e0000603430087834b000001530081815b00b5
:1009f000f8ff33000203be000800a0000804440012
:100a000089844c00f6ff3900c639dd00830173008c
:100a100001003200130020008904d1000884d300b3
:100a20000998a300050032000800a7000300a000f9
:100a30008904d1000884d3008b05e8008904d10023
:100a40000884d3000001eb000281d20055000700aa
:100a500001f0a1000cf0a70001f0a0009d003700fc
:100a60006420e1009f0032000801be000200be00c9
:100a7000f7ff37006120e1009a0032006000b80003
:100a8000f3ff37000000200001f82700f0ff3700d7
:100a9000140020006a013700f4ff2f0068013700be
:100aa0000001be00650007000470a70003f0a1006c
:100ab0006509b100160032000d0035006828e1001c
:100ac00006003500f0ff2f00f1ff27000300e000d3
:100ad00013003b000100280000000500000040005a
:100ae000818048008502e900fcff3a0008003700d9
:100af000f88f420002003c008000eb00000005007f
:100b00008100d1000080d3008502e800fcff3a009c
:100b10000300e00002003b0060001000e0801800cd
:100b2000000006000001be00440007000470a7009a
:100b300003f0a10003f8a30013003a006509b10017
:100b400010003200090035006928e100020035007c
:100b500001002800000005000000400081804800de
:100b60008502e900fcff3a0000000600f88f420011
:100b7000050035008100d1000080d3008502e80027
:100b8000fcff3a00000006008000eb0000000500ba
:100b90004f89de0082017800440137006011b800ff
:100ba0005201370081002000618055000b003d009c
:100bb0000b00200061fe2f000100e1001d00340049
:100bc00082817100610164008904d1000884d3002e
:100bd0000000e800faff3a007100200061006400a4
:100be000030070000200600009003200610444004c
:100bf000e0844c000988a500050032008b05e80060
:100c00006808e10002003a008904d1000884d3009a
:100c1000f20f20000258e10005003d00c75ddd0035
:100c2000f907b2008980750008007800000006000e
:100c30000bf827008b00780000000500c70ade00d3
:100c4000f107b200f50fb20008003200e1cf420018
:100c5000020032000170a00024000500810f700026
:100c6000010032000408050044000500810f7000f7
:100c700002003a00140005008502e900000040006f
:100c800081c04800fcff3b000170a000240005006b
:100c90000004be00e9ff07000003be000405be001b
:100ca0000200be00e5ff0700844f7500000006004b
:100cb0000200be006450e100050036006420e1003f
:100cc000020036000968a30001003a000800be00d7
:100cd0000160a0004f0678004f05be004f04be0023
:100ce00000000600f0ff2f00f1ff2700f9ff37009a
:100cf000889fbe008a9fbe008c1f7800e4ff07001b
:100d0000ebff330003866c006450e10024003200e6
:100d10006420e100270032006150e100220032002f
:100d20006120e100210032008b854200eb07b10019
:100d30000134b800003ab8000804420089844a002f
:100d4000013ab8000030b8008880400009014a002c
:100d50000400330000004000818048000201490087
:100d60008b05e900c909dd00830170000100320034
:100d700013002000c814de004814dd004709de001f
:100d80001200b200c808de000884700085ff07006a
:100d900001f0a1000cf0a70001f0a000cdff37008a
:100da0006120e100cfff32000801be000200be005a
:100db000f7ff37006150e100fcff3a00c9ff370040
:100dc000889fbe008a9fbe008c9fbe00820578006f
:100dd0000004be0099ff07000800be006420e10087
:100de0000700390002003a00f1ff2700f0ff2f0052
:100df0000160a00012022000028488005500370024
:100e00006120e10003003a000b00a70001f8230075
:100e10005000370001f0a10002002100936424007b
:100e20001bff07000800be0004003500b2fd2000d3
:100e3000930c2400dc0007000004be000005eb005a
:100e40000b00a6004f0dde0001f0a1000004be0063
:100e500032982f0023ea2300a5ff07000001eb00d2
:100e600003f023000b00a70003f82300e5fd0700b3
:100e70000bff07000000a7000a00a20044ff0700c4
:100e80000b00e000030032000200200003f023000a
:100e9000dbfd070001f0a2000006be0002002000fa
:100ea0009304240092ff07000801be00d5fd07004f
:100eb000809fbe000c00be0022a22a00d3a7230000
:100ec0008bff07004f01be00cefd07000004be00ef
:100ed00001f0a1000200200003982300ecfe0700af
:100ee0000800be00190035000001be0080ff0700a9
:100ef0000006be00b2c52900e36223007cff0700a4
:100f000022222b00f3942b00befd07000c01be0033
:100f100077ff0700e273280083c02300b9fd0700b4
:100f20000c01be0072ff070042aa2a00a3e22b00b8
:100f3000b4fd07000c01be006dff07000801be00f4
:100f40006bff07000801be00aefd07000a00a70006
:100f500001f0a2004f06be004f05be004f04be00c8
:100f6000000006000001eb0095ff3700889fbe00df
:100f70008a9fbe008c1f78000004be002fff070070
:100f80000478a30026003a006120e1002500320029
:100f900009f8a30025003a006420e1002100320096
:100fa000f507b1000508a300020032000000400070
:100fb000818048006044b800031020000200200037
:100fc00000004000818048000805440089854c00ed
:100fd0000a0541008b8549000a0550008b855800a1
:100fe000030033000a00be0002047400838474000e
:100ff0008301d1000281d300830f7100f0ff3a001a
:101000008904d1000884d30060014900820178007e
:10101000c1adde00fb07b000e2fe07002dff370088
:101020000960a0000800be002aff3700120220005d
:1010300002848800f0ff2f00f1ff270025ff370012
:10104000889fbe008a9fbe00841f780010ff0700a3
:101050004f00780011003300f0ff2f00838f6c00e9
:1010600006003b00040565000a00a70008003700e1
:1010700009f0a6001000200008003700820f54007d
:10108000838f5c00030039001000200001003e0047
:101090000000200009f0a7000000ea004f05be0094
:1010a0004f04be000000e00000000600881f78002a
:1010b000030478000300e00007003d00600010001a
:1010c000e080180060011900e081190002003b0077
:1010d00001f02d00030037000400070008f0a7000e
:1010e00001f0a0004f04780000000600889fbe00b9
:1010f0008a9fbe00008270000402710004827100a9
:10110000260032000004be000200be006011b800dc
:101110006b092000950220000182cf000a003900ef
:101120000541b1000082cf00070039000541b10040
:101130000982cf00040039000541b1000882cf00c8
:10114000010039000541b100054252001200320091
:101150000a003b0082817100610164008100d100be
:101160000080d3008984d3000884d3008b05e80075
:101170000442e800f7ff3a00070037000804440083
:1011800089844c0000004800818048008b05e900fc
:101190000442e900f9ff3a0082fe07004f05be0055
:1011a0004f04be00000006000400200000003700cd
:1011b000889fbe008a9fbe008c1f78004f26dd00ee
:1011c000b3fe0700bafe33006120e10043003200a5
:1011d0006250e10041003e003e0039006420e10021
:1011e0003c003200058255000f003b000402e8007d
:1011f00038003a00800f5300818f5b0035003400c7
:101200000800be0003f0a10001f0a60003f0a0005a
:101210000cf0a700fbfc0700aefe370006034300fe
:1012200087834b000c4646000005530081855b0018
:10123000020033000a03be000c00a0000402e90013
:10124000f6ff3b00850578000602430087824b00cd
:1012500004003a006000b80009f0a70001f0a00007
:101260009cfe37000002520081825a000704e00011
:10127000040033000603430087834b008b05e9001d
:10128000faff3700090578000604be000203be001d
:101290006011b80043fe0700e00f5200e08f5a00d3
:1012a0000700350002003c000c08a30004003200d7
:1012b0000601be0003f0a0000cf0a700d1fc07005f
:1012c0000a85680001f0a1000af0a70001f0a00063
:1012d00080fe37000800be007efe370010022000ae
:0c12e0000cf0a600008488007efe3700a1
:020000040000fa
:1012ec006b700000412000003a200000000a000052
:1012fc00006b000070440000203a00002000000049
:10130c006b640000412000003a200000006b0000dc
:10131c0064440000203a000020000000502000002f
:10132c003a20000000520000203a0000200000008b
:10133c004c2000003a20000000730000656e000095
:10134c0073200000522000003a20000000730000bf
:10135c00656e0000732000004c2000003a20000055
:10136c0000650000727200006f7200000a0000003d
:10137c007374000061740000652000003d200000c3
:10138c0000650000727200006f720000206900009e
:10139c006e760000616c000069640000205500004e
:1013ac0053200000696400000a0000006572000010
:1013bc00726f000072200000696e00007661000000
:1013cc006c69000064200000676500007420000058
:1013dc0061720000677500006d6500006e7400009e
:1013ec000a00000065720000726f0000722000009d
:1013fc00696e0000766100006c69000064200000da
:10140c0073650000727600006f20000076610000aa
:10141c006c750000650a0000002000007365000078
:10142c006e740000207400006f20000053650000f3
:10143c00727600006f3000000a000000207300007c
:10144c00656e000074200000746f000020530000d3
:10145c0065720000766f0000330a00000065000022
:10146c00727200006f720000206900006e7600003e
:10147c00616c00006964000020730000657200005c
:10148c00766f000020690000640a0000006500000f
:10149c00727200006f720000206900006e7600000e
:1014ac00616c000069640000207800002076000068
:1014bc00616c0000756500000a0000006572000098
:1014cc00726f000072200000696e000076610000ef
:1014dc006c69000064200000792000007661000037
:1014ec006c750000650a00000020000073650000a8
:1014fc006e740000207400006f2000006d6f0000ff
:10150c00746f0000723000000a00000020730000ad
:10151c00656e000074200000746f0000206d0000e8
:10152c006f7400006f720000310a0000006500004b
:10153c00727200006f720000206900006e7600006d
:10154c00616c000069640000206d00006f74000085
:10155c006f72000020690000640a0000006900003e
:10156c006e760000616c000069640000206d000064
:10157c006f7400006f72000020760000616c000038
:10158c00756500000a00000065720000726f0000b3
:10159c0072200000696e0000766100006c6900002a
:1015ac006420000041580000313200002069000026
:1015bc006420000028310000206f00007220000021
:1015cc00332900000a00000065720000726f0000f1
:1015dc00722000003a200000696e00007661000065
:1015ec006c69000064200000636d0000640a000058
:1015fc0000000000782000003a20000000200000cd
:10160c002f200000792000003a200000002000006c
:10161c002f200000742000003a2000000020000061
:10162c003b20000078630000203a000020000000fe
:10163c00202f000020790000632000003a200000d9
:10164c00002000002f20000074630000203a0000ee
:10165c00002000003b20000072580000203a0000df
:10166c0020000000202f00002072000059200000f4
:10167c003a200000002000002f20000072540000cf
:10168c00203a000020000000202f00002f20000036
:10169c00202000005431000049450000203a000091
:1016ac00200000000a00000045520000524f0000cc
:1016bc0052200000554e00004445000046490000f1
:1016cc004e450000442000005354000041540000db
:1016dc00450000006c2000003a20000000200000b3
:1016ec00202000002020000020720000203a000082
:1016fc0020000000202000002020000020200000fe
:10170c0044310000203a000020000000202000009e
:10171c002020000020200000443100002a3100006d
:10172c0030300000203a0000200000002020000093
:10173c00202000002020000044320000203a00004d
:10174c0020000000202000002020000020200000ad
:10175c00443200002a31000030300000203a0000f2
:10176c00200000000d0a00000020000020200000d6
:10177c002020000020790000203a0000200000000a
:10178c0020200000202000002020000074200000f9
:10179c003a200000000000002c0000000a000000ad
:020000040000fa
:1017ac000400fa00889fbe00721f0700201c07006f
:1017bc00aa1707009e1f0700f9090700dc1d070088
:1017cc00fc1c0700ed1f07001c1f07006000b80081
:1017dc0010808800218088006000b800308088006c
:1017ec00418088006000b8005080880061808800cb
:1017fc006000b80070808800818088006000b800ac
:10180c0090808800a18088006000b800b0808800bb
:10181c00c18088006000b800d0808800e18088001a
:10182c006000b800f0808800018188006000b8007a
:10183c0010818800218188000070ef000170ef009a
:10184c002830ef002a30ef00646ea8006000b8006a
:10185c00008fbe00050037000200200003f82300b3
:10186c001e00be0064fb0700008fbe0018c0b30052
:10187c0002002400c36124001e00be0081fc07008e
:10188c000000e000010035000044eb000804e0001b
:10189c00f1ff3a00646ea9006000b800008fbe0032
:1018ac00050037000200200003f823001e00be00d4
:1018bc0051fb0700008fbe0018c0b30002002400cb
:1018cc00c36124001e00be006efc07000000e00097
:1018dc00010035000044eb000804e000f1ff3a0081
:1018ec00646ea8006000b800008fbe0005003700d1
:1018fc000200200003f823001e00be003efb070080
:10190c00008fbe0018c0b30002002400c361240085
:10191c001e00be005bfc07000000e000010035006b
:10192c000044eb000804e000f1ff3a00646ea900eb
:10193c006000b800008fbe000500370002002000d8
:10194c0003f823001e00be002bfb0700008fbe0017
:10195c0018c0b30002002400c36124001e00be00a6
:10196c0048fc07000000e000010035000044eb00db
:10197c000804e000f1ff3a00646ea8006000b800b3
:10198c00008fbe00050037000200200003f8230082
:10199c001e00be0018fb0700008fbe0018c0b3006d
:1019ac0002002400c36124001e00be0035fc0700a9
:1019bc000000e000010035000044eb000804e000ea
:1019cc00f1ff3a00646ea9006000b800008fbe0001
:1019dc00050037000200200003f823001e00be00a3
:1019ec0005fb0700008fbe0018c0b30002002400e6
:1019fc00c36124001e00be0022fc07000000e000b2
:101a0c00010035000044eb000804e000f1ff3a004f
:101a1c00646ea8006000b800008fbe00050037009f
:101a2c000200200003f823001e00be00f2fa07009b
:101a3c00008fbe0018c0b30002002400c361240054
:101a4c001e00be000ffc07000000e0000100350086
:101a5c000044eb000804e000f1ff3a00646ea900ba
:101a6c0000002800300e880000002800302e88006e
:101a7c00a3362100e233210021312100602e210008
:101a8c00f9190700bb1207002630ef0001003700e0
:101a9c00000000007ed0bf000004e00070003200a7
:101aac006011b8006000b8007518070069003700b5
:101abc0066d0bf000004e0006600320000b02800d1
:101acc00551207001080800021808000f1fb070078
:101adc0000007800741207004f12070050b0280065
:101aec004d1207003080800041808000e9fb070028
:101afc00000078006c12070047120700d0b02800d5
:101b0c004512070050808000618080000200200098
:101b1c00433b240073fc0700b2fd2000930c24000f
:101b2c0096fb0700dbfb0700000078005e12070045
:101b3c003912070050b1280037120700708080005e
:101b4c0081808000d3fb070000007800561207004c
:101b5c0031120700e0b128002f120700908080009e
:101b6c00a1808000cbfb0700000078004e1207001c
:101b7c002912070070b2280027120700b0808000dd
:101b8c00c180800002002000433b240055fc07006c
:101b9c00b2fd2000930c240078fb0700bdfb07006e
:101bac0000007800401207001b120700f0b228005a
:101bbc0019120700c0828000d1828000b5fb07009b
:101bcc0000007800381207001312070080b32800b9
:101bdc0011120700e0828000f1828000adfb07004b
:101bec0000007800301207000b12070010b4280018
:101bfc00091207000083800011838000020020007e
:101c0c00433b240037fc0700b2fd2000930c24005a
:101c1c005afb07009ffb0700000078002212070008
:101c2c00fd110700a0b42800fb1107000041800043
:101c3c004300de00614060000080fb001a120700c8
:101c4c00f511070080b52800f311070040062000ad
:101c5c00bb1207007ed0bf000004e00094ff3a00e6
:101c6c00308180000000e00003003200e10f5000e2
:101c7c0028003200400037002068a9006000b8003e
:101c8c0010808800218088006000b80030808800b7
:101c9c00418088006000b800508088006180880016
:101cac006000b80070808800818088006000b800f7
:101cbc0090808800a18088006000b800b080880007
:101ccc00c18088006000b800d0808800e180880066
:101cdc006000b800f0808800018188006000b800c6
:101cec00108188002181880000002800300e8800b7
:101cfc0000002800302e88002068a800803e2000bc
:101d0c008f120700308180000000e80030818800cd
:101d1c001e00370064d0bf000004e0000c0032004d
:101d2c006470ef00e0828000f1828000c882800045
:101d3c00d982800006002000872c2400040020009b
:101d4c00852c24000001be000800be0074040700ae
:101d5c0065d0bf000004e000040032006570ef00a5
:101d6c0000838000118380001f07070040062000bd
:101d7c007312070005003700a0b528008211070078
:101d8c00a0b52800a41107000000000066d0bf0019
:101d9c000004e0003eff320000b028009e11070056
:101dac0010808000218080003afb07000000780042
:101dbc00bd1107009811070050b0280096110700bc
:101dcc00308080004180800032fb070000007800ea
:101ddc00b511070090110700d0b028008e11070034
:101dec00508080006180800002002000433b240072
:101dfc00bcfb0700b2fd2000930c2400dffa0700a7
:101e0c0024fb070000007800a711070082110700cf
:101e1c0050b1280080110700708080008180800004
:101e2c001cfb0700000078009f1107007a110700c7
:101e3c00e0b128007811070090808000a18080001c
:101e4c0014fb0700000078009711070072110700bf
:101e5c0070b2280070110700b0808000c180800033
:101e6c0002002000433b24009efb0700b2fd200033
:101e7c00930c2400c1fa070006fb07000000780051
:101e8c008911070064110700f0b2280062110700e5
:101e9c00c0828000d1828000fefa0700000078002a
:101eac00811107005c11070080b328005a1107004c
:101ebc00e0828000f1828000f6fa070000007800d2
:101ecc00791107005411070010b4280052110700b3
:101edc00008380001183800002002000433b24001b
:101eec0080fb0700b2fd2000930c2400a3fa07002e
:101efc00e8fa0700000078006b1107004611070094
:101f0c00a0b4280044110700004180004300de000b
:101f1c00614060000080fb00631107003e11070068
:101f2c0080b528003c110700dafe37001000fa00db
:101f3c00881f78000000200001142400400798003e
:101f4c00510798006000b800008fbe00d0cc2c0068
:101f5c00c1dc230060079800710798001e01be00c9
:101f6c004e009000de009000a2f9070018c0b300ec
:101f7c006e019000fe019000c4fa07000000e00022
:101f8c0001003c000044eb000804e00007003200b4
:101f9c006e019000fe0190001e00be0096f9070035
:101fac0020079800310798001c0037001e01be0066
:101fbc004e009000de0090008ef907000002be007b
:101fcc006e009000fe00900001f0a20018c0b3005b
:101fdc000001be000400be00aafa07000000e000e9
:101fec00010035000044eb000804e000070032005b
:101ffc006e019000fe0190001e00be007df90700ee
:10200c002007980031079800040037004e0190001b
:10201c00de01900022079800330798002e019000f3
:10202c00be019000028fbe002e019000be019000f8
:10203c006000b80012170700e0012000c011070073
:10204c00c6ff37001800fa002068a900000028001d
:10205c00300e880000002800302e8800310e8000e1
:10206c0000002800008040008000eb00c8fa070048
:10207c00b2fd2000930424001afb07000001be00ef
:10208c005df90700d2cc2c00431c240015fb070083
:10209c00020020000358240038fa0700008fbe000d
:1020ac00312e800000002800008040008000eb00f2
:1020bc00b7fa0700b2fd20009304240009fb0700c7
:1020cc000001be004cf90700d2cc2c00431c2400ac
:1020dc0004fb0700020020000358240027fa070025
:1020ec002007980031079800310e8000000028006e
:1020fc00008040008000eb00a5fa0700b2fd200034
:10210c0093042400f7fa07000001be003af9070017
:10211c00020020000358240018fa0700400798001a
:10212c0051079800312e80000000280000804000ec
:10213c008000eb0096fa0700b2fd20009304240007
:10214c00e8fa07000001be002bf90700020020008e
:10215c000358240009fa07006007980071079800db
:10216c004e019000de019000000020006139240037
:10217c0002fa0700000f9800110f98006e019000f2
:10218c00fe0190000000200061392400fbf90700db
:10219c00200f9800310f980000b728007a10070024
:1021ac001e00be003bfa070000007800be100700be
:1021bc007510070050b72800731007002e00900010
:1021cc00be00900033fa070000007800b61007003c
:1021dc006d10070000b828006b1007000e08900067
:1021ec009e0890002bfa070000007800ae10070044
:1021fc0065100700c0b8280063100700020020001b
:10220c00832c24000e0890009e089000b5fa07005d
:10221c0020fa070000007800a31007005a100700ee
:10222c00c0b92800581007002e089000be08900076
:10223c0018fa0700000078009b10070052100700e6
:10224c0080ba28005010070002002000832c2400c4
:10225c002e089000be089000a2fa07000dfa0700a5
:10226c0000007800901007004710070080bb280082
:10227c0045100700800c20003111070077ff370054
:10228c000000fa0000b028003f100700108080000a
:10229c0021808000fff90700000078008210070001
:1022ac0039100700b0bb28003710070030808000c1
:1022bc0041808000f7f90700000078007a100700d1
:1022cc003110070060bc28002f10070050808000e0
:1022dc006180800002002000433b240081fa07004b
:1022ec00b2fd2000930c2400a4f90700e9f90700c3
:1022fc00000078006c1007002310070080bb28003a
:10230c00211007000080fa00000006006800fa00a7
:10231c00889fbe00402f9800512f9800622f980084
:10232c00732f9800043798001537980026379800bb
:10233c003737980010808000218080000001be009b
:10234c004e289000de289000aaf807000004be007a
:10235c0030808000418080000001be006e2890001b
:10236c00fe289000a3f807000801be00fff8070044
:10237c0020179800311798005080800061808000f1
:10238c000001be002e109000be10900099f80700be
:10239c00200798003107980007003700b2fd200095
:1023ac00930c24002e009000be00900092f80700c1
:1023bc00200798003107980018c0b300b2fd200028
:1023cc0093042c002e009000be009000adf9070085
:1023dc000000e000010035000044eb000804e000c0
:1023ec00eeff3a0007003700b2fd2000930c2400ea
:1023fc002e009000be0090007ef807002007980089
:10240c003107980018c0b300b2fd200093042400db
:10241c002e009000be0090009cf907000000e00028
:10242c0001003c000044eb000804e000eeff3a0021
:10243c001080800021808000d0808800e18088009e
:10244c003080800041808000f0808800018188000d
:10245c00508080006180800010818800218188007c
:10246c0052808000638080004217980053179800b8
:10247c0000002000011224006017980071179800ca
:10248c000000200001122400001f9800111f98006a
:10249c006000b80040079800510798006000b80031
:1024ac0060079800710798006000b800000f980052
:1024bc00110f980018c0b3006011b8002e009000e6
:1024cc00be00900071f907000000e00001003c0024
:1024dc000044eb000804e00005003200000020007e
:1024ec0001f82300200f9800310f980031003700bd
:1024fc000000200001f82b00200f9800310f9800ed
:10250c002c003700a2702d0033c223006e109000f7
:10251c00fe109000f3f907000001be004e00900081
:10252c00de00900034f8070040079800510798002f
:10253c004e019000de0190006e009000fe009000b5
:10254c002df80700a2702d0033c22300e5f9070017
:10255c00020020000300240008f907000001be005f
:10256c000e0890009e08900023f80700000f9800ba
:10257c00110f98002e099000be0990000e089000d3
:10258c009e089000d7f907004e119000de119000c4
:10259c0019f80700b0808800c18088004e019000b7
:1025ac00de0190006207980073079800a0002000dd
:1025bc006310070018c0b3000e1990009e1990000c
:1025cc004e009000de0090002ef907000000e000a5
:1025dc00010035000044eb000804e0000e0032005e
:1025ec0002002000030024002e009000be0090008a
:1025fc00e2f8070018c0b3000e0990009e09900085
:10260c0022f907000000e00001003c000044eb0050
:10261c000804e000bbff3a000e0990009e099000f0
:10262c00221f9800331f98001b003700a2702d004a
:10263c0033c223004e009000de009000a9f9070081
:10264c000001be000e0890009e089000eaf70700fb
:10265c00000f9800110f98002e099000be099000f1
:10266c000e0890009e0890009ef907004e119000f5
:10267c00de119000e0f70700b0808800c180880070
:10268c004e019000de0190006207980073079800dd
:10269c00a00020002a1007002e199000be199000ef
:1026ac002e009000be009000d2f7070018c0b300b7
:1026bc000e0990009e099000f4f807000000e0005d
:1026cc0001003c000044eb000804e000d7ff3a0096
:1026dc006e109000fe10900001f0a20060179800a0
:1026ec00711798002c003700a2702d0033c2230004
:1026fc006e109000fe1090007af907000001be00e9
:10270c004e009000de009000bbf7070040079800d9
:10271c00510798004e019000de0190006e00900071
:10272c00fe009000b4f70700a2702d0033c2230006
:10273c006cf9070002002000030024008ff807004a
:10274c000001be000e0890009e089000aaf707003a
:10275c00000f9800110f98002e099000be099000f0
:10276c000e0890009e0890005ef907004e11900034
:10277c00de119000a0f70700b0808800c1808800af
:10278c004e019000de0190006207980073079800dc
:10279c00a0002000ea0f070018c0b3006011b800b9
:1027ac004e009000de009000b8f807000000e0003a
:1027bc0001003c000044eb000804e0000b00320078
:1027cc0018c0b3002e019000be0190000e089000be
:1027dc009e089000abf807000000e00001003500f7
:1027ec000044eb000804e000bfff3a002e09900003
:1027fc00be0990002e009000be00900039f9070031
:10280c004e119000de1190007bf70700b08088001d
:10281c00c1808800401f2000c90f07004e2990007e
:10282c00de299000d2808800e38088006e29900019
:10283c00fe299000f2808800038188000e31900000
:10284c009e319000128188002381880018c0b3004b
:10285c006011b8002e309000be30900089f807004f
:10286c000000e000010035000044eb000804e0002b
:10287c00040032006000b80020379800313798000f
:10288c000f00370018c0b300024022004397240009
:10289c002e309000be3090007cf807000000e00065
:1028ac0001003c000044eb000804e000040032008e
:1028bc0000402200419724002037980031379800bf
:1028cc0018c0b3006011b8003eb89700ceb897009e
:1028dc006cf807000000e000010035000044eb003c
:1028ec000804e000040032006000b80030bf9f0014
:1028fc0041bf9f000f00370018c0b30002402200f8
:10290c00439724003eb89700ceb897005ff80700b5
:10291c000000e00001003c000044eb000804e00073
:10292c0004003200004022004197240030bf9f0079
:10293c0041bf9f003280800043808000421f98007e
:10294c00531f98001280800023808000621f980023
:10295c00731f98006e199000fe1990004e2890007d
:10296c00de28900023f70700002798001127980015
:10297c004e199000de1990006e289000fe289000f1
:10298c001cf7070020279800312798000e21900093
:10299c009e2190002e209000be20900073f707001f
:1029ac0040279800512798000e2190009e219000fe
:1029bc000e2090009e209000caf807000004be0074
:1029cc002e219000be2190002e209000be20900061
:1029dc00c4f807000001be000800be0006f707009f
:1029ec005ff9070060279800712798003eb997009f
:1029fc00ceb99700022f9800132f98006000b800f2
:102a0c00400f9800510f98006000b800600f9800bc
:102a1c00710f98006000b80000179800111798000b
:102a2c0038003700a2702d0033c223000e2890000e
:102a3c009e289000abf807000001be004e089000e5
:102a4c00de089000ecf60700400f9800510f98003c
:102a5c004e099000de0990006e089000fe08900070
:102a6c00e5f60700a2702d0033c223009df8070085
:102a7c000200200003002400c0f707000001be0084
:102a8c000e1090009e109000dbf6070000179800c7
:102a9c00111798004e209000de209000b5f707002b
:102aac000e1190009e1190008ef807006e19900088
:102abc00fe199000d0f60700708088008180880095
:102acc004e209000de20900023f907000e1190009c
:102adc009e11900083f807004e199000de199000ab
:102aec00c5f6070090808800a18088004e099000f0
:102afc00de099000620f9800730f9800a000200070
:102b0c000f0f070018c0b3002e319000be3190009b
:102b1c004e089000de089000daf707000000e00095
:102b2c00010035000044eb000804e0000e00320008
:102b3c0002002000030024006e209000fe20900074
:102b4c008ef7070018c0b3000e1190009e11900074
:102b5c00cef707000000e00001003c000044eb0051
:102b6c000804e000afff3a000e1190009e11900097
:102b7c00222f9800332f980018c0b3002e319000ec
:102b8c00be3190004e089000de089000bff70700a1
:102b9c000000e00001003c000044eb000804e000f1
:102bac002d0032002e319000be319000420f980063
:102bbc00530f980029003700a2702d0033c2230058
:102bcc004e089000de08900046f807000001be0099
:102bdc000e1090009e10900087f6070000179800ca
:102bec00111798004e209000de20900061f707002e
:102bfc000e1190009e1190003af807006e1990008b
:102c0c00fe1990007cf60700708088008180880097
:102c1c004e209000de209000cff807000e1190009f
:102c2c009e1190002ff807004e199000de199000ad
:102c3c0071f6070090808800a18088004e099000f2
:102c4c00de099000620f9800730f9800a00020001e
:102c5c00bb0e070001003700000000002e29900079
:102c6c00be2990006e209000fe20900061f60700b7
:102c7c0018c0b3000e1190009e11900083f707004e
:102c8c000000e00001003c000044eb000804e00000
:102c9c00c9ff3a000e2890009e28900001f0a20077
:102cac00002f9800112f980038003700a2702d00cb
:102cbc0033c223000e2890009e28900009f80700cc
:102ccc000001be004e089000de0890004af6070096
:102cdc00400f9800510f98004e099000de099000ab
:102cec006e089000fe08900043f60700a2702d00bd
:102cfc0033c22300fbf7070002002000030024006e
:102d0c001ef707000001be000e1090009e109000f0
:102d1c0039f6070000179800111798004e20900004
:102d2c00de20900013f707000e1190009e1190000a
:102d3c00ecf707006e199000fe1990002ef60700b4
:102d4c0070808800818088004e209000de209000ea
:102d5c0081f807000e1190009e119000e1f707001a
:102d6c004e199000de19900023f607009080880021
:102d7c00a18088004e099000de099000620f980037
:102d8c00730f9800a00020006d0e070018c0b30050
:102d9c006011b8004e089000de0890003bf7070069
:102dac000000e00001003c000044eb000804e000df
:102dbc000b00320018c0b3006e219000fe21900071
:102dcc000e1090009e1090002ef707000000e000ff
:102ddc00010035000044eb000804e000b3ff3a00aa
:102dec004e299000de299000728088008380880034
:102dfc006e299000fe29900092808800a3808800a4
:102e0c00401f20004e0e0700508080006180800023
:102e1c0018c0b3000001be000e3090009e30900030
:102e2c001af707000000e00001003c000044eb0032
:102e3c000804e0001900320052808000638080009a
:102e4c00028fbe000a0037001e01be00b28088004f
:102e5c00c380880010002000390e0700f2262100e4
:102e6c0033b023001e00be00e3f50700008fbe0048
:102e7c0018c0b3000e3190009e3190001e00be00b1
:102e8c0000f707000000e000010034000044eb00f4
:102e9c000804e000ecff3a00180037005280800074
:102eac0063808000028fbe000a0037001e01be0046
:102ebc00b2808800c380880010002000200e07001c
:102ecc00f226210033b023001e00be00c9f5070016
:102edc00008fbe0018c0b3000e3190009e319000e0
:102eec001e00be00e9f607000000e00001003d00f6
:102efc000044eb000804e000ecff3a000e319000b7
:102f0c009e319000b2808800c3808800401f200052
:102f1c000b0e07004f04be000080fa0000000600f4
:102f2c006400fa00889fbe00202f9800312f980073
:102f3c00422f9800532f9800642f9800752f9800fb
:102f4c000637980017379800108080002180800089
:102f5c000001be002e289000be289000a5f50700a9
:102f6c000004be0030808000418080000001be0063
:102f7c004e289000de2890009ef507000801be0048
:102f8c00faf5070000179800111798005080800080
:102f9c00618080000001be000e1090009e10900019
:102fac0094f50700008fbe0005003700b2fd20002d
:102fbc00930c24001e00be008ff50700008fbe008e
:102fcc0018c0b300b2fd200093042c001e00be00fc
:102fdc00acf607000000e000010035000044eb00f7
:102fec000804e000f1ff3a0005003700b2fd2000b4
:102ffc00930c24001e00be007ef50700008fbe005f
:10300c0018c0b300b2fd2000930424001e00be00c3
:10301c009ef607000000e00001003c000044eb00bd
:10302c000804e000f1ff3a0010808000218080004d
:10303c00d0808800e1808800308080004180800052
:10304c00f0808800018188005080800061808000c1
:10305c00108188002181880052808000638080006c
:10306c0022179800331798000000200001f8230065
:10307c0040179800511798000000200001f8230019
:10308c0060179800711798006000b800200798002e
:10309c00310798006000b80040079800510798006d
:1030ac006000b800600798007107980018c0b30062
:1030bc006011b8001e00be0074f607000000e000ae
:1030cc0001003c000044eb000804e0000500320065
:1030dc000000200001f82300000f9800110f980049
:1030ec00310037000000200001f82b00000f980081
:1030fc00110f98002c003700a2702d0033c2230052
:10310c004e109000de109000f6f607000001be0095
:10311c002e009000be00900037f5070020079800a5
:10312c00310798002e019000be0190004e009000d7
:10313c00de00900030f50700a2702d0033c2230092
:10314c00e8f6070002002000030024000bf607003d
:10315c000001be006e009000fe00900026f50700f6
:10316c0060079800710798000e0990009e09900066
:10317c006e009000fe009000daf607002e11900011
:10318c00be1190001cf50700b0808800c18088003b
:10319c002e019000be019000420798005307980042
:1031ac00a0002000660d070018c0b3006e1190003f
:1031bc00fe1190002e009000be00900031f607002a
:1031cc000000e000010035000044eb000804e000c2
:1031dc000d00320002002000030024001e00be007f
:1031ec00e6f5070018c0b3006e019000fe019000d8
:1031fc0026f607000000e00001003c000044eb0054
:10320c000804e000bcff3a006e019000fe01900043
:10321c00021f9800131f98001b003700a2702d008e
:10322c0033c223002e009000be009000adf60700c4
:10323c000001be006e009000fe009000eef407004e
:10324c0060079800710798000e0990009e09900085
:10325c006e009000fe009000a2f607002e11900068
:10326c00be119000e4f40700b0808800c180880093
:10327c002e019000be019000420798005307980061
:10328c00a00020002e0d07000e1990009e19900032
:10329c001e00be00d7f4070018c0b3006e019000ea
:1032ac00fe019000f9f507000000e00001003c0071
:1032bc000044eb000804e000d8ff3a004e109000e8
:1032cc00de10900001f0a2004017980051179800f2
:1032dc002c003700a2702d0033c223004e1090003a
:1032ec00de1090007ff607000001be002e0090005b
:1032fc00be009000c0f4070020079800310798002a
:10330c002e019000be0190004e009000de00900057
:10331c00b9f40700a2702d0033c2230071f6070028
:10332c00020020000300240094f507000001be00f9
:10333c006e009000fe009000aff40700600798004c
:10334c00710798000e0990009e0990006e00900085
:10335c00fe00900063f607002e119000be11900045
:10336c00a5f40700b0808800c18088002e01900071
:10337c00be0190004207980053079800a00020005f
:10338c00ef0c070018c0b3006011b8002e009000bd
:10339c00be009000bdf507000000e00001003c00fd
:1033ac000044eb000804e0000a00320018c0b3002f
:1033bc001e01be006e009000fe009000b1f50700eb
:1033cc000000e000010035000044eb000804e000c0
:1033dc00c0ff3a000e0990009e0990001e00be002e
:1033ec0040f607002e119000be11900082f40700e9
:1033fc00b0808800c1808800401f2000d00c0700de
:10340c002e299000be299000d2808800e38088008d
:10341c004e299000de299000f280880003818800fc
:10342c0018c0b3006011b8006e289000fe28900000
:10343c0094f507000000e000010035000044eb00ab
:10344c000804e000040032006000b800602f98000f
:10345c00712f98000f00370018c0b30002402200f3
:10346c00439724006e289000fe28900087f50700f3
:10347c000000e00001003c000044eb000804e00008
:10348c00040032000040220041972400602f980075
:10349c00712f980018c0b3006011b8000e30900066
:1034ac009e30900077f507000000e0000100350029
:1034bc000044eb000804e000040032006000b80097
:1034cc0000379800113798000f00370018c0b30070
:1034dc0002402200439724000e3090009e30900052
:1034ec006af507000000e00001003c000044eb001e
:1034fc000804e00004003200004022004197240040
:10350c00003798001137980032808000438080008b
:10351c00221f9800331f98001280800023808000a7
:10352c00421f9800531f98004e199000de1990000e
:10353c002e289000be2890002ef40700601f9800e3
:10354c00711f98002e199000be1990004e28900003
:10355c00de28900027f40700002798001127980018
:10356c006e199000fe1990000e2090009e20900085
:10357c007ef4070020279800312798006e199000e0
:10358c00fe1990006e189000fe189000d5f50700fb
:10359c000004be000e2190009e2190000e20900091
:1035ac009e209000cff507000001be000800be0071
:1035bc0011f407006af6070040279800512798007d
:1035cc000e3190009e31900062279800732798006e
:1035dc006000b800200f9800310f98006000b80010
:1035ec00400f9800510f98006000b800600f9800d1
:1035fc00710f980038003700a2702d0033c22300e1
:10360c006e209000fe209000b6f507000001be0071
:10361c002e089000be089000f7f30700200f9800ca
:10362c00310f98002e099000be0990004e089000b2
:10363c00de089000f0f30700a2702d0033c22300c7
:10364c00a8f507000200200003002400cbf40700bb
:10365c000001be006e089000fe089000e6f3070023
:10366c00600f9800710f98002e209000be209000e3
:10367c00c0f407006e099000fe09900099f5070050
:10368c004e199000de199000dbf307007080880063
:10369c00818088002e209000be2090002ef607001e
:1036ac006e099000fe0990008ef507002e1990000f
:1036bc00be199000d0f3070090808800a18088008c
:1036cc002e099000be099000420f9800530f9800ed
:1036dc00a00020001a0c070018c0b3006e2990003f
:1036ec00fe2990002e089000be089000e5f407001b
:1036fc000000e000010035000044eb000804e0008d
:10370c000e00320002002000030024004e20900026
:10371c00de20900099f4070018c0b3006e099000e9
:10372c00fe099000d9f407000000e00001003c0005
:10373c000044eb000804e000afff3a006e09900073
:10374c00fe099000022f9800132f980018c0b300a8
:10375c006e299000fe2990002e089000be08900063
:10376c00caf407000000e00001003c000044eb003c
:10377c000804e0002d0032006e299000fe29900014
:10378c00220f9800330f980029003700a2702d00eb
:10379c0033c223002e089000be08900051f507009c
:1037ac000001be006e089000fe08900092f3070026
:1037bc00600f9800710f98002e209000be20900092
:1037cc006cf407006e099000fe09900045f50700a7
:1037dc004e199000de19900087f307007080880066
:1037ec00818088002e209000be209000daf5070022
:1037fc006e099000fe0990003af507002e19900012
:10380c00be1990007cf3070090808800a18088008e
:10381c002e099000be099000420f9800530f98009b
:10382c00a0002000c60b07000100370000000000bc
:10383c000e2990009e2990004e209000de209000d2
:10384c006cf3070018c0b3006e099000fe099000dd
:10385c008ef407000000e00001003c000044eb0087
:10386c000804e000c9ff3a006e209000fe20900092
:10387c0001f0a200602798007127980038003700eb
:10388c00a2702d0033c223006e209000fe20900009
:10389c0014f507000001be002e089000be08900031
:1038ac0055f30700200f9800310f98002e09900057
:1038bc00be0990004e089000de0890004ef3070001
:1038cc00a2702d0033c2230006f507000200200071
:1038dc000300240029f407000001be006e089000cc
:1038ec00fe08900044f30700600f9800710f9800d9
:1038fc002e209000be2090001ef407006e09900050
:10390c00fe099000f7f407004e199000de199000a4
:10391c0039f3070070808800818088002e20900089
:10392c00be2090008cf507006e099000fe099000f7
:10393c00ecf407002e199000be1990002ef307002e
:10394c0090808800a18088002e099000be0990000c
:10395c00420f9800530f9800a0002000780b07002e
:10396c0018c0b3006011b8002e089000be0890007b
:10397c0046f407000000e00001003c000044eb00ae
:10398c000804e0000b00320018c0b3004e21900078
:10399c00de2190006e089000fe08900039f40700bc
:1039ac000000e000010035000044eb000804e000da
:1039bc00b3ff3a002e299000be2990007280880037
:1039cc00838088004e299000de2990009280880028
:1039dc00a3808800401f2000590b07004f04be0035
:1039ec000080fa00000006002800fa00881f78000a
:1039fc00201798003117980050808000618080005b
:103a0c000001be002e109000be109000f9f20700cd
:103a1c00008fbe0005003700b2fd2000930c24007f
:103a2c001e00be00f4f20700008fbe0018c0b300e9
:103a3c00b2fd200093042c001e00be0011f4070000
:103a4c000000e000010035000044eb000804e00039
:103a5c00f1ff3a0005003700b2fd2000930c240062
:103a6c001e00be00e3f20700008fbe0018c0b300ba
:103a7c00b2fd2000930424001e00be0003f40700d6
:103a8c000000e00001003c000044eb000804e000f2
:103a9c00f1ff3a001080800021808000d0808800e7
:103aac00e18088003080800041808000f0808800b8
:103abc000181880050808000618080001081880026
:103acc00218188005280800063808000220f980042
:103adc00330f98000000200001f82300400f9800dd
:103aec00510f98000000200001f82300600f98008f
:103afc00710f98006000b8002007980031079800fb
:103b0c006000b80040079800510798006000b800aa
:103b1c00600798007107980018c0b3006011b800d6
:103b2c001e00be00d9f307000000e00001003c00bd
:103b3c000044eb000804e000050032000000200007
:103b4c0001f82300000f9800110f98003100370086
:103b5c000000200001f82b00000f9800110f9800b6
:103b6c002c003700a2702d0033c223004e089000a9
:103b7c00de0890005bf407000001be002e009000f0
:103b8c00be0090009cf207002007980031079800b7
:103b9c002e019000be0190004e009000de009000bf
:103bac0095f20700a2702d0033c223004df40700dc
:103bbc00020020000300240070f307000001be0087
:103bcc006e009000fe0090008bf2070060079800da
:103bdc00710798000e0990009e0990006e009000ed
:103bec00fe0090003ff407002e099000be099000e3
:103bfc0081f20700b0808800c18088002e019000ff
:103c0c00be0190004207980053079800a0002000c6
:103c1c00cb0a070018c0b3006e099000fe09900093
:103c2c002e009000be00900096f307000000e0000c
:103c3c00010035000044eb000804e0000d003200e8
:103c4c0002002000030024001e00be004bf30700fe
:103c5c0018c0b3006e019000fe0190008bf30700ba
:103c6c000000e00001003c000044eb000804e00010
:103c7c00bcff3a006e019000fe0190000217980004
:103c8c00131798001b003700a2702d0033c22300bd
:103c9c002e009000be00900012f407000001be0040
:103cac006e009000fe00900053f207006007980031
:103cbc00710798000e0990009e0990006e0090000c
:103ccc00fe00900007f407002e099000be0990003a
:103cdc0049f20700b0808800c18088002e01900056
:103cec00be0190004207980053079800a0002000e6
:103cfc00930a07000e1190009e1190001e00be004a
:103d0c003cf2070018c0b3006e019000fe01900059
:103d1c005ef307000000e00001003c000044eb00f3
:103d2c000804e000d8ff3a004e089000de0890002e
:103d3c0001f0a200400f9800510f98002c003700a2
:103d4c00a2702d0033c223004e089000de089000b4
:103d5c00e4f307000001be002e009000be009000ae
:103d6c0025f2070020079800310798002e019000db
:103d7c00be0190004e009000de0090001ef2070085
:103d8c00a2702d0033c22300d6f3070002002000de
:103d9c0003002400f9f207000001be006e00900041
:103dac00fe00900014f2070060079800710798005d
:103dbc000e0990009e0990006e009000fe0090008d
:103dcc00c8f307002e099000be0990000af2070004
:103ddc00b0808800c18088002e019000be01900048
:103dec004207980053079800a0002000540a0700cf
:103dfc0018c0b3006011b8002e009000be009000f7
:103e0c0022f307000000e00001003c000044eb003e
:103e1c000804e0000a00320018c0b3001e01be0006
:103e2c006e009000fe00900016f307000000e0000a
:103e3c00010035000044eb000804e000c0ff3a002c
:103e4c000e0990009e0990001e00be00a5f307000d
:103e5c002e099000be099000e7f10700b0808800a1
:103e6c00c1808800401f2000350a07004f047800ed
:103e7c000080fa00000006000800fa00881f780095
:103e8c0020079800310798005080800061808000e6
:103e9c0018c0b3000001be002e009000be009000c0
:103eac00faf207000000e00001003c000044eb00c7
:103ebc000804e0001900320052808000638080000a
:103ecc00028fbe000a0037001e01be00b2808800bf
:103edc00c380880010002000190a0700f226210078
:103eec0033b023001e00be00c3f10700008fbe00dc
:103efc0018c0b3002e019000be0190001e00be0041
:103f0c00e0f207000000e000010034000044eb0088
:103f1c000804e000ecff3a001800370052808000e3
:103f2c0063808000028fbe000a0037001e01be00b5
:103f3c00b2808800c380880010002000000a0700af
:103f4c00f226210033b023001e00be00a9f10700a9
:103f5c00008fbe0018c0b3002e019000be0190006f
:103f6c001e00be00c9f207000000e00001003d0089
:103f7c000044eb000804e000ecff3a002e01900036
:103f8c00be019000b2808800c3808800401f2000d2
:103f9c00eb0907004f0478000080fa0000000600cf
:103fac000000fa0003000700360007000080fa004a
:103fbc00000006000000fa002188a9002168a90071
:103fcc0010cea90010aea8005002200020368800a8
:103fdc002134800000fc2f00008060000000a00055
:103fec002034880021e2a90021a2a9002182a90085
:103ffc002162a90001118000f0cf2f000080600029
:10400c000011880020c2a90020a2a9002082a900ca
:10401c002062a9000111800090ff2f000080600039
:10402c00001188002002a9002362a90023a2a90084
:10403c0023e2a90023c2a90022a2a9001111800029
:10404c00f0f32f000080600010118800701c20001d
:10405c00401188000188a9002188a8000168a900e6
:10406c002168a80021e2a8002342a8005070ef00ac
:10407c005170ef005470ef005670ef000080fa00a2
:10408c00000006000000fa0023e8a90023c8a900dc
:10409c0000052000303688009134800000fc2f0091
:1040ac00008060003000b3009034880031e2a90039
:1040bc0031a2a9003182a9003162a90081118000ce
:1040cc00f0cf2f00008060008011880030c2a90062
:1040dc0030a2a9003082a9003062a80081118000b2
:1040ec0090ff2f0000806000801188003002a90032
:1040fc003362a90033a2a90033e2a90033c2a9009c
:10410c0032a2a90091118000f0f32f000080600012
:10411c009011880020022000c011880003c8a9005b
:10412c0003e8a90023e8a80023c8a80031e2a800ee
:10413c003342a8005270ef005370ef005570ef003f
:10414c005770ef000080fa00000006003600f800ff
:10415c00809fbe00829fbe00849fbe00869fbe00d3
:10416c000000fa0010118000620060000000e00006
:10417c00c10232002222a900c002370061052100d1
:10418c009140780030c6b30080cf5000010036005b
:10419c005670ef0056d0bf000080fb00311180003c
:1041ac0081407800a21421000000410001487800f1
:1041bc0056d0bf000040e80056f0b70056d0bf0004
:1041cc000080fb000000e900a114210000804000e9
:1041dc0010407800ea4f5000a8023a00a0142100c9
:1041ec009040780030c7b30080cf500019003a00df
:1041fc00b01421009040780050c6b30080cf50001e
:10420c0014003a00c01421009040780040c7b3005d
:10421c0080cf50000f003a002073800068006000cf
:10422c0000f0a7000000ea000000e9004f00de00eb
:10423c00004078000080fb00610060004300dd005e
:10424c00217380000130a1000100700020738800f0
:10425c0087023700a01421009040780000c7b300fb
:10426c0080cf50001c003a00b01421009040780020
:10427c0010c6b30080cf500017003a00c0142100c4
:10428c0090407800b0c2b30080cf500012003a00ca
:10429c00509b8000619b80000200200003f82300eb
:1042ac00d5f00700509b8800619b88006097280020
:1042bc0035080700509b8000619b8000f5f10700da
:1042cc0000007800780807002f080700d097280016
:1042dc002d08070066023700a014210090407800da
:1042ec0000c7b30080cf50001f003a00b01421006b
:1042fc009040780040c6b30080cf50001a003a00be
:10430c00c014210090407800b0c2b30080cf5000a0
:10431c0015003a00f0998000019a8000f2262100e5
:10432c0033a82300b4f00700f0998800019a8800a4
:10433c00f097280014080700f0998000019a80007b
:10434c0002002000a347240066f20700d1f1070009
:10435c0000007800540807000b080700d0972800cd
:10436c000908070042023700a01421009040780091
:10437c0000c7b30080cf50001c003a00b0142100dd
:10438c009040780010c6b30080cf500017003a0060
:10439c00c014210090407800d0c2b30080cf5000f0
:1043ac0012003a00509b8000619b800002002000ac
:1043bc0003f823008ff00700509b8800619b880056
:1043cc0060972800f0070700509b8000619b8000dd
:1043dc00b0f107000000780033080700ea07070077
:1043ec00d0972800e807070021023700a01421000d
:1043fc009040780000c7b30080cf50001f003a00f7
:10440c00b01421009040780040c6b30080cf50001b
:10441c001a003a00c014210090407800d0c2b300ba
:10442c0080cf500015003a00f0998000019a80006e
:10443c00f226210033a823006ef00700f0998800c3
:10444c00019a8800f0972800cf070700f0998000a8
:10445c00019a800002002000a347240021f20700eb
:10446c008cf10700000078000f080700c607070052
:10447c00d0972800c4070700fd013700a0142100c5
:10448c009040780040c6b30080cf50001f003a0027
:10449c00b01421009040780010c6b30080cf5000bb
:1044ac001a003a00c014210090407800b0c2b3004a
:1044bc0080cf500015003a00909b8000a19b80009b
:1044cc00d2cc2c00c3dc23004bf00700909b88005f
:1044dc00a19b880060982800ab070700909b800088
:1044ec00a19b80000200200003122400fdf10700b4
:1044fc0068f1070000007800eb070700a20707002f
:10450c00d0972800a0070700d9013700a01421007c
:10451c009040780040c6b30080cf50001f003a0096
:10452c00b01421009040780040c6b30080cf5000fa
:10453c001a003a00c014210090407800b0c2b300b9
:10454c0080cf500015003a00309a8000419a8000cc
:10455c0072712b00138d230027f00700309a88000e
:10456c00419a8800d098280087070700309a80006d
:10457c00419a800002002400c3612400d9f1070095
:10458c0044f1070000007800c70707007e0707000a
:10459c00d09728007c070700b5013700a014210034
:1045ac009040780040c6b30080cf50001f003a0006
:1045bc00b01421009040780010c6b30080cf50009a
:1045cc001a003a00c014210090407800d0c2b30009
:1045dc0080cf500015003a00909b8000a19b80007a
:1045ec00d2cc2c00c3dc230002f00700909b880087
:1045fc00a19b88006098280063070700909b8000af
:10460c00a19b80000200200003122400b5f10700da
:10461c0020f1070000007800a30707005a070700e5
:10462c00d09728005807070091013700a0142100eb
:10463c009040780040c6b30080cf50001f003a0075
:10464c00b01421009040780040c6b30080cf5000d9
:10465c001a003a00c014210090407800d0c2b30078
:10466c0080cf500015003a00309a8000419a8000ab
:10467c0072712b00138d2300deef0700309a880037
:10468c00419a8800d09828003f070700309a800094
:10469c00419a800002002400c361240091f10700bc
:1046ac00fcf00700000078007f07070036070700c2
:1046bc00d0972800340707006d013700a0142100a3
:1046cc009040780000c7b30080cf50001a003a0029
:1046dc00b014210090407800b0c2b30080cf5000dd
:1046ec0015003a003097800041978000a2702d0091
:1046fc0033c22300c0ef0700309788004197880031
:10470c0040992800200707003097800041978000cf
:10471c0002002000832c240072f10700ddf007005a
:10472c00000078006007070017070700d0972800e3
:10473c00150707004e013700a014210090407800a7
:10474c0000c7b30080cf50001a003a00b01421000b
:10475c0090407800d0c2b30080cf500015003a00d2
:10476c003097800041978000a2702d0033c2230047
:10477c00a0ef0700309788004197880040992800e7
:10478c00010707003097800041978000020020004d
:10479c00832c240053f10700bef0070000007800c2
:1047ac0041070700f8060700d0972800f606070017
:1047bc002f013700a01421009040780020c7b300cf
:1047cc0080cf50001f003a00b014210090407800b8
:1047dc00b0c2b30080cf50001a003a0021738000a1
:1047ec00000024000080600000f0a7000000ea0038
:1047fc000000e9004f00de00004078000080fb0064
:10480c00610060004e00dd002173800001e0a1001a
:10481c000100700020738800306380002003b0001a
:10482c003063880090992800d70607003063800019
:10483c001d070700d4060700d0972800d2060700f2
:10484c000b013700a01421009040780020c7b30062
:10485c0080cf50001f003a00b01421009040780027
:10486c00d0c2b30080cf50001a003a0021738000f0
:10487c00000024000080600000f0a7000000ea00a7
:10488c000000e9004f00de00004078000080fb00d3
:10489c00610060004e00dd002173800001e0a1008a
:1048ac000100700020738800306380002003b10089
:1048bc003063880090992800b306070030638000ad
:1048cc00f9060700b0060700d0972800ae060700cf
:1048dc00e7003700a014210090407800c0c6b30058
:1048ec0080cf50001f003a00b01421009040780097
:1048fc00b0c2b30080cf50001a003a002173800080
:10490c00000024000080600000f0a7000000ea0016
:10491c000000e9004f00de00004078000080fb0042
:10492c00610060004e00dd002173800001e0a100f9
:10493c000100700020738800706380002003b000b9
:10494c0070638800e09928008f0607007063800070
:10495c00d50607008c060700d09728008a060700aa
:10496c00c3003700a014210090407800c0c6b300eb
:10497c0080cf50001f003a00b01421009040780006
:10498c00d0c2b30080cf50001a003a0021738000cf
:10499c00000024000080600000f0a7000000ea0086
:1049ac000000e9004f00de00004078000080fb00b2
:1049bc00610060004e00dd002173800001e0a10069
:1049cc000100700020738800706380002003b10028
:1049dc0070638800e09928006b0607007063800004
:1049ec00b106070068060700d09728006606070086
:1049fc009f003700a01421009040780030c6b3000f
:104a0c0080cf500022003a00b01421009040780072
:104a1c0030c7b30080cf50001d003a00c0142100f5
:104a2c009040780020c7b30080cf500018003a00a7
:104a3c00207380006100600000f0a7000000ea0015
:104a4c000000e9004f00de00004078000080fb0011
:104a5c0061006000217380000100a1000100700062
:104a6c0020738800309a28004706070020738000c6
:104a7c0000407800614060000080fb008a0607005f
:104a8c0041060700d09728003f0607007800370042
:104a9c00a01421009040780030c6b30080cf5000a5
:104aac0023003a00b01421009040780030c7b300c6
:104abc0080cf50001e003a00c014210090407800b6
:104acc00c0c6b30080cf500019003a00207380009c
:104adc006200600000f0a7000000ea000000e9009e
:104aec004f00de00004078000080fb006100600099
:104afc0000004000217380000110a1000100700033
:104b0c0020738800d09a28001f06070020738000ad
:104b1c000000d100614060000080fb0062060700cd
:104b2c0019060700d0972800170607005000370019
:104b3c00a01421009040780030c5b30080cf500005
:104b4c0019003a00b01421009040780000c3b30063
:104b5c0080cf500014003a00c0142100904078001f
:104b6c0000c2b30080cf50000f003a00d0142100d7
:104b7c009040780050c7b30080cf50000a003a0034
:104b8c00e01421009040780000c7b30080cf5000a3
:104b9c0005003a0002002800235224000040eb00dc
:104bac00330b070032003700a0142100904078002e
:104bbc0030c5b30080cf500023003a00b014210060
:104bcc009040780000c3b30080cf50001e003a0024
:104bdc00c01421009040780000c2b30080cf500078
:104bec0019003a00d01421009040780040c6b30060
:104bfc0080cf500014003a00e0142100904078005f
:104c0c00f0c6b30080cf50000f003a00f014210022
:104c1c009040780070c7b30080cf50000a003a0073
:104c2c000015210090407800e0c6b30080cf500002
:104c3c0005003a0002002000134e24000040eb0057
:104c4c000b0b07000a003700a014210090407800dd
:104c5c0030c7b30080cf500003003a001000200092
:104c6c003081880002003700709b2800c6050700c1
:104c7c005670ef000100370000000000101180009a
:104c8c00610060000000e0003cfd3a000168a900f2
:104c9c000080fa004f03be004f02be004f01be0061
:104cac004f00be003600f900004006003600f80048
:104cbc00809fbe00829fbe00849fbe00869fbe0068
:104ccc001c00fa0090118000620060000000e000ff
:104cdc00280532003222a900270537007105210072
:104cec009140780030c6b30080cf500001003600f0
:104cfc005770ef0057d0bf000080fb00b11180004f
:104d0c0081407800e21a210000004100014878003f
:104d1c0057d0bf000080fb00e11a2100008040004a
:104d2c0010407800ea4f50000e053a00e01a2100be
:104d3c009040780030c7b30080cf50001a003a0082
:104d4c00f01a21009040780040c7b30080cf50008b
:104d5c0015003a00001b21009040780010c6b300eb
:104d6c0080cf500010003a00101b210090407800ba
:104d7c0020c7b30080cf50000b003a00201b21004d
:104d8c009040780040c7b30080cf500006003a0036
:104d9c00301b210010407800ea4f500002003a000e
:104dac007e70ef00ed043700e01a2100904078008f
:104dbc0040c7b30080cf500030003a00f01a2100f9
:104dcc0010407800ea4f50002c003a00207380000d
:104ddc006800600000f0a7000000ea000000e90095
:104dec004f00de00004078000080fb006100600096
:104dfc004300dd00217380000130a1000100700030
:104e0c0020738800a07280007000600000f0a70082
:104e1c000000ea000000e9004f00de0000407800ce
:104e2c000080fb00610060004400dd00a172800086
:104e3c000140a10001007000a0728800a1728000e6
:104e4c00000220000080600000f0a7000000ea00d3
:104e5c000000e9004f00de00004078000080fb00fd
:104e6c00610060004500dd00a17280000150a100ce
:104e7c0001007000a0728800b8043700e01a21000d
:104e8c009040780030c7b30080cf500016003a0035
:104e9c00f01a21009040780040c7b30080cf50003a
:104eac0011003a00001b210090407800f0c6b300be
:104ebc0080cf50000c003a00101b2100904078006d
:104ecc0000c7b30080cf500007003a00201b210020
:104edc0010407800ea4f500003003a0010c0b300b5
:104eec007ef0b7009d043700e01a21009040780056
:104efc0030c7b30080cf500007003a00f01a2100f1
:104f0c0010407800ea4f500003003a0010c0b30084
:104f1c007ef0b70091043700e01a21009040780031
:104f2c0030c7b30080cf50003d003a00f01a21008a
:104f3c009040780050c6b30080cf500038003a0043
:104f4c00001b21009040780040c7b30080cf500078
:104f5c0033003a00101b21009040780000c2b300cf
:104f6c0080cf50002e003a00201b2100904078008a
:104f7c0030c7b30080cf500078043a00301b2100ba
:104f8c009040780040c7b30080cf50005c043a00da
:104f9c00401b21009040780010c6b30080cf500019
:104fac0059043a00501b21009040780040c7b300d0
:104fbc0080cf500056043a00601b210090407800ce
:104fcc0050c6b30080cf500053043a00701b210030
:104fdc009040780000c2b30080cf500050043a00db
:104fec007ed0bf000004e0004f043200801b210083
:104ffc00104078000000fb000003b10030818800f5
:10500c00e09b28000405070030818000260507007e
:10501c0001050700d0972800ff0407004f04370054
:10502c00e01a21009040780070c6b30080cf500089
:10503c005f003a00f01a21009040780050c6b3008f
:10504c0080cf50005a003a00001b2100904078009d
:10505c0040c7b30080cf500055003a00101b210010
:10506c009040780000c2b30080cf500050003a004e
:10507c00201b21009040780050c5b30080cf500019
:10508c0026003a00301b21009040780030c5b30058
:10509c0080cf500021003a00401b21009040780046
:1050ac0000c2b30080cf50001c003a00501b2100fe
:1050bc00104078008040780000cdb30000c0400064
:1050cc00005f98000e5890000004e00003003500cb
:1050dc000e589000e54f500003003400709c2800df
:1050ec00cd0407000c0037000e5890000080fb0028
:1050fc00c200dd00a0462100008040001000be0070
:10510c0064ee070000007800e7040700c204070003
:10511c00d0972800c004070024003700201b210072
:10512c009040780030c7b30080cf50001c003a008c
:10513c00301b21009040780040c7b30080cf500056
:10514c0017003a00401b21009040780010c6b300b5
:10515c0080cf500012003a00501b21009040780084
:10516c0040c7b30080cf50000d003a00601b2100f7
:10517c009040780050c6b30080cf500008003a0031
:10518c00e09b2800a404070030818000c6040700bf
:10519c00a1040700d09728009f04070003003700e4
:1051ac00c09d28009c040700ec033700eb0337007c
:1051bc00e01a21009040780030c7b30080cf500037
:1051cc00a3003a00f01a21009040780050c6b300ba
:1051dc0080cf50009e003a00001b210090407800c8
:1051ec0020c7b30080cf500099003a00101b21005b
:1051fc009040780060c7b30080cf500094003a0014
:10520c00201b210090407800f0c6b30080cf5000e6
:10521c008f003a00301b21009040780000c2b30090
:10522c0080cf50008a003a00501b2100904078003b
:10523c0000c2b30080cf500085003a000040eb0064
:10524c00004f78000000eb00100798000d003700ad
:10525c001e009000ea00b900800078001e80fb0060
:10526c0068004000e21a2100000041001040780064
:10527c000000fb00008040000003b1001007980004
:10528c001e4fe8001e80fb0068004000e11a210060
:10529c000080400010407800ea4f500003003200bc
:1052ac001e407800e44f5000e9ff36001e407800a5
:1052bc00e54f5000030032001e4078000004e0006f
:1052cc0002003a00809f280053040700401b210075
:1052dc00104078000000fb0031032000810f5000cb
:1052ec003100320031032000810f50000a003c00d5
:1052fc0011032000810f50001d003200110320000b
:10530c00810f500021003c0001032000810f500050
:10531c000b0032004a00370051032000810f50006f
:10532c003900320051032000810f50002a00350053
:10533c0061032000810f50003a003200400037001a
:10534c001e0090008000eb0011ee07000001be0073
:10535c000040eb00460907001e00900052040700b5
:10536c002d04070030a128002b040700370037005c
:10537c001e0090008000eb0005ee07000001be004f
:10538c0010c0b3003a090700300037001e0090002f
:10539c008000eb00feed07000001be0020c0b30052
:1053ac0033090700290037001e0090008000eb0035
:1053bc00f7ed07000001be0030c0b3002c09070058
:1053cc001e009000380407001304070040a22800b8
:1053dc00110407001d0037001e0090008000eb0038
:1053ec00ebed07000001be0040c0b3002009070030
:1053fc001e0090002c0407000704070040a22800a0
:10540c0005040700110037001e0090008000eb001f
:10541c00dfed07000001be0050c0b3001409070007
:10542c000a0037001e0090008000eb00d8ed07004a
:10543c000001be0060c0b3000d0907000300370077
:10544c0050a32800f40307000000000043033700ba
:10545c00e01a21009040780070c6b30080cf500055
:10546c00ac003a00f01a210090407800f0c6b3006e
:10547c0080cf5000a7003a00001b2100904078001c
:10548c0000c2b30080cf5000a2003a000040eb00f5
:10549c004047980010c0b30050479800101b2100e3
:1054ac0090407800d0c2b30080cf500005003a0085
:1054bc000040eb00504798004e4090000040e80040
:1054cc00404798000000eb003007980010003700b0
:1054dc003e009000ea00b900800078004e40900039
:1054ec000080fb0063004000e21a21000000410034
:1054fc00104078000000fb00008040000003b10069
:10550c00300798004e4090000040e800404798005b
:10551c004e4090000080fb0063004000e11a210027
:10552c00008040009040780000c2b30080cf500053
:10553c00030032004e409000e54f5000e4ff36006f
:10554c004e4090008080fb005e4090000000fb000d
:10555c0000804000e60f5000030032004e409000e7
:10556c000004e00002003a00d0a42800aa030700bf
:10557c005e4090000004e00003003a003e00900002
:10558c000000ea00300798000040eb00004f980044
:10559c0010c0b300504798004e4090000080fb00b4
:1055ac0064004000e11a2100008040009040780027
:1055bc00d0c2b30080cf500005003a000040eb0091
:1055cc00504798000e4890000040e800004f9800ab
:1055dc000000eb0050079800130037005e009000ad
:1055ec00ea00b900800078004e4090000080fb007b
:1055fc00640140000e4890000080fb000000410058
:10560c00e21a210000004100104078000000fb006d
:10561c00008040000003b100500798000e48900035
:10562c000040e800004f98004e4090000080fb00c6
:10563c00e40040000e4890000080fb000080400019
:10564c00e11a21000080400010407800ea4f500021
:10565c00030032000e489000e54f5000dfff36008b
:10566c000e4890008080fb005e4090000000fb0024
:10567c0000804000e60f5000030032000e489000fe
:10568c000004e00002003a0040a628006203070074
