:020000040000fa
:080000000002040000000000f2
:020000040000fa
:04000800fa020000f8
:020000040000fa
:04000c00fa020000f4
:020000040000fa
:04001000fa020000f0
:020000040000fa
:04001400fa020000ec
:020000040000fa
:04001800fa020000e8
:020000040000fa
:04001c00fa020000e4
:020000040000fa
:04002000fa020000e0
:020000040000fa
:04002400fa020000dc
:020000040000fa
:04002800fa020000d8
:020000040000fa
:04002c00fa020000d4
:020000040000fa
:04003000fa020000d0
:020000040000fa
:040034002236000070
:020000040000fa
:04003800fa020000c8
:020000040000fa
:04003c00fa020000c4
:020000040000fa
:04004000fa020000c0
:020000040000fa
:04004400fa020000bc
:020000040000fa
:040048006c3d00000b
:020000040000fa
:04004c00fa020000b4
:020000040000fa
:04005000164c00004a
:020000040000fa
:04005400dc220000aa
:020000040000fa
:040058002a33000047
:020000040000fa
:04005c00fa020000a4
:020000040000fa
:04006000fa020000a0
:020000040000fa
:04006400fa0200009c
:020000040000fa
:04006800fa02000098
:020000040000fa
:04006c00fa02000094
:020000040000fa
:04007000fa02000090
:020000040000fa
:0400740084480000bc
:020000040000fa
:04007800fa02000088
:020000040000fa
:04007c00fa02000084
:020000040000fa
:04008000fa02000080
:020000040000fa
:04008400fa0200007c
:020000040000fa
:04008800fa02000078
:020000040000fa
:04008c00fa02000074
:020000040000fa
:04009000fa02000070
:020000040000fa
:04009400fa0200006c
:020000040000fa
:04009800fa02000068
:020000040000fa
:04009c00fa02000064
:020000040000fa
:0400a0008c280000a8
:020000040000fa
:0400a4005a330000cb
:020000040000fa
:0400a800fa02000058
:020000040000fa
:0400ac00fa02000054
:020000040000fa
:0400b000fa02000050
:020000040000fa
:0400b400fa0200004c
:020000040000fa
:0400b800fa02000048
:020000040000fa
:0400bc00fa02000044
:020000040000fa
:0400c000fa02000040
:020000040000fa
:0400c400fa0200003c
:020000040000fa
:0400c800fa02000038
:020000040000fa
:0400cc00fa02000034
:020000040000fa
:0400d000fa02000030
:020000040000fa
:0400d400fa0200002c
:020000040000fa
:0400d800fa02000028
:020000040000fa
:0400dc00fa02000024
:020000040000fa
:0400e000fa02000020
:020000040000fa
:0400e400fa0200001c
:020000040000fa
:0400e800fa02000018
:020000040000fa
:0400ec00fa02000014
:020000040000fa
:0400f000fa02000010
:020000040000fa
:0400f400fa0200000c
:020000040000fa
:0400f800fa02000008
:020000040000fa
:0400fc00fa02000004
:020000040000fa
:04010000fa020000ff
:020000040000fa
:04010400fa020000fb
:020000040000fa
:04010800fa020000f7
:020000040000fa
:04010c00fa020000f3
:020000040000fa
:04011000fa020000ef
:020000040000fa
:04011400fa020000eb
:020000040000fa
:04011800fa020000e7
:020000040000fa
:04011c00fa020000e3
:020000040000fa
:04012000fa020000df
:020000040000fa
:04012400fa020000db
:020000040000fa
:04012800fa020000d7
:020000040000fa
:04012c00fa020000d3
:020000040000fa
:04013000fa020000cf
:020000040000fa
:04013400fa020000cb
:020000040000fa
:04013800fa020000c7
:020000040000fa
:04013c00fa020000c3
:020000040000fa
:04014000fa020000bf
:020000040000fa
:04014400fa020000bb
:020000040000fa
:04014800fa020000b7
:020000040000fa
:04014c00fa020000b3
:020000040000fa
:04015000fa020000af
:020000040000fa
:04015400fa020000ab
:020000040000fa
:04015800fa020000a7
:020000040000fa
:04015c00fa020000a3
:020000040000fa
:04016000fa0200009f
:020000040000fa
:04016400fa0200009b
:020000040000fa
:04016800fa02000097
:020000040000fa
:04016c00fa02000093
:020000040000fa
:04017000c84b000078
:020000040000fa
:04017400984b0000a4
:020000040000fa
:04017800fa02000087
:020000040000fa
:04017c00fa02000083
:020000040000fa
:04018000fa0200007f
:020000040000fa
:04018400fa0200007b
:020000040000fa
:04018800fa02000077
:020000040000fa
:04018c00fa02000073
:020000040000fa
:04019000fa0200006f
:020000040000fa
:04019400fa0200006b
:020000040000fa
:04019800fa02000067
:020000040000fa
:04019c00fa02000063
:020000040000fa
:0401a000fa0200005f
:020000040000fa
:0401a400fa0200005b
:020000040000fa
:0401a800fa02000057
:020000040000fa
:0401ac00fa02000053
:020000040000fa
:0401b000fa0200004f
:020000040000fa
:0401b400fa0200004b
:020000040000fa
:0401b800fa02000047
:020000040000fa
:0401bc00fa02000043
:020000040000fa
:0401c000fa0200003f
:020000040000fa
:0401c400fa0200003b
:020000040000fa
:0401c800fa02000037
:020000040000fa
:0401cc00fa02000033
:020000040000fa
:0401d000fa0200002f
:020000040000fa
:0401d400fa0200002b
:020000040000fa
:0401d800fa02000027
:020000040000fa
:0401dc00fa02000023
:020000040000fa
:0401e000fa0200001f
:020000040000fa
:0401e400fa0200001b
:020000040000fa
:0401e800fa02000017
:020000040000fa
:0401ec00fa02000013
:020000040000fa
:0401f000fa0200000f
:020000040000fa
:0401f400fa0200000b
:020000040000fa
:0401f800fa02000007
:020000040000fa
:0401fc00fa02000003
:020000040000fa
:04020000fa020000fe
:020000040000fa
:04020400fa020000fa
:020000040000fa
:04020800fa020000f6
:020000040000fa
:04020c00fa020000f2
:020000040000fa
:04021000fa020000ee
:020000040000fa
:04021400fa020000ea
:020000040000fa
:04021800fa020000e6
:020000040000fa
:04021c00fa020000e2
:020000040000fa
:04022000fa020000de
:020000040000fa
:04022400fa020000da
:020000040000fa
:04022800fa020000d6
:020000040000fa
:04022c00fa020000d2
:020000040000fa
:04023000fa020000ce
:020000040000fa
:04023400fa020000ca
:020000040000fa
:04023800fa020000c6
:020000040000fa
:04023c00fa020000c2
:020000040000fa
:04024000fa020000be
:020000040000fa
:04024400fa020000ba
:020000040000fa
:04024800fa020000b6
:020000040000fa
:04024c00fa020000b2
:020000040000fa
:04025000fa020000ae
:020000040000fa
:04025400fa020000aa
:020000040000fa
:04025800fa020000a6
:020000040000fa
:04025c00fa020000a2
:020000040000fa
:04026000fa0200009e
:020000040000fa
:04026400fa0200009a
:020000040000fa
:04026800fa02000096
:020000040000fa
:04026c00fa02000092
:020000040000fa
:04027000fa0200008e
:020000040000fa
:04027400fa0200008a
:020000040000fa
:04027800fa02000086
:020000040000fa
:04027c00fa02000082
:020000040000fa
:04028000fa0200007e
:020000040000fa
:100400002f4821000eff27000e0188000000000089
:10041000000020000000e000020032000001200087
:100420002002880014000700740007000000e000ac
:1004300003003a0000df2400010020000200370022
:100440000000200001002000810f70000100320038
:100450000f000700000020000000e0000200320052
:100460000000020000000000ae0d020000000000cd
:100470000040da000000fe00804320000000e000a1
:1004800002003200002020009001880000000600d9
:10049000a1028800800478000000eb001f003700f4
:1004a000e284440054a0b4009905ba00e2844400f8
:1004b00054a0b4009906ba00e284440054a0b400e9
:1004c0000006eb00476fde00fd07b200ae018800ba
:1004d000636ce10003003a000ad801000000eb0061
:1004e0000e003700606ce10008003a00004deb00a0
:1004f0000a05e800020039003420ec000af0a000f0
:100500008b05e900f9ff3e00040037006168e10057
:10051000010032000086eb000b00070019c7ba008b
:100520001905ba000e04e00003003a000a00e000da
:10053000dbff3a0000000600fe07b200ae028800b2
:100540008a047800f5ff37000cd0a300e20f4d00bd
:100550001c00390089027800354dba000a05e80010
:10056000020039003420ec000af0a0008b05e900fd
:100570000f003200254dba000a05e80002003900dc
:100580003420ec000af0a0008b05e90008003200de
:100590000c00e0000600320015cdba000a05e800a4
:1005a000020039003420ec000af0a0008b05e900bd
:1005b0008984e80054a0b4000b00e000e2ff3a0098
:1005c000000006009902ba00055d78008b05e9007d
:1005d000f7ff3200c82ade00055d78008b05e900d0
:1005e000f3ff32000c00e000f1ff320019ddba0029
:1005f000eeff37000040da000000fe0000000500ba
:1006000003f0a200889fbe008a9fbe008c1f780066
:100610009f010700a60133006450e1004f00320043
:100620006420e1005200320003826c0007003b00ae
:100630000905d0000306d000820f54000c065d00af
:1006400002003900020032008901780003067800b8
:100650008582550004003d000003fd008103fd007c
:100660008502ea008b854200840f720002003b0085
:1006700060001000e08018006011b8000005eb0079
:100680007a28e1000a00390006007800c75ddd0025
:10069000f707b200878075002d0037008281710056
:1006a0000a017800610560008180d1000080d300dc
:1006b0008502e900f9ff3b000604400087844800fa
:1006c00002003b0060041400e0841c000988a300c1
:1006d000070032008a81710082817100610164002b
:1006e0008904d1000884d3008b05e8001700370087
:1006f0000978a30013003a000b00e0001300340057
:100700008b05e9000804440089844c000a44740005
:100710000978a3000d003a000b00e0000700340048
:100720008b05e9000804440089844c0001003a006c
:100730000b0020000978a300f7ff32000001eb0056
:1007400002003700828171000a017800150107005c
:100750000cf0a70001f0a0005e0137006420e1006a
:1007600002003a00838f6c005e0133000801be0076
:100770000200be0057013700889fbe008a9fbe005e
:100780008c1f7800420107001002200002003b008d
:1007900000848800460137008a0062006408e10096
:1007a00002003a00008488004e0137006108e10031
:1007b000fcff32000800be0003047800720007004e
:1007c00001f0a1000900070008f0a60004003700ae
:1007d0000001be0091042400b0fd200088ff070046
:1007e00009f0a70001f0a2003a013700889fbe007f
:1007f0008a9fbe008c9fbe000004be000f01070050
:100800000800be00890678006420e1000800390075
:10081000040032000160a00012022000028488005f
:100820005300370091fc2300b0fd20004e0037003c
:100830000006eb0009f0a10003f8230002002000ed
:100840000800be00920007000600340001f82300f3
:10085000000020000801be004b0007000004be009d
:100860002c0020000800be0093e82300320a230079
:1008700087000700120034000801be00d1fd2300ec
:10088000703d2b005fff07000005be00b3f323009f
:10089000f27a26000800be001501070003f82300c5
:1008a0000200200056ff07000801be0055ff0700a8
:1008b0000a01be00340007000004be000c06e80078
:1008c0000800be0001f0a1000200200003982300f0
:1008d0006f0007000800be00160035000801be00ca
:1008e000030107000005be0032cd2c0043fb2300ae
:1008f00044ff0700809fbe001269280003d52b002b
:100900000a00be00fa000700620f210013ef2b005f
:100910003cff07000a01be00f50007004f01be00c2
:10092000190007000801be00f10007000801be0021
:1009300034ff07000c00e0000b0032000c10a70091
:1009400001f0a200b2fd200093fc23006260e100f0
:100950000400320022a9200063f023000c10a7003d
:1009600063f8230027ff07000df0a70001f0a200a5
:100970004f06be004f05be004f04be00000006003b
:100980000081eb000e013700889fbe008a9fbe00e9
:100990008c1f7800be000700c500330003866c0082
:1009a0006450e1002e0032006420e1003300320088
:1009b0006150e1002f0032006120e100310032007f
:1009c00085855500eb07b0000900200008042000d1
:1009d000050037000804440089844c000a003100f7
:1009e0000603430087834b000001530081815b00b5
:1009f000f8ff33000203be000800a0000804440012
:100a000089844c00f6ff3900c639dd00830173008c
:100a100001003200130020008904d1000884d300b3
:100a20000998a300050032000800a7000300a000f9
:100a30008904d1000884d3008b05e8008904d10023
:100a40000884d3000001eb000281d20055000700aa
:100a500001f0a1000cf0a70001f0a0009d003700fc
:100a60006420e1009f0032000801be000200be00c9
:100a7000f7ff37006120e1009a0032006000b80003
:100a8000f3ff37000000200001f82700f0ff3700d7
:100a9000140020006a013700f4ff2f0068013700be
:100aa0000001be00650007000470a70003f0a1006c
:100ab0006509b100160032000d0035006828e1001c
:100ac00006003500f0ff2f00f1ff27000300e000d3
:100ad00013003b000100280000000500000040005a
:100ae000818048008502e900fcff3a0008003700d9
:100af000f88f420002003c008000eb00000005007f
:100b00008100d1000080d3008502e800fcff3a009c
:100b10000300e00002003b0060001000e0801800cd
:100b2000000006000001be00440007000470a7009a
:100b300003f0a10003f8a30013003a006509b10017
:100b400010003200090035006928e100020035007c
:100b500001002800000005000000400081804800de
:100b60008502e900fcff3a0000000600f88f420011
:100b7000050035008100d1000080d3008502e80027
:100b8000fcff3a00000006008000eb0000000500ba
:100b90004f89de0082017800440137006011b800ff
:100ba0005201370081002000618055000b003d009c
:100bb0000b00200061fe2f000100e1001d00340049
:100bc00082817100610164008904d1000884d3002e
:100bd0000000e800faff3a007100200061006400a4
:100be000030070000200600009003200610444004c
:100bf000e0844c000988a500050032008b05e80060
:100c00006808e10002003a008904d1000884d3009a
:100c1000f20f20000258e10005003d00c75ddd0035
:100c2000f907b2008980750008007800000006000e
:100c30000bf827008b00780000000500c70ade00d3
:100c4000f107b200f50fb20008003200e1cf420018
:100c5000020032000170a00024000500810f700026
:100c6000010032000408050044000500810f7000f7
:100c700002003a00140005008502e900000040006f
:100c800081c04800fcff3b000170a000240005006b
:100c90000004be00e9ff07000003be000405be001b
:100ca0000200be00e5ff0700844f7500000006004b
:100cb0000200be006450e100050036006420e1003f
:100cc000020036000968a30001003a000800be00d7
:100cd0000160a0004f0678004f05be004f04be0023
:100ce00000000600f0ff2f00f1ff2700f9ff37009a
:100cf000889fbe008a9fbe008c1f7800e4ff07001b
:100d0000ebff330003866c006450e10024003200e6
:100d10006420e100270032006150e100220032002f
:100d20006120e100210032008b854200eb07b10019
:100d30000134b800003ab8000804420089844a002f
:100d4000013ab8000030b8008880400009014a002c
:100d50000400330000004000818048000201490087
:100d60008b05e900c909dd00830170000100320034
:100d700013002000c814de004814dd004709de001f
:100d80001200b200c808de000884700085ff07006a
:100d900001f0a1000cf0a70001f0a000cdff37008a
:100da0006120e100cfff32000801be000200be005a
:100db000f7ff37006150e100fcff3a00c9ff370040
:100dc000889fbe008a9fbe008c9fbe00820578006f
:100dd0000004be0099ff07000800be006420e10087
:100de0000700390002003a00f1ff2700f0ff2f0052
:100df0000160a00012022000028488005500370024
:100e00006120e10003003a000b00a70001f8230075
:100e10005000370001f0a10002002100936424007b
:100e20001bff07000800be0004003500b2fd2000d3
:100e3000930c2400dc0007000004be000005eb005a
:100e40000b00a6004f0dde0001f0a1000004be0063
:100e500032982f0023ea2300a5ff07000001eb00d2
:100e600003f023000b00a70003f82300e5fd0700b3
:100e70000bff07000000a7000a00a20044ff0700c4
:100e80000b00e000030032000200200003f023000a
:100e9000dbfd070001f0a2000006be0002002000fa
:100ea0009304240092ff07000801be00d5fd07004f
:100eb000809fbe000c00be0022a22a00d3a7230000
:100ec0008bff07004f01be00cefd07000004be00ef
:100ed00001f0a1000200200003982300ecfe0700af
:100ee0000800be00190035000001be0080ff0700a9
:100ef0000006be00b2c52900e36223007cff0700a4
:100f000022222b00f3942b00befd07000c01be0033
:100f100077ff0700e273280083c02300b9fd0700b4
:100f20000c01be0072ff070042aa2a00a3e22b00b8
:100f3000b4fd07000c01be006dff07000801be00f4
:100f40006bff07000801be00aefd07000a00a70006
:100f500001f0a2004f06be004f05be004f04be00c8
:100f6000000006000001eb0095ff3700889fbe00df
:100f70008a9fbe008c1f78000004be002fff070070
:100f80000478a30026003a006120e1002500320029
:100f900009f8a30025003a006420e1002100320096
:100fa000f507b1000508a300020032000000400070
:100fb000818048006044b800031020000200200037
:100fc00000004000818048000805440089854c00ed
:100fd0000a0541008b8549000a0550008b855800a1
:100fe000030033000a00be0002047400838474000e
:100ff0008301d1000281d300830f7100f0ff3a001a
:101000008904d1000884d30060014900820178007e
:10101000c1adde00fb07b000e2fe07002dff370088
:101020000960a0000800be002aff3700120220005d
:1010300002848800f0ff2f00f1ff270025ff370012
:10104000889fbe008a9fbe00841f780010ff0700a3
:101050004f00780011003300f0ff2f00838f6c00e9
:1010600006003b00040565000a00a70008003700e1
:1010700009f0a6001000200008003700820f54007d
:10108000838f5c00030039001000200001003e0047
:101090000000200009f0a7000000ea004f05be0094
:1010a0004f04be000000e00000000600881f78002a
:1010b000030478000300e00007003d00600010001a
:1010c000e080180060011900e081190002003b0077
:1010d00001f02d00030037000400070008f0a7000e
:1010e00001f0a0004f04780000000600889fbe00b9
:1010f0008a9fbe00008270000402710004827100a9
:10110000260032000004be000200be006011b800dc
:101110006b092000950220000182cf000a003900ef
:101120000541b1000082cf00070039000541b10040
:101130000982cf00040039000541b1000882cf00c8
:10114000010039000541b100054252001200320091
:101150000a003b0082817100610164008100d100be
:101160000080d3008984d3000884d3008b05e80075
:101170000442e800f7ff3a00070037000804440083
:1011800089844c0000004800818048008b05e900fc
:101190000442e900f9ff3a0082fe07004f05be0055
:1011a0004f04be00000006000400200000003700cd
:1011b000889fbe008a9fbe008c1f78004f26dd00ee
:1011c000b3fe0700bafe33006120e10043003200a5
:1011d0006250e10041003e003e0039006420e10021
:1011e0003c003200058255000f003b000402e8007d
:1011f00038003a00800f5300818f5b0035003400c7
:101200000800be0003f0a10001f0a60003f0a0005a
:101210000cf0a700fbfc0700aefe370006034300fe
:1012200087834b000c4646000005530081855b0018
:10123000020033000a03be000c00a0000402e90013
:10124000f6ff3b00850578000602430087824b00cd
:1012500004003a006000b80009f0a70001f0a00007
:101260009cfe37000002520081825a000704e00011
:10127000040033000603430087834b008b05e9001d
:10128000faff3700090578000604be000203be001d
:101290006011b80043fe0700e00f5200e08f5a00d3
:1012a0000700350002003c000c08a30004003200d7
:1012b0000601be0003f0a0000cf0a700d1fc07005f
:1012c0000a85680001f0a1000af0a70001f0a00063
:1012d00080fe37000800be007efe370010022000ae
:0c12e0000cf0a600008488007efe3700a1
:020000040000fa
:1012ec006b700000412000003a200000000a000052
:1012fc00006b000070440000203a00002000000049
:10130c006b640000412000003a200000006b0000dc
:10131c0064440000203a000020000000502000002f
:10132c003a20000000520000203a0000200000008b
:10133c004c2000003a20000000730000656e000095
:10134c0073200000522000003a20000000730000bf
:10135c00656e0000732000004c2000003a20000055
:10136c0000650000727200006f7200000a0000003d
:10137c005c6e000000730000746100007465000076
:10138c00203d00002000000065720000726f00001c
:10139c0072200000696e0000766100006c6900002c
:1013ac00642000005553000020690000640a00000e
:1013bc0000550000535b0000005d0000203d000064
:1013cc002000000065720000726f000072200000a7
:1013dc00696e0000766100006c69000064200000fa
:1013ec0067650000742000006172000067750000e2
:1013fc006d6500006e7400000a000000657200004c
:10140c00726f000072200000696e000076610000af
:10141c006c690000642000007365000072760000a7
:10142c006f200000766100006c750000650a0000fa
:10143c0000200000736500006e7400002074000032
:10144c006f20000053650000727600006f200000d2
:10145c00300a000000200000736500006e7400006c
:10146c00207400006f2000005365000072760000ad
:10147c006f200000310a000000200000736500009e
:10148c006e740000207400006f2000005365000093
:10149c00727600006f200000320a0000002000006d
:1014ac00736500006e740000207400006f20000053
:1014bc0053650000727600006f200000330a0000b4
:1014cc0000200000736500006e74000020740000a2
:1014dc006f20000053650000727600006f20000042
:1014ec00340a000000200000736500006e740000d8
:1014fc00207400006f20000053650000727600001d
:10150c006f200000350a0000002000007365000009
:10151c006e740000207400006f2000005365000002
:10152c00727600006f200000360a00000065000093
:10153c00727200006f720000206900006e7600006d
:10154c00616c00006964000020730000657200008b
:10155c00766f000020690000640a0000006500003e
:10156c00727200006f720000206900006e7600003d
:10157c00616c000069640000207800002076000097
:10158c00616c0000756500000a00000065720000c7
:10159c00726f000072200000696e0000766100001e
:1015ac006c69000064200000792000007661000066
:1015bc006c750000650a0000007200006563000095
:1015cc006569000076650000642000005b67000020
:1015dc006f5d0000203a000020780000203d0000e4
:1015ec00200000002026000020790000203d000093
:1015fc002000000065720000726f00007220000075
:10160c00696e0000766100006c69000064200000c7
:10161c00782000006f720000207900002076000016
:10162c00616c0000756500000a0000006572000026
:10163c00726f000072200000696e0000766100007d
:10164c006c690000642000007420000076610000ca
:10165c006c750000650a00000072000065630000f4
:10166c006569000076650000642000005b74000072
:10167c00757200006e5d0000203a00002000000032
:10168c007265000063650000697600006564000007
:10169c00205b000054750000724e00005d200000bd
:1016ac004e4f0000204c0000494d000049540000f2
:1016bc0053200000212000003a200000007200009e
:1016cc006563000065690000766500006420000019
:1016dc005b630000616e00006f6e0000206f000005
:1016ec006e5d00000a00000072650000636500007a
:1016fc006976000065640000205b000063610000f7
:10170c006e6f00006e2000006f660000665d0000ca
:10171c000a00000065720000726f00007220000069
:10172c00696e0000766100006c69000064200000a6
:10173c004158000031320000206900006420000094
:10174c0028310000206f00007220000033290000b7
:10175c000a00000065720000726f00007220000029
:10176c003a200000696e0000766100006c69000090
:10177c0064200000636d0000640a0000000000009b
:10178c00782000003a200000002000002f200000ec
:10179c00792000003a200000002000002f200000db
:1017ac00742000003a200000002000003b200000c4
:1017bc0078630000203a000020000000202f000079
:1017cc0020790000632000003a2000000020000077
:1017dc002f20000074630000203a0000002000005d
:1017ec003b20000072580000203a0000200000004e
:1017fc00202f000020720000592000003a20000029
:10180c00002000002f20000072540000203a00003d
:10181c0020000000202f00002f20000020200000be
:10182c005431000049450000203a0000200000001f
:10183c000a00000045520000524f000052200000e8
:10184c00554e000044450000464900004e4500003e
:10185c004420000053540000415400004500000097
:10186c006c2000003a200000002000002020000026
:10187c002020000020720000203a00002000000010
:10188c002020000020200000202000004431000017
:10189c00203a000020000000202000002020000042
:1018ac0020200000443100002a31000030300000bc
:1018bc00203a000020000000202000002020000022
:1018cc002020000044320000203a000020000000dc
:1018dc0020200000202000002020000044320000c6
:1018ec002a31000030300000203a000020000000b7
:1018fc000d0a000000200000202000002020000025
:10190c0020790000203a0000200000002020000078
:10191c002020000020200000742000003a2000004d
:10192c000072000075700000746500007572000094
:10193c00206100007373000065720000766900007e
:10194c0073730000656d0000656e0000742000006c
:10195c00302000003d200000000a000072750000dd
:10196c007074000065750000722000006173000047
:10197c0073650000727600006973000073650000e7
:10198c006d6500006e74000020310000203d0000e9
:10199c00200000000a7200007570000074650000e1
:1019ac007572000020610000737300006572000006
:1019bc007669000073730000656d0000656e0000b1
:1019cc0074200000322000003d200000000a0000be
:1019dc0072750000707400006575000072200000c4
:1019ec00617300007365000072760000697300007b
:1019fc00736500006d6500006e74000020330000fc
:101a0c00203d0000200000000a72000075700000ec
:101a1c0074650000757200002061000063740000a2
:101a2c00696f00006e6e000065750000722000008a
:101a3c00302000003d200000000a000072750000fc
:101a4c007074000065750000722000006163000076
:101a5c00746900006f6e00006e6500007572000006
:101a6c0020310000203d0000200000000a72000020
:101a7c007570000074650000757200002061000034
:101a8c0063740000696f00006e6e000065750000e5
:101a9c0072200000322000003d200000000a0000ef
:101aac0072750000707400006575000072200000f3
:101abc0061630000746900006f6e00006e650000c9
:101acc007572000020330000203d00002000000053
:101adc000a720000757000007465000075720000d9
:101aec002061000063740000696f00006e6e0000de
:101afc006575000072200000342000003d200000bd
:101b0c00000a00007275000070740000657500001a
:101b1c007220000061630000746900006f6e0000a9
:101b2c006e6500007572000020350000203d00003d
:101b3c0020000000555300005b0000005d200000f9
:101b4c003d200000000000002c0000000a000000f6
:020000040000fa
:101b5c000400fa00889fbe00c21f0700701c07001b
:101b6c00e6170700ee1f0700250a07002c1e0700ca
:101b7c004c1d07003d2007006c1f07006000b800db
:101b8c0010808800218088006000b80030808800b8
:101b9c00418088006000b800508088006180880017
:101bac006000b80070808800818088006000b800f8
:101bbc0090808800a18088006000b800b080880008
:101bcc00c18088006000b800d0808800e180880067
:101bdc006000b800f0808800018188006000b800c7
:101bec0010818800218188000070ef000170ef00e7
:101bfc002830ef002a30ef00646ea8006000b800b7
:101c0c00008fbe00050037000200200003f82300ff
:101c1c001e00be0078fa0700008fbe0018c0b3008b
:101c2c0002002400c36124001e00be0095fb0700c7
:101c3c000000e000010035000044eb000804e00067
:101c4c00f1ff3a00646ea9006000b800008fbe007e
:101c5c00050037000200200003f823001e00be0020
:101c6c0065fa0700008fbe0018c0b3000200240004
:101c7c00c36124001e00be0082fb07000000e000d0
:101c8c00010035000044eb000804e000f1ff3a00cd
:101c9c00646ea8006000b800008fbe00050037001d
:101cac000200200003f823001e00be0052fa0700b9
:101cbc00008fbe0018c0b30002002400c3612400d2
:101ccc001e00be006ffb07000000e00001003500a5
:101cdc000044eb000804e000f1ff3a00646ea90038
:101cec006000b800008fbe00050037000200200025
:101cfc0003f823001e00be003ffa0700008fbe0051
:101d0c0018c0b30002002400c36124001e00be00f2
:101d1c005cfb07000000e000010035000044eb0014
:101d2c000804e000f1ff3a00646ea8006000b800ff
:101d3c00008fbe00050037000200200003f82300ce
:101d4c001e00be002cfa0700008fbe0018c0b300a6
:101d5c0002002400c36124001e00be0049fb0700e2
:101d6c000000e000010035000044eb000804e00036
:101d7c00f1ff3a00646ea9006000b800008fbe004d
:101d8c00050037000200200003f823001e00be00ef
:101d9c0019fa0700008fbe0018c0b300020024001f
:101dac00c36124001e00be0036fb07000000e000eb
:101dbc00010035000044eb000804e000f1ff3a009c
:101dcc00646ea8006000b800008fbe0005003700ec
:101ddc000200200003f823001e00be0006fa0700d4
:101dec00008fbe0018c0b30002002400c3612400a1
:101dfc001e00be0023fb07000000e00001003500c0
:101e0c000044eb000804e000f1ff3a00646ea90006
:101e1c0000002800300e880000002800302e8800ba
:101e2c00a3362100e233210021312100602e210054
:101e3c00491a0700f71207002630ef00010037009f
:101e4c00000000007ed0bf000004e00070003200f3
:101e5c006011b8006000b800c518070069003700b1
:101e6c0066d0bf000004e0006600320060bc2800b1
:101e7c0091120700108080002180800005fb070074
:101e8c0000007800b01207008b120700b0bc2800cd
:101e9c00891207003080800041808000fdfa070025
:101eac0000007800a81207008312070030bd28003c
:101ebc0081120700508080006180800002002000a9
:101ecc00433b240087fb0700b2fd2000930c240049
:101edc00aafa0700effa0700000078009a12070030
:101eec0075120700b0bd28007312070070808000c7
:101efc0081808000e7fa070000007800921207004a
:101f0c006d12070040be28006b1207009080800005
:101f1c00a1808000dffa0700000078008a12070019
:101f2c0065120700d0be280063120700b080800045
:101f3c00c180800002002000433b240069fb0700a5
:101f4c00b2fd2000930c24008cfa0700d1fa070094
:101f5c00000078007c1207005712070050bf2800c1
:101f6c0055120700c0828000d1828000c9fa070098
:101f7c0000007800741207004f120700e0bf280021
:101f8c004d120700e0828000f1828000c1fa070048
:101f9c00000078006c1207004712070070c0280080
:101fac00451207000083800011838000020020008e
:101fbc00433b24004bfb0700b2fd2000930c240094
:101fcc006efa0700b3fa0700000078005e120700f3
:101fdc003912070000c128003712070000418000a9
:101fec004300de00614060000080fb0056120700d9
:101ffc0031120700e0c128002f1207004006200014
:10200c00f71207007ed0bf000004e00094ff3a00f6
:10201c0030818000e10f50002b003200e20f5000a5
:10202c00420032000000e00043003a002068a900a2
:10203c006000b80010808800218088006000b80023
:10204c0030808800418088006000b8005080880093
:10205c00618088006000b8007080880081808800f2
:10206c006000b80090808800a18088006000b800f3
:10207c00b0808800c18088006000b800d0808800e3
:10208c00e18088006000b800f08088000181880041
:10209c006000b800108188002181880000002800b1
:1020ac00300e880000002800302e88002068a80020
:1020bc00803e2000ca120700308180000000e8003a
:1020cc00308188002100370064d0bf000004e0009c
:1020dc000c0032006470ef00e0828000f18280001e
:1020ec00c8828000d982800006002000872c240042
:1020fc0004002000852c24000001be000800be0056
:10210c007704070065d0bf000004e0000400320033
:10211c006570ef00008380001183800025070700a5
:10212c0040062000ae120700080037009b0807008d
:10213c00470807000500370000c22800ba11070045
:10214c0000c22800dc1107000000000066d0bf00b0
:10215c000004e0003aff320060bc2800d6110700f2
:10216c0010808000218080004afa0700000078006f
:10217c00f5110700d0110700b0bc2800ce110700e4
:10218c00308080004180800042fa07000000780017
:10219c00ed110700c811070030bd2800c61107005b
:1021ac00508080006180800002002000433b2400ae
:1021bc00ccfa0700b2fd2000930c2400eff90700c5
:1021cc0034fa070000007800df110700ba1107008d
:1021dc00b0bd2800b811070070808000818080009d
:1021ec002cfa070000007800d7110700b211070085
:1021fc0040be2800b011070090808000a1808000b4
:10220c0024fa070000007800cf110700aa1107007c
:10221c00d0be2800a8110700b0808000c1808000cb
:10222c0002002000433b2400aefa0700b2fd200060
:10223c00930c2400d1f9070016fa0700000078006f
:10224c00c11107009c11070050bf28009a1107000c
:10225c00c0828000d18280000efa07000000780056
:10226c00b911070094110700e0bf28009211070074
:10227c00e0828000f182800006fa070000007800fe
:10228c00b11107008c11070070c028008a110700db
:10229c00008380001183800002002000433b240057
:1022ac0090fa0700b2fd2000930c2400b3f907004c
:1022bc00f8f9070000007800a31107007e11070051
:1022cc0000c128007c110700004180004300de00a3
:1022dc00614060000080fb009b1107007611070035
:1022ec00e0c1280074110700d6fe37001000fa0078
:1022fc00881f78000000200001142400400798007b
:10230c00510798006000b800008fbe00d0cc2c00a4
:10231c00c1dc230060079800710798001e01be0005
:10232c004e009000de009000b2f8070018c0b30019
:10233c006e019000fe019000d4f907000000e0004f
:10234c0001003c000044eb000804e00007003200f0
:10235c006e019000fe0190001e00be00a6f8070062
:10236c0020079800310798001c0037001e01be00a2
:10237c004e009000de0090009ef807000002be00a8
:10238c006e009000fe00900001f0a20018c0b30097
:10239c000001be000400be00baf907000000e00016
:1023ac00010035000044eb000804e0000700320097
:1023bc006e019000fe0190001e00be008df807001b
:1023cc002007980031079800040037004e01900058
:1023dc00de01900022079800330798002e01900030
:1023ec00be019000028fbe002e019000be01900035
:1023fc006000b8005e170700e0012000f81107002c
:10240c00c6ff37001800fa002068a9000000280059
:10241c00300e880000002800302e8800310e80001d
:10242c0000002800008040008000eb00d8f9070075
:10243c00b2fd2000930424002afa07000001be001c
:10244c006df80700d2cc2c00431c240025fa0700a1
:10245c00020020000358240048f90700008fbe003a
:10246c00312e800000002800008040008000eb002e
:10247c00c7f90700b2fd20009304240019fa0700e5
:10248c000001be005cf80700d2cc2c00431c2400d9
:10249c0014fa0700020020000358240037f9070043
:1024ac002007980031079800310e800000002800aa
:1024bc00008040008000eb00b5f90700b2fd200061
:1024cc009304240007fa07000001be004af8070035
:1024dc00020020000358240028f907004007980048
:1024ec0051079800312e8000000028000080400029
:1024fc008000eb00a6f90700b2fd20009304240035
:10250c00f8f907000001be003bf8070002002000ac
:10251c000358240019f90700600798007107980008
:10252c004e019000de019000000020006139240073
:10253c0012f90700000f9800110f98006e0190001f
:10254c00fe01900000002000613924000bf9070007
:10255c00200f9800310f980060c32800b2100700bc
:10256c001e00be004bf9070000007800f6100700b3
:10257c00ad100700b0c32800ab1007002e00900070
:10258c00be00900043f9070000007800ee10070031
:10259c00a510070060c42800a31007000e089000c7
:1025ac009e0890003bf9070000007800e610070039
:1025bc009d10070020c528009b100700020020007a
:1025cc00832c24000e0890009e089000c5f907008b
:1025dc0030f9070000007800db10070092100700ac
:1025ec0020c62800901007002e089000be0890000e
:1025fc0028f9070000007800d31007008a100700a4
:10260c00e0c628008810070002002000832c24005c
:10261c002e089000be089000b2f907001df90700c3
:10262c0000007800c81007007f100700e0c72800e2
:10263c007d100700800c20006911070077ff370020
:10264c000000fa0060bc28007710070010808000a2
:10265c00218080000ff9070000007800ba100700f5
:10266c007110070010c828006f1007003080800020
:10267c004180800007f9070000007800b2100700c5
:10268c0069100700c0c82800671007005080800040
:10269c006180800002002000433b240091f9070078
:1026ac00b2fd2000930c2400b4f80700f9f80700e1
:1026bc0000007800a41007005b100700e0c728009a
:1026cc00591007000080fa00000006006800fa00ac
:1026dc00889fbe00402f9800512f9800622f9800c1
:1026ec00732f9800043798001537980026379800f8
:1026fc003737980010808000218080000001be00d8
:10270c004e289000de289000baf707000004be00a7
:10271c0030808000418080000001be006e28900057
:10272c00fe289000b3f707000801be000ff8070061
:10273c00201798003117980050808000618080002d
:10274c000001be002e109000be109000a9f70700eb
:10275c00200798003107980007003700b2fd2000d1
:10276c00930c24002e009000be009000a2f70700ee
:10277c00200798003107980018c0b300b2fd200064
:10278c0093042c002e009000be009000bdf80700b2
:10279c000000e000010035000044eb000804e000fc
:1027ac00eeff3a0007003700b2fd2000930c240026
:1027bc002e009000be0090008ef7070020079800b6
:1027cc003107980018c0b300b2fd20009304240018
:1027dc002e009000be009000acf807000000e00056
:1027ec0001003c000044eb000804e000eeff3a005e
:1027fc001080800021808000d0808800e1808800db
:10280c003080800041808000f08088000181880049
:10281c0050808000618080001081880021818800b8
:10282c0052808000638080004217980053179800f4
:10283c000000200001122400601798007117980006
:10284c000000200001122400001f9800111f9800a6
:10285c006000b80040079800510798006000b8006d
:10286c0060079800710798006000b800000f98008e
:10287c00110f980018c0b3006011b8002e00900022
:10288c00be00900081f807000000e00001003c0051
:10289c000044eb000804e0000500320000002000ba
:1028ac0001f82300200f9800310f980031003700f9
:1028bc000000200001f82b00200f9800310f980029
:1028cc002c003700a2702d0033c223006e10900034
:1028dc00fe10900003f907000001be004e009000ae
:1028ec00de00900044f7070040079800510798005d
:1028fc004e019000de0190006e009000fe009000f2
:10290c003df70700a2702d0033c22300f5f8070035
:10291c00020020000300240018f807000001be008c
:10292c000e0890009e08900033f70700000f9800e7
:10293c00110f98002e099000be0990000e0890000f
:10294c009e089000e7f807004e119000de119000f1
:10295c0029f70700b0808800c18088004e019000e4
:10296c00de0190006207980073079800a000200019
:10297c009b10070018c0b3000e1990009e19900010
:10298c004e009000de0090003ef807000000e000d2
:10299c00010035000044eb000804e0000e0032009a
:1029ac0002002000030024002e009000be009000c6
:1029bc00f2f7070018c0b3000e0990009e099000b2
:1029cc0032f807000000e00001003c000044eb007e
:1029dc000804e000bbff3a000e0990009e0990002d
:1029ec00221f9800331f98001b003700a2702d0087
:1029fc0033c223004e009000de009000b9f80700af
:102a0c000001be000e0890009e089000faf6070028
:102a1c00000f9800110f98002e099000be0990002d
:102a2c000e0890009e089000aef807004e11900022
:102a3c00de119000f0f60700b0808800c18088009d
:102a4c004e019000de019000620798007307980019
:102a5c00a0002000621007002e199000be199000f3
:102a6c002e009000be009000e2f6070018c0b300e4
:102a7c000e0990009e09900004f807000000e00089
:102a8c0001003c000044eb000804e000d7ff3a00d2
:102a9c006e109000fe10900001f0a20060179800dc
:102aac00711798002c003700a2702d0033c2230040
:102abc006e109000fe1090008af807000001be0016
:102acc004e009000de009000cbf607004007980007
:102adc00510798004e019000de0190006e009000ae
:102aec00fe009000c4f60700a2702d0033c2230034
:102afc007cf8070002002000030024009ff7070069
:102b0c000001be000e0890009e089000baf6070067
:102b1c00000f9800110f98002e099000be0990002c
:102b2c000e0890009e0890006ef807004e11900061
:102b3c00de119000b0f60700b0808800c1808800dc
:102b4c004e019000de019000620798007307980018
:102b5c00a00020002210070018c0b3006011b800bc
:102b6c004e009000de009000c8f707000000e00067
:102b7c0001003c000044eb000804e0000b003200b4
:102b8c0018c0b3002e019000be0190000e089000fa
:102b9c009e089000bbf707000000e0000100350024
:102bac000044eb000804e000bfff3a002e0990003f
:102bbc00be0990002e009000be00900049f807005e
:102bcc004e119000de1190008bf60700b08088004b
:102bdc00c1808800401f2000011007004e29900082
:102bec00de299000d2808800e38088006e29900056
:102bfc00fe299000f2808800038188000e3190003d
:102c0c009e319000128188002381880018c0b30087
:102c1c006011b8002e309000be30900099f707007c
:102c2c000000e000010035000044eb000804e00067
:102c3c00040032006000b80020379800313798004b
:102c4c000f00370018c0b300024022004397240045
:102c5c002e309000be3090008cf707000000e00092
:102c6c0001003c000044eb000804e00004003200ca
:102c7c0000402200419724002037980031379800fb
:102c8c0018c0b3006011b8003eb89700ceb89700da
:102c9c007cf707000000e000010035000044eb0069
:102cac000804e000040032006000b80030bf9f0050
:102cbc0041bf9f000f00370018c0b3000240220034
:102ccc00439724003eb89700ceb897006ff70700e3
:102cdc000000e00001003c000044eb000804e000b0
:102cec0004003200004022004197240030bf9f00b6
:102cfc0041bf9f003280800043808000421f9800bb
:102d0c00531f98001280800023808000621f98005f
:102d1c00731f98006e199000fe1990004e289000b9
:102d2c00de28900033f60700002798001127980042
:102d3c004e199000de1990006e289000fe2890002d
:102d4c002cf6070020279800312798000e219000c0
:102d5c009e2190002e209000be20900083f607004c
:102d6c0040279800512798000e2190009e2190003a
:102d7c000e2090009e209000daf707000004be00a1
:102d8c002e219000be2190002e209000be2090009d
:102d9c00d4f707000001be000800be0016f60700bd
:102dac006ff8070060279800712798003eb99700cc
:102dbc00ceb99700022f9800132f98006000b8002e
:102dcc00400f9800510f98006000b800600f9800f9
:102ddc00710f98006000b800001798001117980048
:102dec0038003700a2702d0033c223000e2890004b
:102dfc009e289000bbf707000001be004e08900013
:102e0c00de089000fcf50700400f9800510f980069
:102e1c004e099000de0990006e089000fe089000ac
:102e2c00f5f50700a2702d0033c22300adf70700a3
:102e3c000200200003002400d0f607000001be00b1
:102e4c000e1090009e109000ebf5070000179800f4
:102e5c00111798004e209000de209000c5f6070058
:102e6c000e1190009e1190009ef707006e199000b5
:102e7c00fe199000e0f507007080880081808800c2
:102e8c004e209000de20900033f807000e119000c9
:102e9c009e11900093f707004e199000de199000d8
:102eac00d5f5070090808800a18088004e0990001d
:102ebc00de099000620f9800730f9800a0002000ac
:102ecc00470f070018c0b3002e319000be319000a0
:102edc004e089000de089000eaf607000000e000c3
:102eec00010035000044eb000804e0000e00320045
:102efc0002002000030024006e209000fe209000b1
:102f0c009ef6070018c0b3000e1190009e119000a1
:102f1c00def607000000e00001003c000044eb007e
:102f2c000804e000afff3a000e1190009e119000d3
:102f3c00222f9800332f980018c0b3002e31900028
:102f4c00be3190004e089000de089000cff60700ce
:102f5c000000e00001003c000044eb000804e0002d
:102f6c002d0032002e319000be319000420f98009f
:102f7c00530f980029003700a2702d0033c2230094
:102f8c004e089000de08900056f707000001be00c6
:102f9c000e1090009e10900097f5070000179800f7
:102fac00111798004e209000de20900071f607005b
:102fbc000e1190009e1190004af707006e199000b8
:102fcc00fe1990008cf507007080880081808800c5
:102fdc004e209000de209000dff707000e119000cd
:102fec009e1190003ff707004e199000de199000db
:102ffc0081f5070090808800a18088004e09900020
:10300c00de099000620f9800730f9800a00020005a
:10301c00f30e070001003700000000002e2990007d
:10302c00be2990006e209000fe20900071f50700e4
:10303c0018c0b3000e1190009e11900093f607007b
:10304c000000e00001003c000044eb000804e0003c
:10305c00c9ff3a000e2890009e28900001f0a200b3
:10306c00002f9800112f980038003700a2702d0007
:10307c0033c223000e2890009e28900019f70700f9
:10308c000001be004e089000de0890005af50700c3
:10309c00400f9800510f98004e099000de099000e7
:1030ac006e089000fe08900053f50700a2702d00ea
:1030bc0033c223000bf7070002002000030024009a
:1030cc002ef607000001be000e1090009e1090001e
:1030dc0049f5070000179800111798004e20900032
:1030ec00de20900023f607000e1190009e11900038
:1030fc00fcf607006e199000fe1990003ef50700d3
:10310c0070808800818088004e209000de20900026
:10311c0091f707000e1190009e119000f1f6070038
:10312c004e199000de19900033f50700908088004e
:10313c00a18088004e099000de099000620f980073
:10314c00730f9800a0002000a50e070018c0b30054
:10315c006011b8004e089000de0890004bf6070096
:10316c000000e00001003c000044eb000804e0001b
:10317c000b00320018c0b3006e219000fe219000ad
:10318c000e1090009e1090003ef607000000e0002c
:10319c00010035000044eb000804e000b3ff3a00e6
:1031ac004e299000de299000728088008380880070
:1031bc006e299000fe29900092808800a3808800e0
:1031cc00401f2000860e0700508080006180800028
:1031dc0018c0b3000001be000e3090009e3090006d
:1031ec002af607000000e00001003c000044eb0060
:1031fc000804e000190032005280800063808000d7
:10320c00028fbe000a0037001e01be00b28088008b
:10321c00c380880010002000710e0700f2262100e8
:10322c0033b023001e00be00f3f40700008fbe0075
:10323c0018c0b3000e3190009e3190001e00be00ed
:10324c0010f607000000e000010034000044eb0021
:10325c000804e000ecff3a001800370052808000b0
:10326c0063808000028fbe000a0037001e01be0082
:10327c00b2808800c380880010002000580e070020
:10328c00f226210033b023001e00be00d9f4070043
:10329c00008fbe0018c0b3000e3190009e3190001c
:1032ac001e00be00f9f507000000e00001003d0023
:1032bc000044eb000804e000ecff3a000e319000f3
:1032cc009e319000b2808800c3808800401f20008f
:1032dc00430e07004f04be000080fa0000000600f9
:1032ec006400fa00889fbe00202f9800312f9800b0
:1032fc00422f9800532f9800642f9800752f980038
:10330c0006379800173798001080800021808000c5
:10331c000001be002e289000be289000b5f40700d6
:10332c000004be0030808000418080000001be009f
:10333c004e289000de289000aef407000801be0075
:10334c000af50700001798001117980050808000ac
:10335c00618080000001be000e1090009e10900055
:10336c00a4f40700008fbe0005003700b2fd20005a
:10337c00930c24001e00be009ff40700008fbe00bb
:10338c0018c0b300b2fd200093042c001e00be0038
:10339c00bcf507000000e000010035000044eb0024
:1033ac000804e000f1ff3a0005003700b2fd2000f0
:1033bc00930c24001e00be008ef40700008fbe008c
:1033cc0018c0b300b2fd2000930424001e00be0000
:1033dc00aef507000000e00001003c000044eb00eb
:1033ec000804e000f1ff3a0010808000218080008a
:1033fc00d0808800e180880030808000418080008f
:10340c00f0808800018188005080800061808000fd
:10341c0010818800218188005280800063808000a8
:10342c0022179800331798000000200001f82300a1
:10343c0040179800511798000000200001f8230055
:10344c0060179800711798006000b800200798006a
:10345c00310798006000b8004007980051079800a9
:10346c006000b800600798007107980018c0b3009e
:10347c006011b8001e00be0084f507000000e000db
:10348c0001003c000044eb000804e00005003200a1
:10349c000000200001f82300000f9800110f980085
:1034ac00340037000000200001f82b00000f9800ba
:1034bc00110f98001e00be0001f0a200008fbe008c
:1034cc002c003700a2702d0033c223004e10900048
:1034dc00de10900003f607000001be002e009000e5
:1034ec00be00900044f407002007980031079800b4
:1034fc002e019000be0190004e009000de00900066
:10350c003df40700a2702d0033c22300f5f507002f
:10351c00020020000300240018f507000001be0083
:10352c006e009000fe00900033f4070060079800d6
:10353c00710798000e0990009e0990006e00900093
:10354c00fe009000e7f507002e119000be119000d0
:10355c0029f40700b0808800c18088002e019000fb
:10356c00be0190004207980053079800a00020006d
:10357c009b0d070018c0b3006e119000fe11900057
:10358c002e009000be0090003ef507000000e00009
:10359c00010035000044eb000804e0000d0032008f
:1035ac0002002000030024001e00be00f3f40700fc
:1035bc0018c0b3006e019000fe01900033f50700b7
:1035cc000000e00001003c000044eb000804e000b7
:1035dc00bcff3a006e019000fe019000021f9800a3
:1035ec00131f98001b003700a2702d0033c223005c
:1035fc002e009000be009000baf507000001be003e
:10360c006e009000fe009000fbf30700600798002e
:10361c00710798000e0990009e0990006e009000b2
:10362c00fe009000aff507002e119000be11900027
:10363c00f1f30700b0808800c18088002e01900053
:10364c00be0190004207980053079800a00020008c
:10365c00630d07000e1990009e1990001e00be000d
:10366c00e4f3070018c0b3006e019000fe01900057
:10367c0006f507000000e00001003c000044eb00f0
:10368c000804e000d8ff3a004e109000de109000c5
:10369c0001f0a20040179800511798002c00370039
:1036ac00a2702d0033c223004e109000de1090004b
:1036bc008cf507000001be002e009000be009000ab
:1036cc00cdf3070020079800310798002e019000d9
:1036dc00be0190004e009000de009000c6f3070083
:1036ec00a2702d0033c223007ef5070002002000db
:1036fc0003002400a1f407000001be006e0090003e
:10370c00fe009000bcf3070060079800710798005a
:10371c000e0990009e0990006e009000fe00900033
:10372c0070f507002e119000be119000b2f3070047
:10373c00b0808800c18088002e019000be019000ee
:10374c004207980053079800a0002000240d0700a2
:10375c0018c0b3006011b8002e009000be0090009d
:10376c00caf407000000e00001003c000044eb003c
:10377c000804e0000a00320018c0b3001e01be00ad
:10378c006e009000fe009000bef407000000e00008
:10379c00010035000044eb000804e000c0ff3a00d3
:1037ac000e0990009e0990001e00be004df507000a
:1037bc002e119000be1190008ff30700b08088008e
:1037cc00c1808800401f2000050d07002e299000a5
:1037dc00be299000d2808800e38088004e2990009a
:1037ec00de299000f28088000381880018c0b300a5
:1037fc006011b8006e289000fe289000a1f407001c
:10380c000000e000010035000044eb000804e0007b
:10381c00040032006000b800602f9800712f9800ef
:10382c000f00370018c0b300024022004397240059
:10383c006e289000fe28900094f407000000e00031
:10384c0001003c000044eb000804e00004003200de
:10385c000040220041972400602f9800712f98009f
:10386c0018c0b3006011b8000e3090009e3090006c
:10387c0084f407000000e000010035000044eb0078
:10388c000804e000040032006000b8000037980023
:10389c00113798000f00370018c0b3000240220007
:1038ac00439724000e3090009e30900077f4070070
:1038bc000000e00001003c000044eb000804e000c4
:1038cc000400320000402200419724000037980089
:1038dc00113798003280800043808000221f9800ae
:1038ec00331f98001280800023808000421f9800b4
:1038fc00531f98004e199000de1990002e2890004e
:10390c00be2890003bf30700601f9800711f9800c1
:10391c002e199000be1990004e289000de289000c1
:10392c0034f3070000279800112798006e199000b7
:10393c00fe1990000e2090009e2090008bf3070043
:10394c0020279800312798006e199000fe199000de
:10395c006e189000fe189000e2f407000004be0000
:10396c000e2190009e2190000e2090009e20900031
:10397c00dcf407000001be000800be001ef30700c7
:10398c0077f5070040279800512798000e319000da
:10399c009e31900062279800732798006000b80051
:1039ac00200f9800310f98006000b800400f98006d
:1039bc00510f98006000b800600f9800710f9800cc
:1039cc0038003700a2702d0033c223006e20900007
:1039dc00fe209000c3f407000001be002e089000ea
:1039ec00be08900004f30700200f9800310f9800d8
:1039fc002e099000be0990004e089000de08900041
:103a0c00fdf20700a2702d0033c22300b5f40700ad
:103a1c000200200003002400d8f307000001be00c0
:103a2c006e089000fe089000f3f20700600f9800fb
:103a3c00710f98002e209000be209000cdf307004f
:103a4c006e099000fe099000a6f407004e19900034
:103a5c00de199000e8f207007080880081808800f1
:103a6c002e209000be2090003bf507006e099000c0
:103a7c00fe0990009bf407002e199000be199000cf
:103a8c00ddf2070090808800a18088002e0990004c
:103a9c00be099000420f9800530f9800a000200020
:103aac004f0c070018c0b3006e299000fe2990003f
:103abc002e089000be089000f2f307000000e00012
:103acc00010035000044eb000804e0000e00320059
:103adc0002002000030024004e209000de20900005
:103aec00a6f3070018c0b3006e099000fe09900001
:103afc00e6f307000000e00001003c000044eb008e
:103b0c000804e000afff3a006e099000fe09900037
:103b1c00022f9800132f980018c0b3006e29900044
:103b2c00fe2990002e089000be089000d7f30700e5
:103b3c000000e00001003c000044eb000804e00041
:103b4c002d0032006e299000fe299000220f980063
:103b5c00330f980029003700a2702d0033c22300c8
:103b6c002e089000be0890005ef407000001be0015
:103b7c006e089000fe0890009ff20700600f9800fe
:103b8c00710f98002e209000be20900079f3070052
:103b9c006e099000fe09900052f407004e19900037
:103bac00de19900094f207007080880081808800f4
:103bbc002e209000be209000e7f407006e099000c4
:103bcc00fe09900047f407002e199000be199000d2
:103bdc0089f2070090808800a18088002e0990004f
:103bec00be099000420f9800530f9800a0002000cf
:103bfc00fb0b070001003700000000000e299000ad
:103c0c009e2990004e209000de20900079f2070053
:103c1c0018c0b3006e099000fe0990009bf30700da
:103c2c000000e00001003c000044eb000804e00050
:103c3c00c9ff3a006e209000fe20900001f0a20017
:103c4c00602798007127980038003700a2702d006b
:103c5c0033c223006e209000fe20900021f4070058
:103c6c000001be002e089000be08900062f2070012
:103c7c00200f9800310f98002e099000be0990007b
:103c8c004e089000de0890005bf20700a2702d0039
:103c9c0033c2230013f407000200200003002400a9
:103cac0036f307000001be006e089000fe0890007d
:103cbc0051f20700600f9800710f98002e209000b1
:103ccc00be2090002bf307006e099000fe099000b7
:103cdc0004f407004e199000de19900046f207001c
:103cec0070808800818088002e209000be2090007b
:103cfc0099f407006e099000fe099000f9f3070093
:103d0c002e199000be1990003bf20700908088009d
:103d1c00a18088002e099000be099000420f9800e7
:103d2c00530f9800a0002000ad0b070018c0b30083
:103d3c006011b8002e089000be08900053f30700e5
:103d4c000000e00001003c000044eb000804e0002f
:103d5c000b00320018c0b3004e219000de21900001
:103d6c006e089000fe08900046f307000000e0008b
:103d7c00010035000044eb000804e000b3ff3a00fa
:103d8c002e299000be2990007280880083808800c4
:103d9c004e299000de29900092808800a380880034
:103dac00401f20008e0b07004f04be000080fa005d
:103dbc00000006002800fa00881f780020179800e1
:103dcc003117980050808000618080000001be0097
:103ddc002e109000be10900006f20700008fbe005f
:103dec0005003700b2fd2000930c24001e00be001d
:103dfc0001f20700008fbe0018c0b300b2fd200016
:103e0c0093042c001e00be001ef307000000e0000f
:103e1c00010035000044eb000804e000f1ff3a001b
:103e2c0005003700b2fd2000930c24001e00be00dc
:103e3c00f0f10700008fbe0018c0b300b2fd2000e7
:103e4c00930424001e00be0010f307000000e000e5
:103e5c0001003c000044eb000804e000f1ff3a00d4
:103e6c001080800021808000d0808800e180880054
:103e7c003080800041808000f080880001818800c3
:103e8c005080800061808000108188002181880032
:103e9c005280800063808000220f9800330f9800be
:103eac000000200001f82300400f9800510f9800eb
:103ebc000000200001f82300600f9800710f98009b
:103ecc006000b80020079800310798006000b80027
:103edc0040079800510798006000b80060079800f0
:103eec007107980018c0b3006011b8001e00be0026
:103efc00e6f207000000e00001003c000044eb008b
:103f0c000804e000050032000000200001f8230046
:103f1c00000f9800110f98003400370000002000ab
:103f2c0001f82b00000f9800110f98001e00be0026
:103f3c0001f0a200008fbe002c003700a2702d00f3
:103f4c0033c223004e089000de08900065f3070092
:103f5c000001be002e009000be009000a6f10700ec
:103f6c0020079800310798002e019000be019000a8
:103f7c004e009000de0090009ff10700a2702d0013
:103f8c0033c2230057f30700020020000300240073
:103f9c007af207000001be006e009000fe00900057
:103fac0095f1070060079800710798000e099000c2
:103fbc009e0990006e009000fe00900049f30700ef
:103fcc002e099000be0990008bf10700b08088008c
:103fdc00c18088002e019000be019000420798001d
:103fec0053079800a0002000fd0a070018c0b3007a
:103ffc006e099000fe0990002e009000be0090000b
:10400c00a0f207000000e000010035000044eb00c6
:10401c000804e0000d003200020020000300240020
:10402c001e00be0055f2070018c0b3006e019000d0
:10403c00fe01900095f207000000e00001003c003a
:10404c000044eb000804e000bcff3a006e01900055
:10405c00fe01900002179800131798001b00370000
:10406c00a2702d0033c223002e009000be009000e1
:10407c001cf307000001be006e009000fe009000d3
:10408c005df1070060079800710798000e09900019
:10409c009e0990006e009000fe00900011f3070046
:1040ac002e099000be09900053f10700b0808800e3
:1040bc00c18088002e019000be019000420798003c
:1040cc0053079800a0002000c50a07000e119000ad
:1040dc009e1190001e00be0046f1070018c0b300f0
:1040ec006e019000fe01900068f207000000e000f5
:1040fc0001003c000044eb000804e000d8ff3a004b
:10410c004e089000de08900001f0a200400f9800cd
:10411c00510f98002c003700a2702d0033c22300e1
:10412c004e089000de089000eef207000001be0081
:10413c002e009000be0090002ff107002007980081
:10414c00310798002e019000be0190004e009000a7
:10415c00de00900028f10700a2702d0033c223006e
:10416c00e0f20700020020000300240003f2070025
:10417c000001be006e009000fe0090001ef10700d2
:10418c0060079800710798000e0990009e09900036
:10419c006e009000fe009000d2f207002e099000f5
:1041ac00be09900014f10700b0808800c18088001f
:1041bc002e019000be019000420798005307980012
:1041cc00a0002000860a070018c0b3006011b800d8
:1041dc002e009000be0090002cf207000000e000c2
:1041ec0001003c000044eb000804e0000a0032002f
:1041fc0018c0b3001e01be006e009000fe009000bf
:10420c0020f207000000e000010035000044eb0044
:10421c000804e000c0ff3a000e0990009e099000cf
:10422c001e00be00aff207002e099000be099000e0
:10423c00f1f00700b0808800c1808800401f20008a
:10424c00670a07004f0478000080fa00000006009f
:10425c000000fa0070c9280097090700107280004e
:10426c004800de00614060000080fb00b6090700da
:10427c009109070030cb28008f09070010738000cc
:10428c004a00de00614060000080fb00ae090700c0
:10429c008909070000cd28008709070010708000ed
:1042ac004c00de00614060000080fb00a6090700a6
:1042bc0081090700d0ce28007f090700107280000a
:1042cc004900de00614060000080fb009e09070091
:1042dc0079090700a0d028007709070090728000a8
:1042ec004900de00614060000080fb009609070079
:1042fc007109070030d228006f0907009070800008
:10430c000000d100614060000080fb008e090700b6
:10431c0069090700c0d32800670907009070800066
:10432c0000407800614060000080fb0086090700b7
:10433c006109070050d528005f0907001070800044
:10434c000000d100614060000080fb007e09070086
:10435c0059090700e0d628005709070010708000a3
:10436c0000407800614060000080fb007609070087
:10437c005109070070d828004f0907001070800001
:10438c004b00de00614060000080fb006e090700fe
:10439c00490907000080fa00000006000200fa003c
:1043ac000040eb00004f78001000370000da2800c6
:1043bc00410907001e80fb00630907003e09070046
:1043cc0040da28003c090700107280004800de002b
:1043dc00614060000080fb005b09070036090700a4
:1043ec00e0c12800340907001e4fe8001e40780089
:1043fc00e54f5000edff36000080fa00000006008b
:10440c000000fa0003000700360007000080fa00e5
:10441c00000006000000fa002188a9002168a9000c
:10442c0010cea90010aea800500220002036880043
:10443c002134800000fc2f00008060000000a000f0
:10444c002034880021e2a90021a2a9002182a90020
:10445c002162a90001118000f0cf2f0000806000c4
:10446c000011880020c2a90020a2a9002082a90066
:10447c002062a9000111800090ff2f0000806000d5
:10448c00001188002002a9002362a90023a2a90020
:10449c0023e2a90023c2a90022a2a90011118000c5
:1044ac00f0f32f000080600010118800701c2000b9
:1044bc00401188000188a9002188a8000168a90082
:1044cc002168a80021e2a8002342a8005070ef0048
:1044dc005170ef005470ef005670ef000080fa003e
:1044ec00000006000000fa0023e8a90023c8a90078
:1044fc0000052000303688009134800000fc2f002d
:10450c00008060003000b3009034880031e2a900d4
:10451c0031a2a9003182a9003162a9008111800069
:10452c00f0cf2f00008060008011880030c2a900fd
:10453c0030a2a9003082a9003062a800811180004d
:10454c0090ff2f0000806000801188003002a900cd
:10455c003362a90033a2a90033e2a90033c2a90037
:10456c0032a2a90091118000f0f32f0000806000ae
:10457c009011880020022000c011880003c8a900f7
:10458c0003e8a90023e8a80023c8a80031e2a8008a
:10459c003342a8005270ef005370ef005570ef00db
:1045ac005770ef000080fa00000006003600f8009b
:1045bc00809fbe00829fbe00849fbe00869fbe006f
:1045cc000000fa0010118000620060000000e000a2
:1045dc00c10232002222a900c0023700610521006d
:1045ec009140780030c6b30080cf500001003600f7
:1045fc005670ef0056d0bf000080fb0031118000d8
:10460c0081407800a214210000004100014878008c
:10461c0056d0bf000040e80056f0b70056d0bf009f
:10462c000080fb000000e900a11421000080400084
:10463c0010407800ea4f5000a8023a00a014210064
:10464c009040780030c7b30080cf500019003a007a
:10465c00b01421009040780050c6b30080cf5000b9
:10466c0014003a00c01421009040780040c7b300f9
:10467c0080cf50000f003a0020738000680060006b
:10468c0000f0a7000000ea000000e9004f00de0087
:10469c00004078000080fb00610060004300dd00fa
:1046ac00217380000130a10001007000207388008c
:1046bc0087023700a01421009040780000c7b30097
:1046cc0080cf50001c003a00b014210090407800bc
:1046dc0010c6b30080cf500017003a00c014210060
:1046ec0090407800b0c2b30080cf500012003a0066
:1046fc00509b8000619b80000200200003f8230087
:10470c00bdef0700509b8800619b880060972800d4
:10471c0045080700509b8000619b8000ddf007007e
:10472c0000007800880807003f080700d097280091
:10473c003d08070066023700a01421009040780065
:10474c0000c7b30080cf50001f003a00b014210006
:10475c009040780040c6b30080cf50001a003a0059
:10476c00c014210090407800b0c2b30080cf50003c
:10477c0015003a00f0998000019a8000f226210081
:10478c0033a823009cef0700f0998800019a880059
:10479c00f097280024080700f0998000019a800007
:1047ac0002002000a34724004ef10700b9f00700d7
:1047bc0000007800640807001b080700d097280049
:1047cc001908070042023700a0142100904078001d
:1047dc0000c7b30080cf50001c003a00b014210079
:1047ec009040780010c6b30080cf500017003a00fc
:1047fc00c014210090407800d0c2b30080cf50008c
:10480c0012003a00509b8000619b80000200200047
:10481c0003f8230077ef0700509b8800619b88000a
:10482c006097280000080700509b8000619b800067
:10483c0098f007000000780043080700fa0707000b
:10484c00d0972800f807070021023700a014210098
:10485c009040780000c7b30080cf50001f003a0092
:10486c00b01421009040780040c6b30080cf5000b7
:10487c001a003a00c014210090407800d0c2b30056
:10488c0080cf500015003a00f0998000019a80000a
:10489c00f226210033a8230056ef0700f099880078
:1048ac00019a8800f0972800df070700f099800034
:1048bc00019a800002002000a347240009f10700a0
:1048cc0074f00700000078001f080700d6070700e7
:1048dc00d0972800d4070700fd013700a014210051
:1048ec009040780040c6b30080cf50001f003a00c3
:1048fc00b01421009040780010c6b30080cf500057
:10490c001a003a00c014210090407800b0c2b300e5
:10491c0080cf500015003a00909b8000a19b800036
:10492c00d2cc2c00c3dc230033ef0700909b880013
:10493c00a19b880060982800bb070700909b800013
:10494c00a19b80000200200003122400e5f0070068
:10495c0050f0070000007800fb070700b2070700c3
:10496c00d0972800b0070700d9013700a014210008
:10497c009040780040c6b30080cf50001f003a0032
:10498c00b01421009040780040c6b30080cf500096
:10499c001a003a00c014210090407800b0c2b30055
:1049ac0080cf500015003a00309a8000419a800068
:1049bc0072712b00138d23000fef0700309a8800c3
:1049cc00419a8800d098280097070700309a8000f9
:1049dc00419a800002002400c3612400c1f007004a
:1049ec002cf0070000007800d70707008e0707009f
:1049fc00d09728008c070700b5013700a0142100c0
:104a0c009040780040c6b30080cf50001f003a00a1
:104a1c00b01421009040780010c6b30080cf500035
:104a2c001a003a00c014210090407800d0c2b300a4
:104a3c0080cf500015003a00909b8000a19b800015
:104a4c00d2cc2c00c3dc2300eaee0700909b88003c
:104a5c00a19b88006098280073070700909b80003a
:104a6c00a19b800002002000031224009df007008f
:104a7c0008f0070000007800b30707006a0707007a
:104a8c00d09728006807070091013700a014210077
:104a9c009040780040c6b30080cf50001f003a0011
:104aac00b01421009040780040c6b30080cf500075
:104abc001a003a00c014210090407800d0c2b30014
:104acc0080cf500015003a00309a8000419a800047
:104adc0072712b00138d2300c6ee0700309a8800ec
:104aec00419a8800d09828004f070700309a800020
:104afc00419a800002002400c361240079f0070071
:104b0c00e4ef0700000078008f0707004607070056
:104b1c00d0972800440707006d013700a01421002e
:104b2c009040780000c7b30080cf50001a003a00c4
:104b3c00b014210090407800b0c2b30080cf500078
:104b4c0015003a003097800041978000a2702d002c
:104b5c0033c22300a8ee07003097880041978800e5
:104b6c00409928003007070030978000419780005b
:104b7c0002002000832c24005af00700c5ef070028
:104b8c00000078007007070027070700d09728005f
:104b9c00250707004e013700a01421009040780033
:104bac0000c7b30080cf50001a003a00b0142100a7
:104bbc0090407800d0c2b30080cf500015003a006e
:104bcc003097800041978000a2702d0033c22300e3
:104bdc0088ee07003097880041978800409928009c
:104bec0011070700309780004197800002002000d9
:104bfc00832c24003bf00700a6ef07000000780090
:104c0c005107070008070700d09728000607070080
:104c1c002f013700a01421009040780020c7b3006a
:104c2c0080cf50001f003a00b01421009040780053
:104c3c00b0c2b30080cf50001a003a00217380003c
:104c4c00000024000080600000f0a7000000ea00d3
:104c5c000000e9004f00de00004078000080fb00ff
:104c6c00610060004e00dd002173800001e0a100b6
:104c7c000100700020738800306380002003b000b6
:104c8c003063880090992800e706070030638000a5
:104c9c002d070700e4060700d0972800e20607005e
:104cac000b013700a01421009040780020c7b300fe
:104cbc0080cf50001f003a00b014210090407800c3
:104ccc00d0c2b30080cf50001a003a00217380008c
:104cdc00000024000080600000f0a7000000ea0043
:104cec000000e9004f00de00004078000080fb006f
:104cfc00610060004e00dd002173800001e0a10026
:104d0c000100700020738800306380002003b10024
:104d1c003063880090992800c30607003063800038
:104d2c0009070700c0060700d0972800be06070039
:104d3c00e7003700a014210090407800c0c6b300f3
:104d4c0080cf50001f003a00b01421009040780032
:104d5c00b0c2b30080cf50001a003a00217380001b
:104d6c00000024000080600000f0a7000000ea00b2
:104d7c000000e9004f00de00004078000080fb00de
:104d8c00610060004e00dd002173800001e0a10095
:104d9c000100700020738800706380002003b00055
:104dac0070638800e09928009f06070070638000fc
:104dbc00e50607009c060700d09728009a06070016
:104dcc00c3003700a014210090407800c0c6b30087
:104ddc0080cf50001f003a00b014210090407800a2
:104dec00d0c2b30080cf50001a003a00217380006b
:104dfc00000024000080600000f0a7000000ea0022
:104e0c000000e9004f00de00004078000080fb004d
:104e1c00610060004e00dd002173800001e0a10004
:104e2c000100700020738800706380002003b100c3
:104e3c0070638800e09928007b060700706380008f
:104e4c00c106070078060700d097280076060700f1
:104e5c009f003700a01421009040780030c6b300aa
:104e6c0080cf500022003a00b0142100904078000e
:104e7c0030c7b30080cf50001d003a00c014210091
:104e8c009040780020c7b30080cf500018003a0043
:104e9c00207380006100600000f0a7000000ea00b1
:104eac000000e9004f00de00004078000080fb00ad
:104ebc0061006000217380000100a10001007000fe
:104ecc0020738800309a2800570607002073800052
:104edc0000407800614060000080fb009a060700eb
:104eec0051060700d09728004f06070078003700be
:104efc00a01421009040780030c6b30080cf500041
:104f0c0023003a00b01421009040780030c7b30061
:104f1c0080cf50001e003a00c01421009040780051
:104f2c00c0c6b30080cf500019003a002073800037
:104f3c006200600000f0a7000000ea000000e90039
:104f4c004f00de00004078000080fb006100600034
:104f5c0000004000217380000110a10001007000ce
:104f6c0020738800d09a28002f0607002073800039
:104f7c000000d100614060000080fb007206070059
:104f8c0029060700d0972800270607005000370095
:104f9c00a01421009040780030c5b30080cf5000a1
:104fac0019003a00b01421009040780000c3b300ff
:104fbc0080cf500014003a00c014210090407800bb
:104fcc0000c2b30080cf50000f003a00d014210073
:104fdc009040780050c7b30080cf50000a003a00d0
:104fec00e01421009040780000c7b30080cf50003f
:104ffc0005003a0002002800235224000040eb0078
:10500c00570b070032003700a014210090407800a5
:10501c0030c5b30080cf500023003a00b0142100fb
:10502c009040780000c3b30080cf50001e003a00bf
:10503c00c01421009040780000c2b30080cf500013
:10504c0019003a00d01421009040780040c6b300fb
:10505c0080cf500014003a00e014210090407800fa
:10506c00f0c6b30080cf50000f003a00f0142100be
:10507c009040780070c7b30080cf50000a003a000f
:10508c000015210090407800e0c6b30080cf50009e
:10509c0005003a0002002000134e24000040eb00f3
:1050ac002f0b07000a003700a01421009040780055
:1050bc0030c7b30080cf500003003a00100020002e
:1050cc003081880002003700709b2800d60507004d
:1050dc005670ef0001003700000000001011800036
:1050ec00610060000000e0003cfd3a000168a9008e
:1050fc000080fa004f03be004f02be004f01be00fd
:10510c004f00be003600f900004006003600f800e3
:10511c00809fbe00829fbe00849fbe00869fbe0003
:10512c001c00fa0090118000620060000000e0009a
:10513c00380532003222a9003705370071052100ed
:10514c009140780030c6b30080cf5000010036008b
:10515c005770ef0057d0bf000080fb00b1118000ea
:10516c0081407800e21a21000000410001487800db
:10517c0057d0bf000080fb00e11a210000804000e6
:10518c0010407800ea4f500003003a00e09b2800e2
:10519c00c90507001300370055d0bf00e14f500080
:1051ac0007003a0057d0bf000080fb00e11a210035
:1051bc0000804000104078006505070009003700aa
:1051cc0010c0b30055f0b70057d0bf000080fb00f3
:1051dc00e11a210000804000104078000000fb0024
:1051ec00a011880057d0bf000080fb00e11a2100fd
:1051fc000080400010407800ea4f500001053a0052
:10520c00d0972800ac050700e01a210090407800e8
:10521c0030c7b30080cf50001a003a00f01a2100ba
:10522c009040780040c7b30080cf500015003a0082
:10523c00001b21009040780010c6b30080cf5000b6
:10524c0010003a00101b21009040780020c7b300da
:10525c0080cf50000b003a00201b210090407800ba
:10526c0040c7b30080cf500006003a00301b21002d
:10527c0010407800ea4f500002003a007e70ef00b8
:10528c00de043700e01a21009040780040c7b300dc
:10529c0080cf500030003a00f01a21001040780006
:1052ac00ea4f50002c003a00207380006800600028
:1052bc0000f0a7000000ea000000e9004f00de004b
:1052cc00004078000080fb00610060004300dd00be
:1052dc00217380000130a100010070002073880050
:1052ec00a07280007000600000f0a7000000ea00cf
:1052fc000000e9004f00de00004078000080fb0059
:10530c00610060004400dd00a17280000140a1003a
:10531c0001007000a0728800a172800000022000c1
:10532c000080600000f0a7000000ea000000e90027
:10533c004f00de00004078000080fb006100600040
:10534c004500dd00a17280000150a1000100700039
:10535c00a0728800a9043700e01a21009040780060
:10536c0030c7b30080cf500016003a00f01a21006d
:10537c009040780040c7b30080cf500011003a0035
:10538c00001b210090407800f0c6b30080cf500085
:10539c000c003a00101b21009040780000c7b300ad
:1053ac0080cf500007003a00201b210010407800ed
:1053bc00ea4f500003003a0010c0b3007ef0b70073
:1053cc008e043700e01a21009040780030c7b300fb
:1053dc0080cf500007003a00f01a210010407800ee
:1053ec00ea4f500003003a0010c0b3007ef0b70043
:1053fc0082043700e01a21009040780030c7b300d7
:10540c0080cf50003d003a00f01a21009040780007
:10541c0050c6b30080cf500038003a00001b21006a
:10542c009040780040c7b30080cf500033003a0062
:10543c00101b21009040780000c2b30080cf5000b8
:10544c002e003a00201b21009040780030c7b3009a
:10545c0080cf500069043a00301b21009040780046
:10546c0040c7b30080cf500059043a00401b2100c4
:10547c009040780010c6b30080cf500056043a001c
:10548c00501b21009040780040c7b30080cf5000e3
:10549c0053043a00601b21009040780050c6b300c2
:1054ac0080cf500050043a00701b210090407800cf
:1054bc0000c2b30080cf50004d043a007ed0bf0034
:1054cc000004e0004c043200801b210010407800e6
:1054dc000000fb000003b10030818800109c280004
:1054ec00f50407003081800017050700f20407005f
:1054fc00d0972800f004070040043700e01a210080
:10550c009040780070c6b30080cf500067003a001e
:10551c00f01a21009040780050c6b30080cf5000a4
:10552c0062003a00001b21009040780040c7b30095
:10553c0080cf50005d003a00101b21009040780095
:10554c0000c2b30080cf500058003a00201b21004d
:10555c009040780050c5b30080cf50002e003a0028
:10556c00301b21009040780030c5b30080cf500034
:10557c0029003a00401b21009040780000c2b30083
:10558c0080cf500024003a00501b210010407800be
:10559c008040780000cdb30000c04000005f980050
:1055ac000e5890000004e000030035000e589000e7
:1055bc00e54f500003003400a09c2800be040700f7
:1055cc0014003700f09d2800bb0407000e58900013
:1055dc000000fb00dc040700b7040700309e280025
:1055ec00b50407000e5890000080fb00c200dd00df
:1055fc00a0462100008040001000be0025ed0700f1
:10560c0000007800d0040700ab040700d0972800f6
:10561c00a904070024003700201b210090407800cb
:10562c0030c7b30080cf50001c003a00301b210063
:10563c009040780040c7b30080cf500017003a006c
:10564c00401b21009040780010c6b30080cf500062
:10565c0012003a00501b21009040780040c7b30064
:10566c0080cf50000d003a00601b21009040780064
:10567c0050c6b30080cf500008003a00109c2800a0
:10568c008d04070030818000af0407008a040700f6
