:020000040000fa
:080000000002040000000000f2
:020000040000fa
:040008005212000090
:020000040000fa
:04000c00521200008c
:020000040000fa
:040010005212000088
:020000040000fa
:040014005212000084
:020000040000fa
:040018005212000080
:020000040000fa
:04001c00521200007c
:020000040000fa
:040020005212000078
:020000040000fa
:040024005212000074
:020000040000fa
:040028005212000070
:020000040000fa
:04002c00521200006c
:020000040000fa
:040030005212000068
:020000040000fa
:0400340012050000b1
:020000040000fa
:040038005212000060
:020000040000fa
:04003c00521200005c
:020000040000fa
:040040005212000058
:020000040000fa
:040044005212000054
:020000040000fa
:04004800e20b0000c7
:020000040000fa
:04004c00521200004c
:020000040000fa
:04005000fa020000b0
:020000040000fa
:04005400fa0b0000a3
:020000040000fa
:04005800f2110000a1
:020000040000fa
:04005c00521200003c
:020000040000fa
:040060005212000038
:020000040000fa
:040064005212000034
:020000040000fa
:040068005212000030
:020000040000fa
:04006c00521200002c
:020000040000fa
:040070005212000028
:020000040000fa
:040074008003000005
:020000040000fa
:040078005212000020
:020000040000fa
:04007c00521200001c
:020000040000fa
:040080005212000018
:020000040000fa
:040084005212000014
:020000040000fa
:040088005212000010
:020000040000fa
:04008c00521200000c
:020000040000fa
:040090005212000008
:020000040000fa
:040094005212000004
:020000040000fa
:040098005212000000
:020000040000fa
:04009c0052120000fc
:020000040000fa
:0400a000aa110000a1
:020000040000fa
:0400a4002212000024
:020000040000fa
:0400a80052120000f0
:020000040000fa
:0400ac0052120000ec
:020000040000fa
:0400b00052120000e8
:020000040000fa
:0400b40052120000e4
:020000040000fa
:0400b80052120000e0
:020000040000fa
:0400bc0052120000dc
:020000040000fa
:0400c00052120000d8
:020000040000fa
:0400c40052120000d4
:020000040000fa
:0400c80052120000d0
:020000040000fa
:0400cc0052120000cc
:020000040000fa
:0400d00052120000c8
:020000040000fa
:0400d40052120000c4
:020000040000fa
:0400d80052120000c0
:020000040000fa
:0400dc0052120000bc
:020000040000fa
:0400e00052120000b8
:020000040000fa
:0400e40052120000b4
:020000040000fa
:0400e80052120000b0
:020000040000fa
:0400ec0052120000ac
:020000040000fa
:0400f00052120000a8
:020000040000fa
:0400f40052120000a4
:020000040000fa
:0400f80052120000a0
:020000040000fa
:0400fc00521200009c
:020000040000fa
:040100005212000097
:020000040000fa
:040104005212000093
:020000040000fa
:04010800521200008f
:020000040000fa
:04010c00521200008b
:020000040000fa
:040110005212000087
:020000040000fa
:040114005212000083
:020000040000fa
:04011800521200007f
:020000040000fa
:04011c00521200007b
:020000040000fa
:040120005212000077
:020000040000fa
:040124005212000073
:020000040000fa
:04012800521200006f
:020000040000fa
:04012c00521200006b
:020000040000fa
:040130005212000067
:020000040000fa
:040134005212000063
:020000040000fa
:04013800521200005f
:020000040000fa
:04013c00521200005b
:020000040000fa
:040140005212000057
:020000040000fa
:040144005212000053
:020000040000fa
:04014800521200004f
:020000040000fa
:04014c00521200004b
:020000040000fa
:040150005212000047
:020000040000fa
:040154005212000043
:020000040000fa
:04015800521200003f
:020000040000fa
:04015c00521200003b
:020000040000fa
:040160005212000037
:020000040000fa
:040164005212000033
:020000040000fa
:04016800521200002f
:020000040000fa
:04016c00521200002b
:020000040000fa
:040170005212000027
:020000040000fa
:040174005212000023
:020000040000fa
:04017800521200001f
:020000040000fa
:04017c00521200001b
:020000040000fa
:040180005212000017
:020000040000fa
:040184005212000013
:020000040000fa
:04018800521200000f
:020000040000fa
:04018c00521200000b
:020000040000fa
:040190005212000007
:020000040000fa
:040194005212000003
:020000040000fa
:0401980052120000ff
:020000040000fa
:04019c0052120000fb
:020000040000fa
:0401a00052120000f7
:020000040000fa
:0401a40052120000f3
:020000040000fa
:0401a80052120000ef
:020000040000fa
:0401ac0052120000eb
:020000040000fa
:0401b00052120000e7
:020000040000fa
:0401b40052120000e3
:020000040000fa
:0401b80052120000df
:020000040000fa
:0401bc0052120000db
:020000040000fa
:0401c00052120000d7
:020000040000fa
:0401c40052120000d3
:020000040000fa
:0401c80052120000cf
:020000040000fa
:0401cc0052120000cb
:020000040000fa
:0401d00052120000c7
:020000040000fa
:0401d40052120000c3
:020000040000fa
:0401d80052120000bf
:020000040000fa
:0401dc0052120000bb
:020000040000fa
:0401e00052120000b7
:020000040000fa
:0401e40052120000b3
:020000040000fa
:0401e80052120000af
:020000040000fa
:0401ec0052120000ab
:020000040000fa
:0401f00052120000a7
:020000040000fa
:0401f40052120000a3
:020000040000fa
:0401f800521200009f
:020000040000fa
:0401fc00521200009b
:020000040000fa
:040200005212000096
:020000040000fa
:040204005212000092
:020000040000fa
:04020800521200008e
:020000040000fa
:04020c00521200008a
:020000040000fa
:040210005212000086
:020000040000fa
:040214005212000082
:020000040000fa
:04021800521200007e
:020000040000fa
:04021c00521200007a
:020000040000fa
:040220005212000076
:020000040000fa
:040224005212000072
:020000040000fa
:04022800521200006e
:020000040000fa
:04022c00521200006a
:020000040000fa
:040230005212000066
:020000040000fa
:040234005212000062
:020000040000fa
:04023800521200005e
:020000040000fa
:04023c00521200005a
:020000040000fa
:040240005212000056
:020000040000fa
:040244005212000052
:020000040000fa
:04024800521200004e
:020000040000fa
:04024c00521200004a
:020000040000fa
:040250005212000046
:020000040000fa
:040254005212000042
:020000040000fa
:04025800521200003e
:020000040000fa
:04025c00521200003a
:020000040000fa
:040260005212000036
:020000040000fa
:040264005212000032
:020000040000fa
:04026800521200002e
:020000040000fa
:04026c00521200002a
:020000040000fa
:040270005212000026
:020000040000fa
:040274005212000022
:020000040000fa
:04027800521200001e
:020000040000fa
:04027c00521200001a
:020000040000fa
:040280005212000016
:020000040000fa
:100400004f3a21000eff27000e0188000000000077
:10041000000020000000e000020032000001200087
:100420002002880014000700200807000000e000f8
:1004300003003a00002323000100200002003700df
:100440000000200001002000810f70000100320038
:100450000f000700000020000000e0000200320052
:1004600000000200000000009619020000000000d9
:100470000040da000000fe00800c20000000e000d8
:1004800002003200002020009001880000000600d9
:10049000a1028800800478000000eb001f003700f4
:1004a000e284440054a0b4009905ba00e2844400f8
:1004b00054a0b4009906ba00e284440054a0b400e9
:1004c0000006eb00476fde00fd07b200ae018800ba
:1004d000636ce10003003a000ad801000000eb0061
:1004e0000e003700606ce10008003a00004deb00a0
:1004f0000a05e800020039003420ec000af0a000f0
:100500008b05e900f9ff3e00040037006168e10057
:10051000010032000086eb000b00070019c7ba008b
:100520000e04e0001905ba0003003a000a00e000da
:10053000dbff3a0000000600fe07b200ae028800b2
:100540008a047800f5ff37000cd0a300e20f4d00bd
:100550001c00390089027800354dba000a05e80010
:10056000020039003420ec000af0a0008b05e900fd
:100570000f003200254dba000a05e80002003900dc
:100580003420ec000af0a0008b05e90008003200de
:100590000c00e0000600320015cdba000a05e800a4
:1005a000020039003420ec000af0a0008b05e900bd
:1005b0008984e80054a0b4000b00e000e2ff3a0098
:1005c000000006009902ba00055d78008b05e9007d
:1005d000f7ff3200c82ade00055d78008b05e900d0
:1005e000f3ff32000c00e000f1ff320019ddba0029
:1005f000eeff3700809fbe000200fa00401280002c
:10060000004f7800b0cab3009e40780080cf500001
:1006100003003a0040c5b30068f0b700310037006e
:1006200068d0bf000080fb0011062000810f500041
:100630002600320011062000810f50000a003c0005
:1006400071042000810f50001d0032004105200080
:10065000810f50000e00320001022000810f500077
:10066000140032001f00370081062000810f500067
:100670000a003200d1062000810f5000160032001f
:1006800051062000810f500007003200150037008e
:1006900080c6b30068f0b7001200370050c6b30040
:1006a00068f0b7000f00370000c2b30068f0b70071
:1006b0000c00370070c4b30068f0b70009003700c1
:1006c00010c6b30068f0b70006003700d0c6b3000c
:1006d00068f0b7000300370050c6b30068f0b700f9
:1006e0000000000068d0bf000080fb0040128800be
:1006f0000148a9000080fa004f00be00004006003b
:100700003600f800809fbe00829fbe00849fbe001e
:10071000869fbe00881f78003200f8003400f80081
:1007200010002000a0018800002020009001880017
:10073000000000000400fa000268a9000000eb00bd
:10074000000f7800918280000010200080806000ff
:10075000107080004800de00614060000080fb00f7
:10076000808f50000500320030002000000f78001c
:100770000040eb00204798005d003700c1828000f8
:100780000000240080806000907180004e00de0038
:10079000614060000080fb00808f50000500320047
:1007a00030002000000f780010c0b30020479800f0
:1007b0004f003700d182800000002400808060005c
:1007c000107280004e00de00614060000080fb007f
:1007d000808f50000500320030002000000f7800ac
:1007e00020c0b3002047980041003700d18280002c
:1007f0000000210080806000107280004c00de004c
:10080000614060000080fb00808f500005003200d6
:1008100030002000000f780030c0b300204798005f
:1008200033003700e18280000000220080806000f9
:10083000907280004d00de00614060000080fb008f
:10084000808f50000500320030002000000f78003b
:1008500040c0b3002047980025003700b1828000d7
:100860000080200080806000107180004b00de005e
:10087000614060000080fb00808f50000500320066
:1008800030002000000f780050c0b30020479800cf
:1008900017003700f1828000000021008080600096
:1008a000107380004c00de00614060000080fb009f
:1008b000808f50000300320010002000000f7800ed
:1008c0000b003700f1828000000022008080600071
:1008d000107380004d00de00614060000080fb006e
:1008e000808f50000200320020002000000f7800ae
:1008f0001e007800e20f50002d003200e30f500080
:100900002d003a002e4090000080fb00613821004d
:1009100000804000104078000004e0000f0032002a
:100920002e4090000084fb00a00880008000eb00b7
:1009300043080700c241dd00c238210002814100a6
:100940000089be002e4090000080fb00613821002d
:10095000008040008040eb00014878002e4090006d
:100960000080fb000138210000804000104078002a
:100970000004e000120032001421ef002e4090002d
:100980000080fb0001382100008040008040eb0027
:10099000014878002e4090000080fb006138210063
:1009a0000080400011c0b300014878000500370006
:1009b00000000000030037000000000001003700c5
:1009c000000000001070800090828800907080000d
:1009d000a082880010718000b08288009071800031
:1009e000c082880010728000d082880090728000df
:1009f000e082880010738000f08288000080fa0096
:100a00003400f9003200f9004f0478004f03be00b3
:100a10004f02be004f01be004f00be003600f9007d
:100a2000004006003600f800809fbe00829fbe0096
:100a3000849fbe00869fbe00889fbe008a9fbe0026
:100a40003e00fa000068a900310e8000710f980086
:100a5000322e80000217980000002800300e880017
:100a600000002800302e88007e0890008000eb00f7
:100a7000f307070002002000037024008c06070023
:100a800010179800211798000e1090008000eb00be
:100a9000eb07070002002000037024008406070013
:100aa0003017980041179800d0818000e1818000c4
:100ab0001e119000ae1190007e060700d0818800c4
:100ac000e1818800f0818000018280003e11900069
:100ad000ce11900077060700f0818800018288001f
:100ae0001e109000ae1090000001be0071060700bd
:100af000b2fd20009304240026080700d2cc2c006d
:100b0000431c2400230807001017980021179800a1
:100b100002002000035824001e109000ae10900028
:100b20004507070010179800211798003e10900005
:100b3000ce1090000001be005e060700b2fd20004e
:100b40009304240013080700d2cc2c00431c24007b
:100b50001008070030179800411798000200200085
:100b6000035824003e109000ce109000320707007a
:100b700030179800411798001e119000ae11900098
:100b80003e109000ce1090004906070002002000a1
:100b900063392400280707000002be00508080004f
:100ba000618080000001be000400be004106070015
:100bb00050808800618088003e119000ce11900026
:100bc0001e109000ae1090003a06070002002000b0
:100bd00003002400180707005017980061179800b9
:100be0005080800061808000110707005e11900036
:100bf000ee119000e70707000002be0010808000a1
:100c0000218080000001be000400be00290607000c
:100c100010808800218088005080800061808000e2
:100c2000790807005e119000ee119000d9070700c7
:100c30000002be0030808000418080000001be00c4
:100c40000400be001b060700308088004180880039
:100c500050828000618280005e119000ee11900051
:100c6000140607005082880061828800708180002d
:100c70000000e8007081880070818000e90f50005a
:100c80007d0236002e30ef006000b800701798002b
:100c9000011f98006000b800101f9800211f9800e5
:100ca000d0818000e181800002002000832c24009c
:100cb000b80707000001be00fe050700b2fd2000d6
:100cc00093042400b3070700020020000358240007
:100cd000d906070070179800011f9800f081800066
:100ce0000182800002002000832c2400a907070055
:100cf0000001be00ef050700b2fd200093042400b0
:100d0000a40707000200200003582400ca060700b9
:100d1000101f9800211f98006000b800d081880043
:100d2000e18188006000b800f081880001828800bd
:100d30007480800085808000108080002180800089
:100d40000001be000400be00d90507000004be007b
:100d500094808000a58080003080800041808000e9
:100d60000001be000400be00d10507000801be005e
:100d70002d060700301f9800411f9800d480800086
:100d8000e580800010808000218080000001be008e
:100d90000400be00c60507000004be00f480800009
:100da0000581800030808000418080000001be000d
:100db0000400be00be0507000801be001a060700b9
:100dc000008fbe0006003700b2fd2000930c240007
:100dd0001e0078009e009000b6050700008fbe0040
:100de00050808000618080000001be001e007800fd
:100df0009e009000ae05070018c0b300b2fd2000b1
:100e000093042400ce0607000000e0000100350036
:100e10000044eb000804e000ebff3a000600370056
:100e2000b2fd2000930c24001e0078009e0090006c
:100e30009f050700008fbe00508080006180800009
:100e40000001be001e0078009e009000980507007b
:100e500018c0b300b2fd200093042400ba060700b6
:100e60000000e00001003c000044eb000804e0004a
:100e7000ebff3a001480800025808000d080800045
:100e8000e18080000001be000400be00880507006c
:100e90000004be001480800025808000d080800087
:100ea000e18080000001be000400be008005070054
:100eb0000001be000800be00360707000004be00a7
:100ec0003480800045808000f080800001818000b7
:100ed0000001be000400be00750507000005be004d
:100ee0003480800045808000f08080000181800097
:100ef0000001be000400be006d0507000001be0039
:100f00000a00be00230707000001be000800be0063
:100f100068050700be070700501f9800611f980072
:100f20001480800025808000708080008180800097
:100f30000001be000400be005d0507000004be0005
:100f40001480800025808000708080008180800077
:100f50000001be000400be00550507000001be00f0
:100f60000800be000b0707000004be0034808000ac
:100f70004580800090808000a18080000001be003c
:100f80000400be004a0507000005be003480800052
:100f90004580800090808000a18080000001be001c
:100fa0000400be00420507000001be000a00be00aa
:100fb000f80607000001be000800be003d0507005e
:100fc00093070700200798003107980050808000a1
:100fd000618080003e199000ce1990003405070012
:100fe000400798005107980007003700b2fd200025
:100ff000930c24004e009000de0090002c050700aa
:10100000400798005107980018c0b300b2fd2000b7
:10101000930424004e009000de0090004a06070072
:101020000000e00001003c000044eb000804e00088
:10103000eeff3a0007003700b2fd2000930c2400b9
:101040004e009000de0090001a050700400798004f
:101050005107980018c0b300b2fd200093042c0083
:101060004e009000de009000350607000000e00012
:10107000010035000044eb000804e000eeff3a00f8
:1010800018c0b300b2fd200093fc2b004e0090006e
:10109000de0090002c0607000000e00001003c008c
:1010a0000044eb000804e0001000320018c0b30058
:1010b000b2fd200093fc23004e009000de00900063
:1010c0001f0607000000e000010035000044eb00af
:1010d0000804e000050032002e009000be009000e1
:1010e00001f0a200200798003107980018c0b30053
:1010f00002002000832424005e189000ee18900067
:10110000110607000000e00001003c000044eb0075
:101110000804e0000b003a0018c0b30002002000f1
:1011200083242c005e189000ee189000040607003f
:101130000000e000010035000044eb000804e0007e
:10114000050032001e0178009e019000403521000c
:101150007e10070005003700b0808000c18080004d
:101160000001be0040352100781007002e019000dc
:10117000be019000803221008a10070060079800ad
:101180007107980050808000618080000001be00df
:101190004035210083100700000f9800110f9800c0
:1011a000009a8000119a800018c0b300020020004d
:1011b00003f82300e20507000000e000010035000d
:1011c0000044eb000804e0000e003200009a8000aa
:1011d000119a800018c0b3000200200003f82b0011
:1011e000d90507000000e00001003c000044eb00ce
:1011f0000804e000030032006000b80060079800b7
:1012000071079800609b8000719b800018c0b3003c
:10121000a2702d0033c22300c90507000000e000c2
:10122000010035000044eb000804e0000e0032002d
:10123000609b8000719b800018c0b300a2702d00dd
:1012400033c22b00c00507000000e00001003c0095
:101250000044eb000804e000030032006000b80026
:10126000000f9800110f98000e0990009e09900041
:101270006e009000fe0090008d0407000001be008b
:10128000002d2100311007000e0990009e099000ea
:101290006e009000fe009000860407000001be0072
:1012a000c02f2100291007007e1190008e19900098
:1012b000002d21003b100700200f9800310f9800ef
:1012c0001e199000ae199000c02f210035100700a4
:1012d000400f9800510f9800009a8000119a8000ea
:1012e00018c0b3000200200003f823009405070093
:1012f0000000e000010035000044eb000804e000bd
:101300005c003200009a8000119a800018c0b3007f
:101310000200200003f82b008b0507000000e0000e
:1013200001003c000044eb000804e00051003200e2
:10133000609b8000719b800018c0b300a2702d00dc
:1013400033c223007e0507000000e00001003500e5
:101350000044eb000804e00046003200609b80007f
:10136000719b800018c0b300a2702d0033c22b0007
:10137000750507000000e00001003c000044eb00a0
:101380000804e0003b00320018c0b300d214220071
:1013900003e523007e1090008e189000680507007a
:1013a0000000e000010035000044eb000804e0000c
:1013b0003000320018c0b300d214220003e52b0025
:1013c0007e1090008e1890005f0507000000e0007e
:1013d00001003c000044eb000804e000250032005e
:1013e00018c0b300d214220003e523001e18900099
:1013f000ae189000520507000000e0000100350023
:101400000044eb000804e0001a00320018c0b300ea
:10141000d214220003e52b001e189000ae18900095
:10142000490507000000e00001003c000044eb001b
:101430000804e0000f0032006000b800200f9800a0
:10144000310f98006000b800400f9800510f9800cd
:101450006000b80080978800919788006000b8000d
:10146000809788009197880010c0b3002cf0b700d7
:10147000010037002c70ef002dd0bf000004e00009
:1014800016003200108080002180800002002000c1
:1014900003122400bf0507002d0507000000780097
:1014a0008d110700441107002099290042110700ff
:1014b00070808000818080000200200003122400e0
:1014c000b40507002205070000007800821107001c
:1014d000391107004099290037110700b0818000b9
:1014e000c18180000001be004e089000de0890001f
:1014f000ef03070018c0b30002002400c3612400fa
:10150000110507000000e00001003c000044eb0072
:101510000804e00008003200b0818000c181800032
:1015200002002400c3612400e2030700400f98007a
:10153000510f980016003700b0818000c1818000f3
:101540000001be004e089000de089000d80307009e
:1015500018c0b30002002400c3612c00f804070087
:101560000000e000010035000044eb000804e0004a
:1015700007003200b0818000c18180000200240099
:10158000c3612400ca030700400f9800510f980060
:1015900090818000a18180000001be002e08900093
:1015a000be089000c203070018c0b3000200240068
:1015b000c3612400e40407000000e00001003c00d7
:1015c0000044eb000804e000080032009081800035
:1015d000a181800002002400c3612400b50307003c
:1015e000200f9800310f980016003700908180007e
:1015f000a18180000001be002e089000be0890006e
:10160000ab03070018c0b30002002400c3612c0024
:10161000cb0407000000e000010035000044eb00af
:101620000804e0000700320090818000a181800062
:1016300002002400c36124009d030700200f9800ce
:10164000310f98002e099000be0990009281880009
:10165000a38188004e099000de099000b2818800c5
:10166000c38188002e099000be0990004e089000aa
:10167000de089000b50d07004fd0bf000040e80025
:101680004ff0b7004fd0bf00f34f5000440036007a
:101690004f70ef004ed0bf000040e8004ef0b700a2
:1016a0004ed0bf00e54f5000010036004e70ef00f5
:1016b0004ed0bf000080fb00e20f5000120032004d
:1016c000e20f500005003c000000e0000a0032007c
:1016d000e10f50000a00320013003700e40f500001
:1016e0000d003200e40f500009003500e50f5000f6
:1016f0000b0032000c003700148ea8000a003700df
:1017000035eea8000800370045eea80006003700b7
:1017100045aea80004003700558ea800020037002f
:10172000656ea800000000000040eb00405f9800dc
:101730000040eb00405f98000f0037004e589000cb
:101740000080fb0001382100008040008040eb0059
:10175000014878004e5890000080fb00613821005d
:10176000008040008040eb00014878004e58900017
:101770000040e800405f98004e589000e54f500050
:10178000eeff36004ed0bf000080fb000138210084
:101790000080400011c0b3000148780013e1a800a8
:1017a0000080fa004f05be004f04be004f03be008c
:1017b0004f02be004f01be004f00be003600f900d0
:1017c000004006000000fa000108a90013e1a9008a
:1017d0000a21ef00148ea90035eea90045eea900fc
:1017e00045aea900558ea900656ea9000080fa00db
:1017f000004006003600f800809fbe00829fbe00b9
:10180000849fbe00869fbe000000fa001011800079
:10181000620060000000e000c10232002222a90044
:10182000c0023700610621009140780030c6b30045
:1018300080cf5000010036006670ef0066d0bf0018
:101840000080fb00311180008140780042132100ac
:10185000000041000148780066d0bf000040e80069
:1018600066f0b70066d0bf000080fb000000e90012
:10187000411321000080400010407800ea4f5000e2
:10188000a8023a00401321009040780030c7b3000e
:1018900080cf500019003a0050132100904078008a
:1018a00050c6b30080cf500014003a0060132100ee
:1018b0009040780040c7b30080cf50000f003a003e
:1018c000207380006800600000f0a7000000ea00bc
:1018d0000000e9004f00de00004078000080fb00bf
:1018e000610060004300dd00217380000130a10031
:1018f0000100700020738800870237004013210028
:101900009040780000c7b30080cf50001c003a0020
:10191000501321009040780010c6b30080cf5000d3
:1019200017003a006013210090407800b0c2b30065
:1019300080cf500012003a00a09a8000b19a800037
:101940000200200003f82300da020700a09a8800b2
:10195000b19a8800a094290017100700a09a80006f
:10196000b19a8000fa030700000078005a100700bf
:1019700011100700109529000f10070066023700ac
:10198000401321009040780000c7b30080cf500082
:101990001f003a00501321009040780040c6b30069
:1019a00080cf50001a003a00601321009040780068
:1019b000b0c2b30080cf500015003a0040998000bb
:1019c00051998000f226210033a82300b9020700b4
:1019d000409988005199880030952900f60f07003a
:1019e000409980005199800002002000a347240004
:1019f00068040700d60307000000780036100700cf
:101a0000ed0f070010952900eb0f07004202370089
:101a1000401321009040780000c7b30080cf5000f1
:101a20001c003a00501321009040780010c6b3000b
:101a300080cf500017003a006013210090407800da
:101a4000d0c2b30080cf500012003a00a09a8000ac
:101a5000b19a80000200200003f8230094020700de
:101a6000a09a8800b19a8800a0942900d20f07009c
:101a7000a09a8000b19a8000b503070000007800aa
:101a800015100700cc0f070010952900ca0f07009a
:101a900021023700401321009040780000c7b300b6
:101aa00080cf50001f003a00501321009040780072
:101ab00040c6b30080cf50001a003a0060132100e6
:101ac00090407800d0c2b30080cf500015003a009b
:101ad0004099800051998000f226210033a823000c
:101ae00073020700409988005199880030952900b9
:101af000b10f07004099800051998000020020003a
:101b0000a347240023040700910307000000780086
:101b1000f10f0700a80f070010952900a60f070076
:101b2000fd013700401321009040780040c6b3000b
:101b300080cf50001f003a005013210090407800e1
:101b400010c6b30080cf50001a003a006013210085
:101b500090407800b0c2b30080cf500015003a002a
:101b6000e09a8000f19a8000d2cc2c00c3dc2300e4
:101b700050020700e09a8800f19a8800a095290099
:101b80008d0f0700e09a8000f19a8000020020008b
:101b900003122400ff0307006d0307000000780014
:101ba000cd0f0700840f070010952900820f070052
:101bb000d9013700401321009040780040c6b3009f
:101bc00080cf50001f003a00501321009040780051
:101bd00040c6b30080cf50001a003a0060132100c5
:101be00090407800b0c2b30080cf500015003a009a
:101bf000809980009199800072712b00138d2300d1
:101c00002c0207008099880091998800109629007d
:101c1000690f0700809980009199800002002400dc
:101c2000c3612400db0307004903070000007800bc
:101c3000a90f0700600f0700109529005e0f07002d
:101c4000b5013700401321009040780040c6b30032
:101c500080cf50001f003a005013210090407800c0
:101c600010c6b30080cf50001a003a006013210064
:101c700090407800d0c2b30080cf500015003a00e9
:101c8000e09a8000f19a8000d2cc2c00c3dc2300c3
:101c900007020700e09a8800f19a8800a0952900c1
:101ca000450f0700e09a8000f19a800002002000b2
:101cb00003122400b7030700250307000000780083
:101cc000850f07003c0f0700109529003a0f070009
:101cd00091013700401321009040780040c6b300c6
:101ce00080cf50001f003a00501321009040780030
:101cf00040c6b30080cf50001a003a0060132100a4
:101d000090407800d0c2b30080cf500015003a0058
:101d1000809980009199800072712b00138d2300af
:101d2000e3010700809988009199880010962900a6
:101d3000210f070080998000919980000200240003
:101d4000c36124009303070001030700000078002b
:101d5000610f0700180f070010952900160f0700e4
:101d60006d013700401321009040780000c7b30098
:101d700080cf50001a003a005013210090407800a4
:101d8000b0c2b30080cf500015003a0080968000aa
:101d900091968000a2702d0033c22300c501070078
:101da000809688009196880080962900020f07008f
:101db000809680009196800002002000832c2400f1
:101dc00074030700e202070000007800420f0700da
:101dd000f90e070010952900f70e07004e01370095
:101de000401321009040780000c7b30080cf50001e
:101df0001a003a005013210090407800d0c2b3007e
:101e000080cf500015003a008096800091968000a7
:101e1000a2702d0033c22300a50107008096880020
:101e20009196880080962900e30e07008096800036
:101e30009196800002002000832c240055030700a7
:101e4000c302070000007800230f0700da0e070026
:101e500010952900d80e07002f01370040132100ec
:101e60009040780020c7b30080cf50001f003a0098
:101e70005013210090407800b0c2b30080cf5000d2
:101e80001a003a00217380000000240000806000e6
:101e900000f0a7000000ea000000e9004f00de00ab
:101ea000004078000080fb00610060004e00dd0013
:101eb0002173800001e0a100010070002073880000
:101ec000306380002003b00030638800d096290082
:101ed000b90e070030638000ff0e0700b60e070042
:101ee00010952900b40e07000b01370040132100a4
:101ef0009040780020c7b30080cf50001f003a0008
:101f00005013210090407800d0c2b30080cf500021
:101f10001a003a0021738000000024000080600055
:101f200000f0a7000000ea000000e9004f00de001a
:101f3000004078000080fb00610060004e00dd0082
:101f40002173800001e0a10001007000207388006f
:101f5000306380002003b10030638800d0962900f0
:101f6000950e070030638000db0e0700920e07001d
:101f700010952900900e0700e7003700401321005c
:101f800090407800c0c6b30080cf50001f003a00d8
:101f90005013210090407800b0c2b30080cf5000b1
:101fa0001a003a00217380000000240000806000c5
:101fb00000f0a7000000ea000000e9004f00de008a
:101fc000004078000080fb00610060004e00dd00f2
:101fd0002173800001e0a1000100700020738800df
:101fe000706380002003b000706388002097290090
:101ff000710e070070638000b70e07006e0e0700b9
:10200000109529006c0e0700c30037004013210013
:1020100090407800c0c6b30080cf50001f003a0047
:102020005013210090407800d0c2b30080cf500000
:102030001a003a0021738000000024000080600034
:1020400000f0a7000000ea000000e9004f00de00f9
:10205000004078000080fb00610060004e00dd0061
:102060002173800001e0a10001007000207388004e
:10207000706380002003b1007063880020972900fe
:102080004d0e070070638000930e07004a0e070094
:1020900010952900480e07009f00370040132100cb
:1020a0009040780030c6b30080cf500022003a0044
:1020b000501321009040780030c7b30080cf50000b
:1020c0001d003a00601321009040780020c7b30043
:1020d00080cf500018003a0020738000610060003b
:1020e00000f0a7000000ea000000e9004f00de0059
:1020f000004078000080fb006100600021738000d8
:102100000100a10001007000207388007097290071
:10211000290e0700207380000040780061406000b5
:102120000080fb006c0e0700230e070010952900ad
:10213000210e0700780037004013210090407800fe
:1021400030c6b30080cf500023003a005013210066
:102150009040780030c7b30080cf50001e003a0096
:102160006013210090407800c0c6b30080cf5000bb
:1021700019003a00207380006200600000f0a700a0
:102180000000ea000000e9004f00de000040780097
:102190000080fb00610060000000400021738000af
:1021a0000110a10001007000207388001098290020
:1021b000010e0700207380000000d1006140600024
:1021c0000080fb00440e0700fb0d0700109529005e
:1021d000f90d0700500037004013210090407800af
:1021e00030c5b30080cf500019003a0050132100d1
:1021f0009040780000c3b30080cf500014003a0034
:10220000601321009040780000c2b30080cf5000de
:102210000f003a00701321009040780050c7b300bf
:1022200080cf50000a003a008013210090407800cf
:1022300000c7b30080cf500005003a00020028001c
:10224000235224000040eb00a209070032003700af
:10225000401321009040780030c5b30080cf50007b
:1022600023003a00501321009040780000c3b300cf
:1022700080cf50001e003a0060132100904078008b
:1022800000c2b30080cf500019003a007013210043
:102290009040780040c6b30080cf500014003a0050
:1022a0008013210090407800f0c6b30080cf50002a
:1022b0000f003a00901321009040780070c7b300df
:1022c00080cf50000a003a00a0132100904078000f
:1022d000e0c6b30080cf500005003a0002002000a5
:1022e000134e24000040eb007a0907000a00370073
:1022f000401321009040780030c7b30080cf5000d9
:1023000003003a00100020003081880002003700ee
:10231000b0982900a80d07006670ef000100370093
:102320000000000010118000610060000000e0006b
:102330003cfd3a000168a9000080fa004f03be008e
:102340004f02be004f01be004f00be003600f90034
:1023500000400600809fbe000200fa00901180003d
:10236000620060000000e000150032003222a90087
:1023700014003700207380006800600000f0a700a0
:102380000000ea000000e9004f00de000040780095
:102390000080fb00610060004300dd0021738000cd
:1023a0000130a1000100700020738800b01180008e
:1023b000004f78001e00fb00a011880001003700cc
:1023c0000000000090118000610060000000e0004b
:1023d000e8ff3a0003c8a9000080fa004f00be00e1
:1023e000004006003600f800809fbe00829fbe00bd
:1023f000849fbe00869fbe000000fa000188a900ed
:10240000010621009140780061d0bf0080cf5000cc
:1024100004003200440d07000000fb00201188007a
:10242000010037006470ef000080fa004f03be0027
:102430004f02be004f01be004f00be003600f90043
:10244000004006003600f800809fbe00829fbe005c
:10245000849fbe00869fbe000000fa0003e8a9002a
:10246000210621009140780063d0bf0080cf50004a
:10247000040032003e0d07000000fb00a0118800a0
:10248000010037006570ef000080fa004f03be00c6
:102490004f02be004f01be004f00be003600f900e3
:1024a000004006000040da000000fe0000000500c9
:1024b00003f0a200889fbe008a9fbe008c1f780098
:1024c0009c010700a30133006450e1004f0032007b
:1024d0006420e1005200320003826c0007003b00e0
:1024e0000905d0000306d000820f54000c065d00e1
:1024f00002003900020032008901780003067800ea
:102500008582550004003d000003fd008103fd00ad
:102510008502ea008b854200840f720002003b00b6
:1025200060001000e08018006011b8000005eb00aa
:102530007a28e1000a00390006007800c75ddd0056
:10254000f707b200878075002d0037008281710087
:102550000a017800610560008180d1000080d3000d
:102560008502e900f9ff3b0006044000878448002b
:1025700002003b0060041400e0841c000988a300f2
:10258000070032008a81710082817100610164005c
:102590008904d1000884d3008b05e80017003700b8
:1025a0000978a30013003a000b00e0001300340088
:1025b0008b05e9000804440089844c000a44740037
:1025c0000978a3000d003a000b00e000070034007a
:1025d0008b05e9000804440089844c0001003a009e
:1025e0000b0020000978a300f7ff32000001eb0088
:1025f00002003700828171000a0178001201070091
:102600000cf0a70001f0a0005b0137006420e1009e
:1026100002003a00838f6c005b0133000801be00aa
:102620000200be0054013700889fbe008a9fbe0092
:102630008c1f78003f0107001002200002003b00c1
:1026400050838800430137008a0062006408e1007b
:1026500002003a00508388004b0137006108e10016
:10266000fcff32000800be0003047800720007007f
:1026700001f0a1000900070008f0a60004003700df
:102680000001be0091042400b0fd200088ff070077
:1026900009f0a70001f0a20037013700889fbe00b3
:1026a0008a9fbe008c9fbe000004be000c01070084
:1026b0000800be00890678006420e10008003900a7
:1026c000040032000160a000120220005283880042
:1026d0005300370091fc2300b0fd20004e0037006e
:1026e0000006eb0009f0a10003f82300020020001f
:1026f0000800be00920007000600340001f8230025
:10270000000020000801be004b0007000004be00ce
:102710002c0020000800be0093e82300320a2300aa
:1027200087000700120034000801be00d1fd23001d
:10273000703d2b005fff07000005be00b3f32300d0
:10274000f27a26000800be001201070003f82300f9
:102750000200200056ff07000801be0055ff0700d9
:102760000a01be00340007000004be000c06e800a9
:102770000800be0001f0a100020020000398230021
:102780006f0007000800be00160035000801be00fb
:10279000000107000005be0032cd2c0043fb2300e2
:1027a00044ff0700809fbe001269280003d52b005c
:1027b0000a00be00f7000700620f210013ef2b0094
:1027c0003cff07000a01be00f20007004f01be00f7
:1027d000190007000801be00ee0007000801be0056
:1027e00034ff07000c00e0000b0032000c10a700c3
:1027f00001f0a200b2fd200093fc23006260e10022
:102800000400320022a9200063f023000c10a7006e
:1028100063f8230027ff07000df0a70001f0a200d6
:102820004f06be004f05be004f04be00000006006c
:102830000081eb000b013700889fbe008a9fbe001d
:102840008c1f7800bb000700c200330003866c00b9
:102850006450e1002e0032006420e10033003200b9
:102860006150e1002f0032006120e10031003200b0
:1028700085855500eb07b000090020000804200002
:10288000050037000804440089844c000a00310028
:102890000603430087834b000001530081815b00e6
:1028a000f8ff33000203be000800a0000804440043
:1028b00089844c00f6ff3900c639dd0083017300be
:1028c00001003200130020008904d1000884d300e5
:1028d0000998a300050032000800a7000300a0002b
:1028e0008904d1000884d3008b05e8008904d10055
:1028f0000884d3000001eb000281d20052000700df
:1029000001f0a1000cf0a70001f0a0009a00370030
:102910006420e1009c0032000801be000200be00fd
:10292000f7ff37006120e100970032006000b80037
:10293000f3ff37000000200001f82700f0ff370008
:102940001400200067013700f4ff2f0065013700f5
:102950000001be00620007000470a70003f0a100a0
:102960006509b100160032000d0035006828e1004d
:1029700006003500f0ff2f00f1ff27000300e00004
:1029800013003b000100280000000500000040008b
:10299000818048008502e900fcff3a00080037000a
:1029a000f88f420002003c008000eb0000000500b0
:1029b0008100d1000080d3008502e800fcff3a00ce
:1029c0000300e00002003b0060001000e0801800ff
:1029d000000006000001be00410007000470a700cf
:1029e00003f0a10003f8a30013003a006509b10049
:1029f00010003200090035006928e10002003500ae
:102a0000010028000000050000004000818048000f
:102a10008502e900fcff3a0000000600f88f420042
:102a2000050035008100d1000080d3008502e80058
:102a3000fcff3a00000006008000eb0000000500eb
:102a40006011b80045013700810020006180550009
:102a50000b003d000b00200061fe2f000100e10093
:102a60001d00340082817100610164008904d1007d
:102a70000884d3000000e800faff3a00710020004b
:102a80006100640003007000020060000900320071
:102a900061044400e0844c000988a5000500320070
:102aa0008b05e8006808e10002003a008904d100c3
:102ab0000884d300f20f20000258e10005003d0019
:102ac000c75ddd00f907b200898075000800780055
:102ad000000006000bf827008b00780000000500be
:102ae000c70ade00f107b200f50fb200080032009d
:102af000e1cf4200020032000170a0002400050076
:102b0000810f700001003200040805004400050038
:102b1000810f700002003a00140005008502e900f0
:102b20000000400081c04800fcff3b000170a00095
:102b3000240005000004be00e9ff07000003be00fa
:102b40000405be000200be00e5ff0700844f7500cb
:102b5000000006000200be006450e10005003600df
:102b60006420e100020036000968a30001003a0079
:102b70000800be000160a0004f0678004f05be00af
:102b80004f04be0000000600f0ff2f00f1ff2700f9
:102b9000f9ff3700889fbe008a9fbe008c1f780017
:102ba000e4ff0700ebff330003866c006450e10094
:102bb000240032006420e100270032006150e1006f
:102bc000220032006120e100210032008b854200aa
:102bd000eb07b1000134b800003ab8000804420025
:102be00089844a00013ab8000030b800888040006b
:102bf00009014a00040033000000400081804800c1
:102c0000020149008b05e900c909dd00830170005c
:102c10000100320013002000c814de004814dd005b
:102c20004709de001200b200c808de000884700008
:102c300085ff070001f0a1000cf0a70001f0a00043
:102c4000cdff37006120e100cfff32000801be0058
:102c50000200be00f7ff37006150e100fcff3a00c0
:102c6000c9ff3700889fbe008a9fbe008c9fbe00b0
:102c7000820578000004be0099ff07000800be002e
:102c80006420e1000700390002003a00f1ff27004c
:102c9000f0ff2f000160a000120220005283880084
:102ca000550037006120e10003003a000b00a70047
:102cb00001f823005000370001f0a10002002100bc
:102cc000936424001eff07000800be0004003500c6
:102cd000b2fd2000930c2400cf0007000004be00ca
:102ce0000005eb000b00a6004f0dde0001f0a10077
:102cf0000004be0032982f0023ea2300a5ff07003e
:102d00000001eb0003f023000b00a70003f82300f1
:102d1000e8fd07000eff07000000a7000a00a20060
:102d20008b0007000b00e0000300320002002000cf
:102d300003f02300defd070001f0a2000006be0044
:102d4000020020009304240092ff07000801be0047
:102d5000d8fd0700809fbe000c00be0022a22a0002
:102d6000d3a723008bff07004f01be00d1fd070052
:102d70000004be0001f0a10002002000039823001f
:102d8000effe07000800be00190035000001be007c
:102d900080ff07000006be00b2c52900e3622300e1
:102da0007cff070022222b00f3942b00c1fd0700bb
:102db0000c01be0077ff0700e273280083c02300e8
:102dc000bcfd07000c01be0072ff070042aa2a00ea
:102dd000a3e22b00b7fd07000c01be006dff07004a
:102de0000801be006bff07000801be00b1fd07002f
:102df0000a00a70001f0a2004f06be004f05be006a
:102e00004f04be00000006000001eb0095ff3700f4
:102e1000889fbe008a9fbe008c1f78000004be0001
:102e20002fff07000478a30026003a006120e1008c
:102e30002500320009f8a30025003a006420e100d3
:102e400021003200f507b1000508a300020032009e
:102e500000004000818048006044b800031020005a
:102e60000200200000004000818048000805440066
:102e700089854c000a0541008b8549000a055000f0
:102e80008b855800030033000a00be000204740062
:102e9000838474008301d1000281d300830f710009
:102ea000f0ff3a008904d1000884d3006001490092
:102eb00082017800c1adde00fb07b000e2fe070032
:102ec0002dff37000960a0000800be002aff370070
:102ed0001202200052838800f0ff2f00f1ff27002c
:102ee00025ff3700889fbe008a9fbe00841f7800a0
:102ef00010ff07004f00780011003300f0ff2f0093
:102f0000838f6c0006003b00040565000a00a700e3
:102f10000800370009f0a600100020000800370064
:102f2000820f5400838f5c000300390010002000e2
:102f300001003e000000200009f0a7000000ea00a8
:102f40004f05be004f04be000000e0000000060078
:102f50004f89de008201780080003700889fbe0024
:102f60008a9fbe000082700004027100048271001a
:102f7000260032000004be000200be006011b8004e
:102f80006b092000950220000182cf000a00390061
:102f90000541b1000082cf00070039000541b100b2
:102fa0000982cf00040039000541b1000882cf003a
:102fb000010039000541b100054252001200320003
:102fc0000a003b0082817100610164008100d10030
:102fd0000080d3008984d3000884d3008b05e800e7
:102fe0000442e800f7ff3a000700370008044400f5
:102ff00089844c0000004800818048008b05e9006e
:103000000442e900f9ff3a008ffe07004f05be00b9
:103010004f04be000000060004002000000037003e
:10302000889fbe008a9fbe008c1f78004f26dd005f
:10303000c0fe0700c7fe33006120e10043003200fc
:103040006250e10041003e003e0039006420e10092
:103050003c003200058255000f003b000402e800ee
:1030600038003a00800f5300818f5b003500340038
:103070000800be0003f0a10001f0a60003f0a000cc
:103080000cf0a7000bfd0700bbfe37000603430052
:1030900087834b000c4646000005530081855b008a
:1030a000020033000a03be000c00a0000402e90085
:1030b000f6ff3b00850578000602430087824b003f
:1030c00004003a006000b80009f0a70001f0a00079
:1030d000a9fe37000002520081825a000704e00076
:1030e000040033000603430087834b008b05e9008f
:1030f000faff3700090578000604be000203be008f
:103100006011b80050fe0700e00f5200e08f5a0037
:103110000700350002003c000c08a3000400320048
:103120000601be0003f0a0000cf0a700e1fc0700c0
:103130000a85680001f0a1000af0a70001f0a000d4
:103140008dfe37000800be008bfe37001002200005
:103150000cf0a600508388008bfe3700881f780093
:10316000030478000300e00007003d006000100049
:10317000e080180060011900e081190002003b00a6
:1031800001f02d000300370074ff070008f0a700ce
:0c31900001f0a0004f04780000000600d1
:020000040000fa
:10319c0045520000524f000052200000554e0000d6
:1031ac0044450000464900004e4500004420000004
:1031bc005354000041540000450000006c200000f6
:1031cc003a200000002000002020000020200000f9
:1031dc0020720000203a0000200000002020000097
:1031ec00202000002020000044310000203a000084
:1031fc0020000000202000002020000020200000e3
:10320c00443100002a31000030300000203a000028
:10321c0020000000202000002020000020200000c2
:10322c0044320000203a0000200000002020000062
:10323c002020000020200000443200002a31000031
:10324c0030300000203a0000200000000d0a000081
:10325c0000780000203a0000200000002020000030
:10326c002020000020200000792000003a200000df
:10327c00002000002020000020200000207400000e
:10328c00203a0000200000006b700000412000007c
:10329c003a200000000a0000006b0000704400009f
:1032ac00203a0000200000006b6400004120000068
:1032bc003a200000006b000064440000203a00003b
:1032cc0020000000502000003a20000000520000b6
:1032dc00203a0000200000004c2000003a200000a2
:1032ec0000730000656e0000732000005220000087
:1032fc003a20000000730000656e0000732000008f
:10330c004c2000003a2000000065000072720000a2
:10331c006f7200000a0000002c0000000a00000080
:020000040000fa
:10332c000400fa00881f7800cb0b07001b0a07006b
:10333c00e0040700f70b0700422cef00e808070039
:10334c00780c07005f0c07006000b8001080880044
:10335c00218088006000b80030808800418088009f
:10336c006000b80050808800618088006000b80060
:10337c0070808800818088006000b8009080880090
:10338c00a18088006000b800b0808800c1808800ef
:10339c006000b800d0808800e18088006000b80030
:1033ac00f0808800018188006000b80010818800de
:1033bc00218188000070ef000170ef002830ef00d1
:1033cc002a30ef00646ea8006000b800008fbe00c9
:1033dc00060037000200200003f823001e007800ce
:1033ec009e00900030fc0700008fbe0018c0b30098
:1033fc0002002400c36124001e0078009e0090008f
:10340c004cfd07000000e000010035000044eb001b
:10341c000804e000efff3a00646ea9006000b800f9
:10342c00008fbe00060037000200200003f82300c6
:10343c001e0078009e0090001bfc0700008fbe0051
:10344c0018c0b30002002400c36124001e007800e1
:10345c009e00900037fd07000000e00001003500e1
:10346c000044eb000804e000efff3a00646ea80093
:10347c006000b800008fbe0006003700020020007c
:10348c0003f823001e0078009e00900006fc070045
:10349c00008fbe0018c0b30002002400c3612400da
:1034ac001e0078009e00900022fd07000000e00046
:1034bc00010035000044eb000804e000efff3a0087
:1034cc00646ea9006000b800008fbe0006003700d3
:1034dc000200200003f823001e0078009e009000dc
:1034ec00f1fb0700008fbe0018c0b30002002400df
:1034fc00c36124001e0078009e0090000dfd0700a3
:10350c000000e000010035000044eb000804e0007e
:10351c00efff3a00646ea8006000b800008fbe0098
:10352c00060037000200200003f823001e0078007c
:10353c009e009000dcfb0700008fbe0018c0b3009b
:10354c0002002400c36124001e0078009e0090003d
:10355c00f8fc07000000e000010035000044eb001f
:10356c000804e000efff3a00646ea9006000b800a8
:10357c00008fbe00060037000200200003f8230075
:10358c001e0078009e009000c7fb0700008fbe0055
:10359c0018c0b30002002400c36124001e00780090
:1035ac009e009000e3fc07000000e00001003500e5
:1035bc000044eb000804e000efff3a00646ea80042
:1035cc006000b800008fbe0006003700020020002b
:1035dc0003f823001e0078009e009000b2fb070049
:1035ec00008fbe0018c0b30002002400c361240089
:1035fc001e0078009e009000cefc07000000e0004a
:10360c00010035000044eb000804e000efff3a0035
:10361c00646ea90000002800300e8800000028000d
:10362c00302e88004335210082322100c12f210029
:10363c00002d2100b2060700390a07002630ef00e2
:10364c00308180000000e0000c003a006000b800ff
:10365c0070808800818088006000b80090808800ad
:10366c00a18088006000b800b0808800c18088000c
:10367c00803e20009d0a070005003700e08c2900e1
:10368c00ca080700e08c2900ec08070000000000c5
:10369c00ebff37001000fa00881f780000002000b4
:1036ac000114240040079800510798006000b800ee
:1036bc00008fbe00d0cc2c00c1dc2300600798002a
:1036cc00710798001e0178009e0190004e0090003a
:1036dc00de00900073fb070018c0b3006e01900071
:1036ec00fe01900095fc07000000e00001003c008a
:1036fc000044eb000804e000080032006e0190006a
:10370c00fe0190001e0078009e00900066fb0700f2
:10371c0020079800310798001e0037001e01780022
:10372c009e0190004e009000de0090005dfb0700b3
:10373c000002be006e009000fe00900001f0a2009e
:10374c0018c0b3000001be000400be0079fc0700e5
:10375c000000e000010035000044eb000804e0002c
:10376c00080032006e019000fe0190001e007800ef
:10377c009e0090004bfb0700200798003107980033
:10378c00040037004e019000de01900022079800e3
:10379c00330798002e019000be019000028fbe00ee
:1037ac002e019000be0190006000b8006405070077
:1037bc00e00120004d0a0700c2ff37001800fa0094
:1037cc002068a90000002800300e880000002800a6
:1037dc00302e8800310e8000000028000080400050
:1037ec008000eb0093fc0700b2fd20009304240042
:1037fc00e5fc07000001be002bfb0700d2cc2c001f
:10380c00431c2400e0fc07000200200003582400a5
:10381c0006fc0700008fbe00312e8000000028003f
:10382c00008040008000eb0082fc0700b2fd20000d
:10383c0093042400d4fc07000001be001afb07000f
:10384c00d2cc2c00431c2400cffc0700020020002b
:10385c0003582400f5fb0700200798003107980057
:10386c00310e800000002800008040008000eb003a
:10387c0070fc0700b2fd200093042400c2fc07007a
:10388c000001be0008fb07000200200003582400c2
:10389c00e6fb07004007980051079800312e800086
:1038ac0000002800008040008000eb0061fc070055
:1038bc00b2fd200093042400b3fc07000001be00fd
:1038cc00f9fa07000200200003582400d7fb070078
:1038dc0060079800710798004e019000de0190007f
:1038ec000000200061392400d0fb0700000f980075
:1038fc00110f98006e019000fe0190000000200056
:10390c0061392400c9fb0700200f9800310f980083
:10391c00408e2900250807001e0078009e009000ac
:10392c0008fc070000007800680807001f08070063
:10393c00908e29001d0807002e009000be009000fc
:10394c0000fc07000000780060080700170807005b
:10395c00408f2900150807000e0890009e08900063
:10396c00f8fb070000007800580807000f08070054
:10397c00009029000d08070002002000832c240071
:10398c000e0890009e0890007ffc0700edfb0700de
:10399c00000078004d08070004080700009129007a
:1039ac00020807002e089000be089000e5fb0700f7
:1039bc000000780045080700fc070700c0912900ab
:1039cc00fa07070002002000832c24002e08900028
:1039dc00be0890006cfc0700dafb070000007800c2
:1039ec003a080700f1070700c0922900ef0707000b
:1039fc00800c2000bd09070076ff37000000fa009c
:103a0c00f0922900e90707001080800021808000d7
:103a1c00ccfb0700000078002c080700e307070028
:103a2c0040932900e107070030808000418080002e
:103a3c00c4fb07000000780024080700db07070020
:103a4c00f0932900d9070700508080006180800026
:103a5c0002002000433b24004bfc0700b2fd200079
:103a6c00930c240071fb0700b6fb070000007800e4
:103a7c0016080700cd070700c0922900cb070700e6
:103a8c000080fa00000006006800fa00889fbe0063
:103a9c00402f9800512f9800622f9800732f980098
:103aac000437980015379800263798003737980058
:103abc0010808000218080000001be004e28900004
:103acc00de28900077fa07000004be0030808000ea
:103adc00418080000001be006e289000fe289000fe
:103aec0070fa07000801be00ccfa070020179800f6
:103afc003117980050808000618080000001be006a
:103b0c002e109000be10900066fa07002007980057
:103b1c003107980007003700b2fd2000930c2400f9
:103b2c002e009000be0090005ffa0700200798005e
:103b3c003107980018c0b300b2fd200093042c008c
:103b4c002e009000be0090007afb07000000e00001
:103b5c00010035000044eb000804e000eeff3a00e1
:103b6c0007003700b2fd2000930c24002e009000bb
:103b7c00be0090004bfa0700200798003107980010
:103b8c0018c0b300b2fd2000930424002e00900056
:103b9c00be00900069fb07000000e00001003c0043
:103bac000044eb000804e000eeff3a0010808000b7
:103bbc0021808000d0808800e180880030808000e7
:103bcc0041808000f0808800018188005080800056
:103bdc0061808000108188002181880052808000e3
:103bec006380800042179800531798000000200053
:103bfc000112240060179800711798000000200033
:103c0c0001122400001f9800111f98006000b800da
:103c1c0040079800510798006000b80060079800b2
:103c2c00710798006000b800000f9800110f980001
:103c3c0018c0b3006011b8002e009000be009000b8
:103c4c003efb07000000e00001003c000044eb00dc
:103c5c000804e000050032000000200001f82300f9
:103c6c00200f9800310f9800310037000000200021
:103c7c0001f82b00200f9800310f98002c00370012
:103c8c00a2702d0033c223006e109000fe10900025
:103c9c00bdfb07000001be004e009000de0090004e
:103cac0001fa070040079800510798004e01900058
:103cbc00de0190006e009000fe009000faf9070003
:103ccc00a2702d0033c22300affb070002002000be
:103cdc0003002400d5fa07000001be000e08900076
:103cec009e089000f0f90700000f9800110f980043
:103cfc002e099000be0990000e0890009e089000be
:103d0c00a1fb07004e119000de119000e6f90700b0
:103d1c00b0808800c18088004e019000de019000c8
:103d2c006207980073079800a0002000ef080700b6
:103d3c0018c0b3000e1990009e1990004e00900010
:103d4c00de009000fbfa07000000e00001003500e7
:103d5c000044eb000804e0000e00320002002000da
:103d6c00030024002e009000be009000affa070064
:103d7c0018c0b3000e0990009e099000effa0700de
:103d8c000000e00001003c000044eb000804e000ef
:103d9c00bbff3a000e0990009e099000221f98006c
:103dac00331f98001b003700a2702d0033c2230074
:103dbc004e009000de00900073fb07000001be0077
:103dcc000e0890009e089000b7f90700000f9800ad
:103ddc00110f98002e099000be0990000e0890005b
:103dec009e08900068fb07004e119000de119000b9
:103dfc00adf90700b0808800c18088004e019000aa
:103e0c00de0190006207980073079800a000200064
:103e1c00b60807002e199000be1990002e009000d5
:103e2c00be0090009ff9070018c0b3000e09900067
:103e3c009e099000c1fa07000000e00001003c0060
:103e4c000044eb000804e000d7ff3a006e1090002d
:103e5c00fe10900001f0a2006017980071179800f6
:103e6c002c003700a2702d0033c223006e1090007e
:103e7c00fe10900044fb07000001be004e009000b5
:103e8c00de00900088f90700400798005107980061
:103e9c004e019000de0190006e009000fe0090003c
:103eac0081f90700a2702d0033c2230036fb0700f6
:103ebc0002002000030024005cfa07000001be0091
:103ecc000e0890009e08900077f90700000f9800ec
:103edc00110f98002e099000be0990000e0890005a
:103eec009e08900028fb07004e119000de119000f8
:103efc006df90700b0808800c18088004e019000e9
:103f0c00de0190006207980073079800a000200063
:103f1c007608070018c0b3006011b8004e0090007e
:103f2c00de00900085fa07000000e00001003c0074
:103f3c000044eb000804e0000b00320018c0b30092
:103f4c002e019000be0190000e0890009e0890007b
:103f5c0078fa07000000e000010035000044eb0097
:103f6c000804e000bfff3a002e099000be09900043
:103f7c002e009000be00900003fb07004e11900035
:103f8c00de11900048f90700b0808800c1808800dd
:103f9c00401f2000550807004e299000de29900094
:103fac00d2808800e38088006e299000fe29900062
:103fbc00f2808800038188000e3190009e319000c1
:103fcc00128188002381880018c0b3006011b800ea
:103fdc002e309000be30900056fa07000000e00032
:103fec00010035000044eb000804e000040032003e
:103ffc006000b80020379800313798000f00370068
:10400c0018c0b30002402200439724002e309000c9
:10401c00be30900049fa07000000e00001003c00af
:10402c000044eb000804e0000400320000402200d1
:10403c0041972400203798003137980018c0b300fe
:10404c006011b8003eb89700ceb8970039fa070057
:10405c000000e000010035000044eb000804e00023
:10406c00040032006000b80030bf9f0041bf9f00c9
:10407c000f00370018c0b300024022004397240001
:10408c003eb89700ceb897002cfa07000000e0006d
:10409c0001003c000044eb000804e0000400320086
:1040ac00004022004197240030bf9f0041bf9f0079
:1040bc003280800043808000421f9800531f98007c
:1040cc001280800023808000621f9800731f98006c
:1040dc006e199000fe1990004e289000de2890007a
:1040ec00f0f8070000279800112798004e1990004f
:1040fc00de1990006e289000fe289000e9f8070069
:10410c0020279800312798000e2190009e219000c6
:10411c002e209000be20900040f907004027980008
:10412c00512798000e2190009e2190000e209000a7
:10413c009e20900094fa07000004be002e219000ef
:10414c00be2190002e209000be2090008efa070019
:10415c000001be000800be00d3f8070029fb0700d1
:10416c0060279800712798003eb99700ceb9970048
:10417c00022f9800132f98006000b800400f980091
:10418c00510f98006000b800600f9800710f9800f4
:10419c006000b8000017980011179800380037001d
:1041ac00a2702d0033c223000e2890009e28900090
:1041bc0075fa07000001be004e089000de08900062
:1041cc00b9f80700400f9800510f98004e09900065
:1041dc00de0990006e089000fe089000b2f807000f
:1041ec00a2702d0033c2230067fa070002002000e2
:1041fc00030024008df907000001be000e10900092
:10420c009e109000a8f8070000179800111798004e
:10421c004e209000de20900082f907000e119000d5
:10422c009e11900058fa07006e199000fe1990002c
:10423c009df8070070808800818088004e209000d7
:10424c00de209000edfa07000e1190009e119000f8
:10425c004dfa07004e199000de19900092f80700f5
:10426c0090808800a18088004e099000de099000a3
:10427c00620f9800730f9800a00020009b070700a6
:10428c0018c0b3002e319000be3190004e08900043
:10429c00de089000a7f907000000e00001003500df
:1042ac000044eb000804e0000e0032000200200085
:1042bc00030024006e209000fe2090005bf90700a4
:1042cc0018c0b3000e1190009e1190009bf90700ce
:1042dc000000e00001003c000044eb000804e0009a
:1042ec00afff3a000e1190009e119000222f980003
:1042fc00332f980018c0b3002e319000be319000bf
:10430c004e089000de0890008cf907000000e000d9
:10431c0001003c000044eb000804e0002d003200da
:10432c002e319000be319000420f9800530f980030
:10433c0029003700a2702d0033c223004e089000d4
:10434c00de08900010fa07000001be000e1090006d
:10435c009e10900054f80700001798001117980051
:10436c004e209000de2090002ef907000e119000d8
:10437c009e11900004fa07006e199000fe1990002f
:10438c0049f8070070808800818088004e209000da
:10439c00de20900099fa07000e1190009e119000fb
:1043ac00f9f907004e199000de1990003ef807004d
:1043bc0090808800a18088004e099000de09900052
:1043cc00620f9800730f9800a000200047070700a9
:1043dc0001003700000000002e299000be2990003b
:1043ec006e209000fe2090002ef8070018c0b3003d
:1043fc000e1190009e11900050f907000000e00093
:10440c0001003c000044eb000804e000c9ff3a0046
:10441c000e2890009e28900001f0a200002f98001a
:10442c00112f980038003700a2702d0033c22300e2
:10443c000e2890009e289000d3f907000001be00c2
:10444c004e089000de08900017f80700400f980007
:10445c00510f98004e099000de0990006e089000f4
:10446c00fe08900010f80700a2702d0033c2230044
:10447c00c5f907000200200003002400ebf8070038
:10448c000001be000e1090009e10900006f8070070
:10449c0000179800111798004e209000de20900015
:1044ac00e0f807000e1190009e119000b6f907007d
:1044bc006e199000fe199000fbf7070070808800c1
:1044cc00818088004e209000de2090004bfa07007f
:1044dc000e1190009e119000abf907004e19900040
:1044ec00de199000f0f7070090808800a18088000a
:1044fc004e099000de099000620f9800730f98002f
:10450c00a0002000f906070018c0b3006011b80025
:10451c004e089000de08900008f907000000e0004b
:10452c0001003c000044eb000804e0000b003200ea
:10453c0018c0b3006e219000fe2190000e10900068
:10454c009e109000fbf807000000e0000100350011
:10455c000044eb000804e000b3ff3a004e29900041
:10456c00de29900072808800838088006e2990007c
:10457c00fe29900092808800a3808800401f2000b4
:10458c00da060700508080006180800018c0b300fc
:10459c000001be000e3090009e309000e7f807003e
:1045ac000000e00001003c000044eb000804e000c7
:1045bc001c0032005280800063808000028fbe009d
:1045cc000c0037001e0178009e019000b28088001c
:1045dc00c380880010002000c4060700f2262100ca
:1045ec0033b023001e0078009e009000aef7070049
:1045fc00008fbe0018c0b3000e3190009e319000a9
:10460c001e0078009e009000caf807000000e00031
:10461c00010034000044eb000804e000e9ff3a001c
:10462c001b0037005280800063808000028fbe0028
:10463c000c0037001e0178009e019000b2808800ab
:10464c00c380880010002000a8060700f226210075
:10465c0033b023001e0078009e00900091f70700f5
:10466c00008fbe0018c0b3000e3190009e31900038
:10467c001e0078009e009000b0f807000000e000db
:10468c0001003d000044eb000804e000e9ff3a00a3
:10469c000e3190009e319000b2808800c38088005b
:1046ac00401f2000910607004f04be000080fa0056
:1046bc00000006000000fa001100070023000700ac
:1046cc003500070047000700590007006b00070082
:1046dc008160800080ff2f00008060006000b300cc
:1046ec00806088001160800080ff2f0000806000d7
:1046fc001060880001eca8000080fa0000000600a1
:10470c000000fa0060ae2a004061880060ae2a000a
:10471c0080618800262cef002e2cef0023eca800e3
:10472c0023cca8001161800000c0200001007000a3
:10473c0010618800212ca800206ca80030002000fb
:10474c00206188000080fa00000006000000fa00da
:10475c0080b521004062880080b52100806288000d
:10476c00462cef004e2cef0043eca80043cca800e5
:10477c001162800000c020000100700010628800ef
:10478c00412ca800406ca900300020002062880059
:10479c000080fa00000006000000fa0080b521003d
:1047ac004063880080b5210080638800662cef0090
:1047bc006e2cef0063eca80063cca80011638000a2
:1047cc0000c020000100700010638800612ca8005c
:1047dc00606ca90030002000206388000080fa0083
:1047ec00000006000000fa00d0062000406488009b
:1047fc0060ae2a0080648800862cef008e2cef00bf
:10480c0083eca80083cca8001164800000c02000b9
:10481c000100700010648800812ca800806ca80036
:10482c0030002000206488000080fa0000000600a0
:10483c000000fa0060ae2a004065880060ae2a00d5
:10484c0080658800a62cef00ae2cef00aa2cef00a0
:10485c00ac2cef00a3eca800a3cca8001165800041
:10486c0000c020000100700010658800a12ca80079
:10487c00a06ca8000080fa00000006000000fa00fe
:10488c0060ae2a004066880060ae2a008066880010
:10489c00c62cef00ce2cef00c3eca800c3cca800b4
:1048ac001166800000c020000100700010668800b6
:1048bc00c12ca800c06ca800300020002066880025
:1048cc000080fa00000006000600fa00881f78003d
:1048dc00004f7800120798002307980018c0b30007
:1048ec006011b8001e009000ae00900011f8070097
:1048fc000000e000010035000044eb000804e0007b
:10490c00040032006000b8001007980021079800de
:10491c000f00370018c0b30002002400c369240044
:10492c001e009000ae00900004f807000000e000ac
:10493c0001003c000044eb000804e00004003200dd
:10494c0000002400c169240010079800210798007a
:10495c0002602e00a37224001e009000ae00900096
:10496c0089f8070002002400c3692400aff7070090
:10497c0010079800210798001e80fb00e30f5000e1
:10498c0022003200e30f500007003c00e10f500002
:10499c0012003200e10f500016003c000000e00055
:1049ac000800320031003700e50f500023003200c0
:1049bc00e50f50001b003500e60f500025003200bb
:1049cc002a0037001e009000ae009000ddf70700b3
:1049dc000000780070648800240037001e009000ee
:1049ec00ae009000d7f70700000078003061880017
:1049fc001e0037001e009000ae009000d1f707009b
:104a0c000000780070618800180037001e009000cc
:104a1c00ae009000cbf707000000780070658800ae
:104a2c00120037001e009000ae009000c5f7070082
:104a3c0000007800306588000c0037001e009000e4
:104a4c00ae009000bff70700000078007066880089
:104a5c00060037001e009000ae009000b9f707006a
:104a6c000000780030668800000000004f047800d9
:104a7c000080fa00000006000400fa00881f78008d
:104a8c0000002000a1472400008fbe006000b80089
:104a9c00008fbe00240037001e0178009e0190009c
:104aac000040eb0088ff07001e0178009e0190007b
:104abc0010c0b30084ff07001e0178009e01900017
:104acc0020c0b30080ff07001e0178009e019000fb
:104adc0030c0b3007cff07001e0178009e019000df
:104aec0040c0b30078ff07001e0178009e019000c3
:104afc0050c0b30074ff07001e0178009e019000a7
:104b0c0060c0b30070ff070010002000770507009d
:104b1c000200200003f823001e0078009e00900085
:104b2c0061f60700008fbe0018c0b300020024001d
:104b3c00c35924001e0078009e0090007df70700ea
:104b4c000000e000010034000044eb000804e00029
:104b5c00d1ff3a0000002400c1592400008fbe0090
:104b6c00240037001e0178009e0190000040eb00ed
:104b7c0055ff07001e0178009e01900010c0b30085
:104b8c0051ff07001e0178009e01900020c0b30069
:104b9c004dff07001e0178009e01900030c0b3004d
:104bac0049ff07001e0178009e01900040c0b30031
:104bbc0045ff07001e0178009e01900050c0b30015
:104bcc0041ff07001e0178009e01900060c0b300f9
:104bdc003dff0700100020004405070002002000e4
:104bec0003f823001e0078009e0090002df60700ad
:104bfc00008fbe0018c0b3006011b8001e00780012
:104c0c009e0090004df707000000e00001003d0001
:104c1c000044eb000804e000d2ff3a009bff370091
:104c2c000400fa00881f780000002000a14724002f
:104c3c00008fbe0000002800b1532400008fbe007e
:104c4c00120037001e0078009e0090003df7070010
:104c5c0000007800306388001e0078009e009000f1
:104c6c0038f70700000078007063880010002000ff
:104c7c001e05070002002000031224001e0078000d
:104c8c009e00900008f60700008fbe0018c0b3000d
:104c9c0002002800b35b24001e0078009e009000e8
:104cac0024f707000000e000010034000044eb0092
:104cbc000804e000e3ff3a0000002800b15b240088
:104ccc00008fbe00120037001e0078009e0090007e
:104cdc001cf7070000007800306388001e00780085
:104cec009e00900017f707000000780070638800a2
:104cfc0010002000fd040700020020000312240015
:104d0c001e0078009e009000e6f50700008fbe00a4
:104d1c0018c0b30002002800b35324001e00780012
:104d2c009e00900005f707000000e00001003d0028
:104d3c000044eb000804e000e3ff3a00bdff37003d
:104d4c000800fa00881f7800008fbe002207980028
:104d5c003307980018c0b3006011b8002e00900003
:104d6c00be009000f5f607000000e00001003c00da
:104d7c000044eb000804e0000800320062662600e4
:104d8c0063fa23002e009000be009000c6f50700c9
:104d9c0020079800310798001100370018c0b300a5
:104dac006011b8002e009000be009000e1f60700e4
:104dbc000000e000010035000044eb000804e000b6
:104dcc00070032006266260063fa23002e00900072
:104ddc00be009000b3f5070020079800310798003b
:104dec0018c0b3006011b8001e0078009e0090003f
:104dfc00d2f607000000e00001003c000044eb008c
:104e0c000804e000070032009299290093ff230068
:104e1c001e0078009e009000a3f50700008fbe00d6
:104e2c001000370018c0b3006011b8001e007800e5
:104e3c009e009000bff607000000e0000100350066
:104e4c000044eb000804e000060032006266260015
:104e5c0063f223001e0078009e00900091f507007d
:104e6c00008fbe0018c0b3000200200003142c00f9
:104e7c002e009000be009000aef607000000e0008f
:104e8c00010034000044eb000804e0000400320090
:104e9c00642ea900406380007063880043003700d3
:104eac0018c0b30002002000031424002e00900050
:104ebc00be009000a1f607000000e00001003d00dc
:104ecc000044eb000804e00004003200642ea8004b
:104edc0040638000706388003400370018c0b30052
:104eec006266260063fa2b002e009000be00900034
:104efc0090f607000000e000010035000044eb00d4
:104f0c000804e0000f003200642ea900406380000a
:104f1c008000eb00c7f607002e019000be01900048
:104f2c0019f7070002002000031424003ff60700c5
:104f3c0084f60700000078000000ea007063880027
:104f4c001a00370018c0b3006266260063fa23000b
:104f5c002e009000be00900078f607000000e000e4
:104f6c0001003c000044eb000804e0000e0032009d
:104f7c00642ea800406380008000eb00adf60700b3
:104f8c002e019000be019000fff6070002002000e9
:104f9c000314240025f607006af6070000007800c9
:104fac0070638800010037006e2cef0018c0b3004e
:104fbc000200200003142c001e0078009e009000bc
:104fcc005cf607000000e000010034000044eb0038
:104fdc000804e00004003200640ea9008063800025
:104fec00306388004300370018c0b3000200200073
:104ffc00031424001e0078009e0090004ff607005a
:10500c000000e00001003d000044eb000804e0005b
:10501c0004003200640ea8008063800030638800b6
:10502c003400370018c0b3006266260063fa2b0008
:10503c001e0078009e0090003ef607000000e00085
:10504c00010035000044eb000804e0000f003200c2
:10505c00640ea900806380008000eb0075f60700e9
:10506c001e0178009e019000c7f607000200200088
:10507c0003142400edf5070032f607000000780059
:10508c000000ea00306388001a00370018c0b30033
:10509c006266260063fa23001e0078009e009000d2
:1050ac0026f607000000e00001003c000044eb0085
:1050bc000804e0000e003200640ea800806380003b
:1050cc008000eb005bf607001e0178009e0190004b
:1050dc00adf607000200200003142400d3f50700ee
:1050ec0018f60700000078003063880001003700d4
:1050fc00662cef004f0478000080fa0000000600d8
:10510c000800fa00000f7800110798002207980099
:10511c00330798006000b800809fbe006000b800a4
:10512c00809fbe00a0702d0031c22300809fbe0066
:10513c006000b800809fbe006000b800809fbe0079
:10514c00e6f02400f7aa23006022b800c2f528007c
:10515c0023ec23001e0078003c000700f487570066
:10516c006000b800809fbe006000b800809fbe0049
:10517c00a0702d0031c22300809fbe006000b800db
:10518c00809fbe006000b800809fbe00e6f0240047
:10519c00f7aa23006022b800c2f5280023ec2300f4
:1051ac001e00900029000700f48757006000b8002b
:1051bc00809fbe006000b800809fbe00a0702d00d4
:1051cc0031c22300809fbe006000b800809fbe00eb
:1051dc006000b800809fbe00f626210037a823008f
:1051ec006022b800d2cc2c00c3ec23002e0090001f
:1051fc0016000700f48757006000b800809fbe00bf
:10520c006000b800809fbe00a0702d0031c223004a
:10521c00809fbe006000b800809fbe006000b80098
:10522c00809fbe000600200007f823006022b80013
:10523c0002002000032724003e009000030007001a
:10524c00f48757000080fa00000006000e00fa00f8
:10525c00000f780012079800230798003407980075
:10526c004507980056079800670798001e007800bd
:10527c001e019000ae0190000288be001e00780056
:10528c003e019000ce01900022009800330098005f
:10529c001e0078005e019000ee0190004200980024
:1052ac00530098001e0078003eb99700ceb99700c5
:1052bc0062009800730098001e0078001eb99700d9
:1052cc00aeb9970042109800531098001e00780059
:1052dc007eb197008eb99700221098003310980079
:1052ec001e0078005eb19700eeb19700220898007e
:1052fc00330898001e0078003eb19700ceb197009d
:10530c0002089800130898001e0178006000b8008d
:10531c0000119800111198001e0178006000b8006f
:10532c0040099800510998001e0178006000b800ef
:10533c0060099800710998000080fa0000000600ce
:10534c000600fa00000f7800120798002307980057
:10535c001e0078001e019000ae019000020898001b
:10536c00130898000080fa00000006000600fa00fe
:10537c00000f780012079800230798001e00780091
:10538c001e019000ae01900022089800330898008e
:10539c000080fa00000006001400fa00889fbe008e
:1053ac0070079800020f9800130f98007e00900071
:1053bc000e0990009e09900022089800330898006e
:1053cc007e009000000a9000900a90007e009000f1
:1053dc00b0089000200890000001be000400be0040
:1053ec0030f40700300798004107980010002000a7
:1053fc00000f7800130037007e009000600c9000c6
:10540c00f00c90007e009000f00890006008900076
:10541c000001be003e009000ce00900021f4070079
:10542c00d2cc2c00c3ec2300d7f507000001be0042
:10543c000800be001cf40700100798002107980014
:10544c001e0fe8001e007800e40f5000eaff340045
:10545c007e009000f0089000600890000001be00f3
:10546c001e009000ae0090000ef407000002be007b
:10547c007e009000b0109000201090000001be0043
:10548c000400be00e9f4070050079800610798007b
:10549c007e00900000149000901490007e0090000c
:1054ac00b0109000201090003e019000ce019000b2
:1054bc00b5f507000001be000800be00faf30700b6
:1054cc007e01900000119800111198007e00900050
:1054dc00901090000010900018c0b3000200200043
:1054ec00832c240015f507000000e00001003c00af
:1054fc000044eb000804e000060032007e0190003e
:10550c0000002000812c240000119800111198003b
:10551c00110037007e009000901090000010900059
:10552c0018c0b30002002000832c2c0001f50700ea
:10553c000000e000010035000044eb000804e0002e
:10554c00050032007e01900000002000812c2c0010
:10555c0000119800111198007e00900060049000da
:10556c00f00490007e0090009000900010007800f5
:10557c003e019000ce01900083f507000001be00b3
:10558c000800be00c8f307000004be007e009000b7
:10559c0020029000b00290007e00900090109000cd
:1055ac00001090000001be000400be0076f507005c
:1055bc000001be000800be00bbf307000004be00e3
:1055cc007e009000d0009000400090005e019000a2
:1055dc00ee0190006cf507000001be000800be0053
:1055ec00b1f307007e019000401198005111980012
:1055fc007e0090003e019000ce0190004208980081
:10560c00530898007e0090001e019000ae0190009f
:10561c0062089800730898007e009000d0109000eb
:10562c00401090004f04be000080fa0000000600fd
:10563c000400fa00881f7800008fbe0006003700b7
:10564c00b2fd2000930424001e0078009e00900000
:10565c0094f30700008fbe0018c0b300b2fd200009
:10566c00930424001e0078009e009000b3f4070001
:10567c000000e00001003c000044eb000804e000e6
:10568c00efff3a0006003700b2fd2000930424001f
