:020000040000fa
:080000000002040000000000f2
:020000040000fa
:040008003c0b0000ad
:020000040000fa
:04000c003c0b0000a9
:020000040000fa
:040010003c0b0000a5
:020000040000fa
:040014003c0b0000a1
:020000040000fa
:040018003c0b00009d
:020000040000fa
:04001c003c0b000099
:020000040000fa
:040020003c0b000095
:020000040000fa
:040024003c0b000091
:020000040000fa
:040028003c0b00008d
:020000040000fa
:04002c003c0b000089
:020000040000fa
:040030003c0b000085
:020000040000fa
:040034008003000045
:020000040000fa
:040038003c0b00007d
:020000040000fa
:04003c003c0b000079
:020000040000fa
:040040003c0b000075
:020000040000fa
:040044003c0b000071
:020000040000fa
:040048003c0b00006d
:020000040000fa
:04004c003c0b000069
:020000040000fa
:04005000fa020000b0
:020000040000fa
:04005400cc080000d4
:020000040000fa
:040058000c0b00008d
:020000040000fa
:04005c003c0b000059
:020000040000fa
:040060003c0b000055
:020000040000fa
:040064003c0b000051
:020000040000fa
:040068003c0b00004d
:020000040000fa
:04006c003c0b000049
:020000040000fa
:040070003c0b000045
:020000040000fa
:040074003c0b000041
:020000040000fa
:040078003c0b00003d
:020000040000fa
:04007c003c0b000039
:020000040000fa
:040080003c0b000035
:020000040000fa
:040084003c0b000031
:020000040000fa
:040088003c0b00002d
:020000040000fa
:04008c003c0b000029
:020000040000fa
:040090003c0b000025
:020000040000fa
:040094003c0b000021
:020000040000fa
:040098003c0b00001d
:020000040000fa
:04009c003c0b000019
:020000040000fa
:0400a0003c0b000015
:020000040000fa
:0400a4003c0b000011
:020000040000fa
:0400a8003c0b00000d
:020000040000fa
:0400ac003c0b000009
:020000040000fa
:0400b0003c0b000005
:020000040000fa
:0400b4003c0b000001
:020000040000fa
:0400b8003c0b0000fd
:020000040000fa
:0400bc003c0b0000f9
:020000040000fa
:0400c0003c0b0000f5
:020000040000fa
:0400c4003c0b0000f1
:020000040000fa
:0400c8003c0b0000ed
:020000040000fa
:0400cc003c0b0000e9
:020000040000fa
:0400d0003c0b0000e5
:020000040000fa
:0400d4003c0b0000e1
:020000040000fa
:0400d8003c0b0000dd
:020000040000fa
:0400dc003c0b0000d9
:020000040000fa
:0400e0003c0b0000d5
:020000040000fa
:0400e4003c0b0000d1
:020000040000fa
:0400e8003c0b0000cd
:020000040000fa
:0400ec003c0b0000c9
:020000040000fa
:0400f0003c0b0000c5
:020000040000fa
:0400f4003c0b0000c1
:020000040000fa
:0400f8003c0b0000bd
:020000040000fa
:0400fc003c0b0000b9
:020000040000fa
:040100003c0b0000b4
:020000040000fa
:040104003c0b0000b0
:020000040000fa
:040108003c0b0000ac
:020000040000fa
:04010c003c0b0000a8
:020000040000fa
:040110003c0b0000a4
:020000040000fa
:040114003c0b0000a0
:020000040000fa
:040118003c0b00009c
:020000040000fa
:04011c003c0b000098
:020000040000fa
:040120003c0b000094
:020000040000fa
:040124003c0b000090
:020000040000fa
:040128003c0b00008c
:020000040000fa
:04012c003c0b000088
:020000040000fa
:040130003c0b000084
:020000040000fa
:040134003c0b000080
:020000040000fa
:040138003c0b00007c
:020000040000fa
:04013c003c0b000078
:020000040000fa
:040140003c0b000074
:020000040000fa
:040144003c0b000070
:020000040000fa
:040148003c0b00006c
:020000040000fa
:04014c003c0b000068
:020000040000fa
:040150003c0b000064
:020000040000fa
:040154003c0b000060
:020000040000fa
:040158003c0b00005c
:020000040000fa
:04015c003c0b000058
:020000040000fa
:040160003c0b000054
:020000040000fa
:040164003c0b000050
:020000040000fa
:040168003c0b00004c
:020000040000fa
:04016c003c0b000048
:020000040000fa
:040170003c0b000044
:020000040000fa
:040174003c0b000040
:020000040000fa
:040178003c0b00003c
:020000040000fa
:04017c003c0b000038
:020000040000fa
:040180003c0b000034
:020000040000fa
:040184003c0b000030
:020000040000fa
:040188003c0b00002c
:020000040000fa
:04018c003c0b000028
:020000040000fa
:040190003c0b000024
:020000040000fa
:040194003c0b000020
:020000040000fa
:040198003c0b00001c
:020000040000fa
:04019c003c0b000018
:020000040000fa
:0401a0003c0b000014
:020000040000fa
:0401a4003c0b000010
:020000040000fa
:0401a8003c0b00000c
:020000040000fa
:0401ac003c0b000008
:020000040000fa
:0401b0003c0b000004
:020000040000fa
:0401b4003c0b000000
:020000040000fa
:0401b8003c0b0000fc
:020000040000fa
:0401bc003c0b0000f8
:020000040000fa
:0401c0003c0b0000f4
:020000040000fa
:0401c4003c0b0000f0
:020000040000fa
:0401c8003c0b0000ec
:020000040000fa
:0401cc003c0b0000e8
:020000040000fa
:0401d0003c0b0000e4
:020000040000fa
:0401d4003c0b0000e0
:020000040000fa
:0401d8003c0b0000dc
:020000040000fa
:0401dc003c0b0000d8
:020000040000fa
:0401e0003c0b0000d4
:020000040000fa
:0401e4003c0b0000d0
:020000040000fa
:0401e8003c0b0000cc
:020000040000fa
:0401ec003c0b0000c8
:020000040000fa
:0401f0003c0b0000c4
:020000040000fa
:0401f4003c0b0000c0
:020000040000fa
:0401f8003c0b0000bc
:020000040000fa
:0401fc003c0b0000b8
:020000040000fa
:040200003c0b0000b3
:020000040000fa
:040204003c0b0000af
:020000040000fa
:040208003c0b0000ab
:020000040000fa
:04020c003c0b0000a7
:020000040000fa
:040210003c0b0000a3
:020000040000fa
:040214003c0b00009f
:020000040000fa
:040218003c0b00009b
:020000040000fa
:04021c003c0b000097
:020000040000fa
:040220003c0b000093
:020000040000fa
:040224003c0b00008f
:020000040000fa
:040228003c0b00008b
:020000040000fa
:04022c003c0b000087
:020000040000fa
:040230003c0b000083
:020000040000fa
:040234003c0b00007f
:020000040000fa
:040238003c0b00007b
:020000040000fa
:04023c003c0b000077
:020000040000fa
:040240003c0b000073
:020000040000fa
:040244003c0b00006f
:020000040000fa
:040248003c0b00006b
:020000040000fa
:04024c003c0b000067
:020000040000fa
:040250003c0b000063
:020000040000fa
:040254003c0b00005f
:020000040000fa
:040258003c0b00005b
:020000040000fa
:04025c003c0b000057
:020000040000fa
:040260003c0b000053
:020000040000fa
:040264003c0b00004f
:020000040000fa
:040268003c0b00004b
:020000040000fa
:04026c003c0b000047
:020000040000fa
:040270003c0b000043
:020000040000fa
:040274003c0b00003f
:020000040000fa
:040278003c0b00003b
:020000040000fa
:04027c003c0b000037
:020000040000fa
:040280003c0b000033
:020000040000fa
:10040000cf2921000eff27000e0188000000000008
:10041000000020000000e000020032000001200087
:100420002002880014000700950407000000e00087
:1004300003003a00c027220001002000020037001c
:100440000000200001002000810f70000100320038
:100450000f000700000020000000e0000200320052
:1004600000000200000000003c120200000000003a
:100470000040da000000fe00000820000000e0005c
:1004800002003200002020009001880000000600d9
:10049000a1028800800478000000eb001f003700f4
:1004a000e284440054a0b4009905ba00e2844400f8
:1004b00054a0b4009906ba00e284440054a0b400e9
:1004c0000006eb00476fde00fd07b200ae018800ba
:1004d000636ce10003003a000ad801000000eb0061
:1004e0000e003700606ce10008003a00004deb00a0
:1004f0000a05e800020039003420ec000af0a000f0
:100500008b05e900f9ff3e00040037006168e10057
:10051000010032000086eb000b00070019c7ba008b
:100520000e04e0001905ba0003003a000a00e000da
:10053000dbff3a0000000600fe07b200ae028800b2
:100540008a047800f5ff37000cd0a300e20f4d00bd
:100550001c00390089027800354dba000a05e80010
:10056000020039003420ec000af0a0008b05e900fd
:100570000f003200254dba000a05e80002003900dc
:100580003420ec000af0a0008b05e90008003200de
:100590000c00e0000600320015cdba000a05e800a4
:1005a000020039003420ec000af0a0008b05e900bd
:1005b0008984e80054a0b4000b00e000e2ff3a0098
:1005c000000006009902ba00055d78008b05e9007d
:1005d000f7ff3200c82ade00055d78008b05e900d0
:1005e000f3ff32000c00e000f1ff320019ddba0029
:1005f000eeff3700809fbe000200fa00401280002c
:10060000004f7800b0cab3009e40780080cf500001
:1006100003003a0040c5b30032f0b70031003700a4
:1006200032d0bf000080fb0011062000810f500077
:100630002600320011062000810f50000a003c0005
:1006400071042000810f50001d0032004105200080
:10065000810f50000e00320001022000810f500077
:10066000140032001f00370081062000810f500067
:100670000a003200d1062000810f5000160032001f
:1006800051062000810f500007003200150037008e
:1006900080c6b30032f0b7001200370050c6b30076
:1006a00032f0b7000f00370000c2b30032f0b700dd
:1006b0000c00370070c4b30032f0b70009003700f7
:1006c00010c6b30032f0b70006003700d0c6b30042
:1006d00032f0b7000300370050c6b30032f0b70065
:1006e0000000000032d0bf000080fb0040128800f4
:1006f0000148a9000080fa004f00be00004006003b
:100700003600f800809fbe00829fbe00849fbe001e
:10071000869fbe00889fbe008a9fbe003600fa00fa
:100720000068a900310e8000510f9800322e800021
:10073000620f980000002800300e8800000028009a
:10074000302e88005e0890008000eb003405070022
:100750000200200003702400ca030700700f9800f5
:10076000011798006e0890008000eb002c05070030
:100770000200200003702400c20307001017980035
:1007800021179800188180007e0890008e1090003c
:10079000e40407008000780008014400402721009d
:1007a0000000410001087800188180001e109000b0
:1007b000ae109000db0407008000780008014400c0
:1007c0008028210000004100010878007e08900088
:1007d0008e1090000001be00ab030700b2fd2000a8
:1007e0009304240065050700d2cc2c00431c240090
:1007f00062050700700f98000117980002002000a2
:10080000035824007e0890008e1090007f0407009b
:10081000700f9800011798001e109000ae10900005
:100820000001be0098030700b2fd200093042400dd
:1008300052050700d2cc2c00431c24004f050700b2
:100840001017980021179800020020000358240078
:100850001e109000ae1090006c0407001017980056
:10086000211798007e0990008e1190001e109000b4
:10087000ae1090008303070082222f00333924003a
:10088000620407000002be0050808000618080008a
:100890000001be000400be007b03070050808800fa
:1008a000618088001e119000ae1190007e089000bb
:1008b0008e10900074030700020020000300240043
:1008c00052040700301798004117980050808000ac
:1008d000618080004b0407003e119000ce11900013
:1008e000260507000002be001080800021808000e5
:1008f0000001be000400be006303070010808800f2
:10090000218088005080800061808000b805070049
:100910003e119000ce119000180507000002be00a5
:1009200030808000418080000001be000400be00d5
:1009300055030700308088004180880010818000c6
:100940000000e8001081880010818000e90f50004d
:10095000080236002230ef006000b800008fbe00b1
:100960006000b80020079800310798000000eb00f5
:10097000400798001c0037004e00900080004000a7
:10098000402721000080400010007800cf80de006a
:10099000a00407000001be001e0078009e00900029
:1009a00039030700008fbe004e0090008000400019
:1009b000802821000080400010007800cf80de00f9
:1009c000940407000001be002e009000be009000bd
:1009d0002d03070020079800310798004e00900073
:1009e0000000e800400798004e009000e90f50001a
:1009f000e1ff340002002000832c24001e00780058
:100a00009e009000dd0407000001be001e030700e9
:100a1000b2fd200093042400d80407000200200047
:100a200003582400f9030700008fbe0002002000d5
:100a3000832c24002e009000be009000cf040700fd
:100a40000001be0010030700b2fd20009304240043
:100a5000ca0407000200200003582400eb0307002b
:100a600020079800310798007480800085808000fe
:100a700010808000218080000001be000400be00c4
:100a8000000307000004be0094808000a580800061
:100a900030808000418080000001be000400be0064
:100aa000f80207000801be00540307005017980021
:100ab000611798001480800025808000708080007d
:100ac000818080000001be000400be00ed0207002e
:100ad0000004be00148080002580800070808000ab
:100ae000818080000001be000400be00e502070016
:100af0000001be000800be00a00407000004be0004
:100b0000348080004580800090808000a18080003b
:100b10000001be000400be00da0207000005be00ae
:100b2000348080004580800090808000a18080001b
:100b30000001be000400be00d20207000001be009a
:100b40000a00be008d0407000001be000800be00c0
:100b5000cd0207002805070050079800610798009c
:100b600050808000618080005e119000ee11900046
:100b7000c402070070079800010f980007003700b3
:100b8000b2fd2000930c24007e0090008e0890009f
:100b9000bc02070070079800010f980018c0b3004e
:100ba000b2fd2000930c24007e0090008e0890007f
:100bb000da0307000000e00001003d000044eb0004
:100bc0000804e000eeff3a0007003700b2fd200005
:100bd000930c24007e0090008e089000aa0207006b
:100be00070079800010f980018c0b300b2fd2000f4
:100bf000930c2c007e0090008e089000c503070027
:100c00000000e000010034000044eb000804e000b4
:100c1000eeff3a0018c0b300b2fd20009304240098
:100c20007e0090008e089000bc0307000000e000ea
:100c300001003c000044eb000804e0000800320022
:100c4000b2fd2000930c24007e0090008e089000de
:100c50008c02070070079800010f980012003700ff
:100c600018c0b300b2fd200093042c007e00900059
:100c70008e089000a70307000000e0000100350087
:100c80000044eb000804e00007003200b2fd200041
:100c9000930c24007e0090008e0890007a020700da
:100ca00070079800010f980018c0b300b2fd200033
:100cb00093fc2b007e0090008e08900097030700a5
:100cc0000000e00001003c000044eb000804e000ec
:100cd0001000320018c0b300b2fd200093fc2300c6
:100ce0007e0090008e0890008a0307000000e0005c
:100cf000010035000044eb000804e000050032006c
:100d00005e009000ee00900001f0a20050079800f5
:100d10006107980018c0b30002002000832424005b
:100d20005e009000ee0090007c0307000000e000f1
:100d300001003c000044eb000804e0000b003a0016
:100d400018c0b3000200200083242c005e00900035
:100d5000ee0090006f0307000000e0000100350086
:100d60000044eb000804e000050032005e11900032
:100d7000ee11900080172100090b070005003700d5
:100d8000b0808000c18080000001be00801721007b
:100d9000030b07005e019000ee019000001521009a
:100da000150b070070179800011f980050808000f5
:100db000618080000001be00801721000e0b07003b
:100dc000101f9800211f98001e199000ae19900066
:100dd0007e1090008e1890002a0207000001be00cd
:100de00000102100ee0a07001e199000ae199000b5
:100df0007e1090008e189000230207000001be00b4
:100e000080122100e60a07001e0178009e01900072
:100e100000102100f80a0700100f9800210f980019
:100e20002e019000be01900080122100f20a0700fe
:100e3000300f9800410f9800408b8000518b80004c
:100e400018c0b3000200200003f82300310307009c
:100e50000000e000010035000044eb000804e00061
:100e60005c003200408b8000518b800018c0b300c2
:100e70000200200003f82b00280307000000e00018
:100e800001003c000044eb000804e0005100320087
:100e9000808c8000918c800018c0b300a2702d005f
:100ea00033c223001b0307000000e00001003500ef
:100eb0000044eb000804e00046003200808c800013
:100ec000918c800018c0b300a2702d0033c22b009b
:100ed000120307000000e00001003c000044eb00aa
:100ee0000804e0003b00320018c0b300d214220016
:100ef00003e523001e0078009e0090000503070014
:100f00000000e000010035000044eb000804e000b0
:100f10003000320018c0b300d214220003e52b00c9
:100f20001e0078009e009000fc0207000000e00018
:100f300001003c000044eb000804e0002500320002
:100f400018c0b300d214220003e523002e00900045
:100f5000be009000ef0207000000e0000100350035
:100f60000044eb000804e0001a00320018c0b3008f
:100f7000d214220003e52b002e009000be0090004a
:100f8000e60207000000e00001003c000044eb0026
:100f90000804e0000f0032006000b800100f980055
:100fa000210f98006000b800300f9800410f9800a2
:100fb0006000b800e0888800f18888006000b80010
:100fc000e0888800f188880010c0b30020f0b700e6
:100fd000010037002070ef005081800061818000a7
:100fe0000001be003e089000ce089000a501070059
:100ff00018c0b300f2282c0053e72300c7020700f3
:101000000000e00001003c000044eb000804e000a8
:10101000080032005081800061818000f2282c009d
:1010200053e7230098010700300f9800410f980004
:101030001600370050818000618180000001be00f1
:101040003e089000ce0890008e01070018c0b30043
:10105000f2282c0053e72b00ae0207000000e0004e
:10106000010035000044eb000804e00007003200f6
:101070005081800061818000f2282c0053e723001a
:1010800080010700300f9800410f980030818000e8
:10109000418180000001be001e089000ae08900053
:1010a0007801070018c0b300f2282c0053e7230092
:1010b0009a0207000000e00001003c000044eb0041
:1010c0000804e00008003200308180004181800087
:1010d000f2282c0053e723006b010700100f980043
:1010e000210f980016003700308180004181800078
:1010f0000001be001e089000ae08900061010700cc
:1011000018c0b300f2282c0053e72b00810207001f
:101110000000e000010035000044eb000804e0009e
:10112000070032003081800041818000f2282c00cd
:1011300053e7230053010700100f9800210f980078
:101140001e099000ae09900032818800438188001a
:101150003e099000ce09900052818800638188008a
:101160001e099000ae0990003e089000ce08900045
:101170007b0807000080fa004f05be004f04be0048
:101180004f03be004f02be004f01be004f00be0025
:101190003600f900004006003600f800809fbe00cf
:1011a000829fbe00849fbe00869fbe000000fa00a2
:1011b00010118000620060000000e00009013200b0
:1011c0002222a90008013700110321009140780074
:1011d00030c6b30080cf5000010036003170ef0000
:1011e00031d0bf000080fb003111800081407800c9
:1011f00042202100000041000148780031d0bf00aa
:101200000040e80031f0b70031d0bf000080fb00a3
:101210000000e900412021000080400010407800db
:10122000ea4f5000f0003a00402021009040780042
:1012300030c7b30080cf50001a003a005020210080
:101240009040780050c6b30080cf500015003a009f
:10125000602021009040780040c7b30080cf50004c
:1012600010003a002173800000002400008060001c
:1012700000f0a7000000ea000000e9004f00de00d7
:10128000004078000080fb00610060004e00dd003f
:101290002173800001e0a10001007000207388002c
:1012a000ce003700402021009040780000c7b300f6
:1012b00080cf50000d003a0050202100904078006f
:1012c000b0c2b30080cf500008003a00c08b80004d
:1012d000d18b80000200200003f82300ea00070001
:1012e000c08b8800d18b8800bc00370040202100d3
:1012f0009040780000c7b30080cf50000d003a0046
:101300005020210090407800d0c2b30080cf500020
:1013100008003a00c08b8000d18b800002002000c2
:1013200003f82300d7000700c08b8800d18b88000a
:10133000aa003700402021009040780040c6b3004a
:1013400080cf50000d003a005020210090407800de
:10135000b0c2b30080cf500008003a00c08b8000bc
:10136000d18b80000200200003f82300c600070094
:10137000c08b8800d18b8800980037004020210066
:101380009040780040c6b30080cf50000d003a0076
:101390005020210090407800d0c2b30080cf500090
:1013a00008003a00c08b8000d18b80000200200032
:1013b00003f82300b3000700c08b8800d18b88009e
:1013c00086003700402021009040780020c7b300fd
:1013d00080cf500020003a0050202100904078003b
:1013e000b0c2b30080cf50001b003a0021738000d0
:1013f000000024000080600000f0a7000000ea0068
:101400000000e9004f00de00004078000080fb0093
:10141000610060004e00dd002173800001e0a1004a
:101420000100700020738800e08080002003b0007d
:10143000e0808800306580006c0a0700470a0700da
:1014400070658000690a0700440a0700202329000c
:10145000420a0700610037004020210090407800d8
:1014600020c7b30080cf500018003a005020210060
:1014700090407800d0c2b30080cf500013003a00f3
:1014800021738000000024000080600000f0a700ad
:101490000000ea000000e9004f00de000040780094
:1014a0000080fb00610060004e00dd0021738000c1
:1014b00001e0a1000100700020738800e08080003e
:1014c0002003b100e0808800440037004020210064
:1014d00090407800c0c6b30080cf500018003a009a
:1014e0005020210090407800b0c2b30080cf50005f
:1014f00013003a0021738000000024000080600087
:1015000000f0a7000000ea000000e9004f00de0044
:10151000004078000080fb00610060004e00dd00ac
:101520002173800001e0a100010070002073880099
:10153000f08080002003b000f08088002700370092
:101540004020210090407800c0c6b30080cf5000fa
:1015500018003a005020210090407800d0c2b3001b
:1015600080cf500013003a00217380000000240057
:101570000080600000f0a7000000ea000000e90021
:101580004f00de00004078000080fb00610060003a
:101590004e00dd002173800001e0a1000100700019
:1015a00020738800f08080002003b100f080880064
:1015b0000a003700402021009040780030c7b30077
:1015c00080cf500003003a0010002000d080880037
:1015d0000200370040232900e00907003170ef00c6
:1015e0000100370000000000101180006100600061
:1015f0000000e000f4fe3a000168a9000080fa0053
:101600004f03be004f02be004f01be004f00be00a0
:101610003600f900004006003600f800809fbe004a
:10162000829fbe00849fbe00869fbe000000fa001d
:101630000188a900e1022100914078002fd0bf006d
:1016400080cf500004003200b20907000000fb0008
:1016500020118800010037003070ef000080fa0090
:101660004f03be004f02be004f01be004f00be0040
:101670003600f900004006000040da000000fe00dd
:101680000000050003f0a200889fbe008a9fbe00f4
:101690008c1f7800a1010700a80133006450e1000d
:1016a0004f0032006420e1005200320003826c00df
:1016b00007003b000905d0000306d000820f54004c
:1016c0000c065d000200390002003200890178003a
:1016d000030678008582550004003d000003fd00ec
:1016e0008103fd008502ea008b854200840f7200b1
:1016f00002003b0060001000e08018006011b8009c
:101700000005eb007a28e1000a00390006007800a5
:10171000c75ddd00f707b200878075002d00370038
:10172000828171000a017800610560008180d1002a
:101730000080d3008502e900f9ff3b000604400069
:101740008784480002003b0060041400e0841c0011
:101750000988a300070032008a817100828171002c
:10176000610164008904d1000884d3008b05e8007e
:10177000170037000978a30013003a000b00e000bf
:10178000130034008b05e9000804440089844c00f0
:101790000a4474000978a3000d003a000b00e00031
:1017a000070034008b05e9000804440089844c00dc
:1017b00001003a000b0020000978a300f7ff320077
:1017c0000001eb0002003700828171000a017800fd
:1017d000170107000cf0a70001f0a000600137001e
:1017e0006420e10002003a00838f6c006001330046
:1017f0000801be000200be0059013700889fbe00ec
:101800008a9fbe008c1f7800440107001002200050
:1018100002003b00b0818800480137008a00620066
:101820006408e10002003a00b081880050013700ee
:101830006108e100fcff32000800be0003047800ec
:101840007200070001f0a1000900070008f0a600df
:10185000040037000001be0091042400b0fd200008
:1018600088ff070009f0a70001f0a2003c01370043
:10187000889fbe008a9fbe008c9fbe000004be00f1
:10188000110107000800be00890678006420e1000d
:1018900008003900040032000160a000120220009c
:1018a000b28188005300370091fc2300b0fd200076
:1018b0004e0037000006eb0009f0a10003f82300fa
:1018c000020020000800be0092000700060034005d
:1018d00001f82300000020000801be004b000700b3
:1018e0000004be002c0020000800be0093e8230086
:1018f000320a230087000700120034000801be00ee
:10190000d1fd2300703d2b005fff07000005be00e6
:10191000b3f32300f27a26000800be001701070087
:1019200003f823000200200056ff07000801be0054
:1019300055ff07000a01be00340007000004be0086
:101940000c06e8000800be0001f0a1000200200023
:10195000039823006f0007000800be001600350042
:101960000801be00050107000005be0032cd2c00b5
:1019700043fb230044ff0700809fbe00126928003c
:1019800003d52b000a00be00fc000700620f2100f7
:1019900013ef2b003cff07000a01be00f700070011
:1019a0004f01be00190007000801be00f300070048
:1019b0000801be0034ff07000c00e0000b003200fd
:1019c0000c10a70001f0a200b2fd200093fc230040
:1019d0006260e1000400320022a9200063f02300cd
:1019e0000c10a70063f8230027ff07000df0a700e5
:1019f00001f0a2004f06be004f05be004f04be001e
:101a0000000006000081eb0010013700889fbe0037
:101a10008a9fbe008c1f7800c0000700c7003300fb
:101a200003866c006450e1002e0032006420e10067
:101a3000330032006150e1002f0032006120e100ec
:101a40003100320085855500eb07b0000900200009
:101a500008042000050037000804440089844c0075
:101a60000a0031000603430087834b000001530046
:101a700081815b00f8ff33000203be000800a00074
:101a80000804440089844c00f6ff3900c639dd00a3
:101a90008301730001003200130020008904d1008b
:101aa0000884d3000998a300050032000800a700ad
:101ab0000300a0008904d1000884d3008b05e8004e
:101ac0008904d1000884d3000001eb000281d20018
:101ad0005700070001f0a1000cf0a70001f0a000e2
:101ae0009f0037006420e100a10032000801be0021
:101af0000200be00f7ff37006120e1009c003200c9
:101b00006000b800f3ff37000000200001f8270054
:101b1000f0ff3700140020006c013700f4ff2f00a5
:101b20006a0137000001be00670007000470a700cb
:101b300003f0a1006509b100160032000d00350068
:101b40006828e10006003500f0ff2f00f1ff2700b4
:101b50000300e00013003b00010028000000050026
:101b600000004000818048008502e900fcff3a0047
:101b700008003700f88f420002003c008000eb00b4
:101b8000000005008100d1000080d3008502e8003c
:101b9000fcff3a000300e00002003b006000100080
:101ba000e0801800000006000001be0046000700ab
:101bb0000470a70003f0a10003f8a30013003a008b
:101bc0006509b10010003200090035006928e10004
:101bd0000200350001002800000005000000400060
:101be000818048008502e900fcff3a000000060001
:101bf000f88f4200050035008100d1000080d3003d
:101c00008502e800fcff3a00000006008000eb00bf
:101c1000000005004f89de00820178004601370090
:101c20006011b8005401370004002000270137007c
:101c300081002000618055000b003d000b0020005a
:101c400061fe2f000100e1001d003400828171005f
:101c5000610164008904d1000884d3000000e80019
:101c6000faff3a0071002000610064000300700078
:101c7000020060000900320061044400e0844c006e
:101c80000988a500050032008b05e8006808e1001e
:101c900002003a008904d1000884d300f20f20002a
:101ca0000258e10005003d00c75ddd00f907b20004
:101cb0008980750008007800000006000bf82700f6
:101cc0008b00780000000500c70ade00f107b200b3
:101cd000f50fb20008003200e1cf420002003200ee
:101ce0000170a00024000500810f70000100320087
:101cf0000408050044000500810f700002003a004e
:101d0000140005008502e9000000400081c0480081
:101d1000fcff3b000170a000240005000004be0091
:101d2000e9ff07000003be000405be000200be007c
:101d3000e5ff0700844f7500000006000200be00aa
:101d40006450e100050036006420e1000200360026
:101d50000968a30001003a000800be000160a0006d
:101d60004f0678004f05be004f04be00000006007d
:101d7000f0ff2f00f1ff2700f9ff3700889fbe001a
:101d80008a9fbe008c1f7800e4ff0700ebff330042
:101d900003866c006450e100240032006420e100fe
:101da000270032006150e100220032006120e10092
:101db000210032008b854200eb07b1000134b800ee
:101dc000003ab8000804420089844a00013ab80089
:101dd0000030b8008880400009014a000400330048
:101de0000000400081804800020149008b05e900a5
:101df000c909dd00830170000100320013002000da
:101e0000c814de004814dd004709de001200b200ed
:101e1000c808de000884700085ff070001f0a100fb
:101e20000cf0a70001f0a000cdff37006120e10019
:101e3000cfff32000801be000200be00f7ff3700ee
:101e40006150e100fcff3a00c9ff3700889fbe00e7
:101e50008a9fbe008c9fbe00820578000004be00f1
:101e600099ff07000800be006420e1000700390068
:101e700002003a00f1ff2700f0ff2f000160a000f0
:101e800012022000b2818800550037006120e10075
:101e900003003a000b00a70001f8230050003700b0
:101ea00001f0a100020021009364240019ff070043
:101eb0000800be0004003500b2fd2000930c240091
:101ec000dc0007000004be000005eb000b00a600cc
:101ed0004f0dde0001f0a1000004be0032982f007b
:101ee00023ea2300a5ff07000001eb0003f0230015
:101ef0000b00a70003f82300e3fd070009ff07001c
:101f00000000a7000a00a20042ff07000b00e0004b
:101f1000030032000200200003f02300d9fd070077
:101f200001f0a2000006be0002002000930424007d
:101f300092ff07000801be00d3fd0700809fbe008e
:101f40000c00be0022a22a00d3a723008bff0700ab
:101f50004f01be00ccfd07000004be0001f0a1004f
:101f60000200200003982300eafe07000800be00dc
:101f7000190035000001be0080ff07000006be000a
:101f8000b2c52900e36223007cff070022222b0058
:101f9000f3942b00bcfd07000c01be0077ff070087
:101fa000e273280083c02300b7fd07000c01be00c8
:101fb00072ff070042aa2a00a3e22b00b2fd07002d
:101fc0000c01be006dff07000801be006bff07009b
:101fd0000801be00acfd07000a00a70001f0a20046
:101fe0004f06be004f05be004f04be0000000600b5
:101ff0000001eb0095ff3700889fbe008a9fbe005e
:102000008c1f78000004be002fff07000478a30097
:1020100026003a006120e1002500320009f8a30003
:1020200025003a006420e10021003200f507b100ec
:102030000508a30002003200000040008180480033
:102040006044b8000310200002002000000040009f
:10205000818048000805440089854c000a0541003c
:102060008b8549000a0550008b855800030033001a
:102070000a00be0002047400838474008301d1004e
:102080000281d300830f7100f0ff3a008904d10070
:102090000884d3006001490082017800c1adde00f0
:1020a000fb07b000e2fe07002dff37000960a0002b
:1020b0000800be002aff370012022000b28188000b
:1020c000f0ff2f00f1ff270025ff3700889fbe009b
:1020d0008a9fbe00841f780010ff07004f00780021
:1020e00011003300f0ff2f00838f6c0006003b00cf
:1020f000040565000a00a7000800370009f0a600e3
:102100001000200008003700820f5400838f5c000d
:10211000030039001000200001003e0000002000f4
:1021200009f0a7000000ea004f05be004f04be0002
:102130000000e00000000600881f7800030478001b
:102140000300e00007003d0060001000e080180080
:1021500060011900e081190002003b0001f02d0030
:10216000030037000400070008f0a70001f0a000fa
:102170004f04780000000600889fbe008a9fbe00c2
:102180000082700004027100048271002600320097
:102190000004be000200be006011b8006b09200000
:1021a000950220000182cf000a0039000541b100ec
:1021b0000082cf00070039000541b1000982cf003d
:1021c000040039000541b1000882cf000100390048
:1021d0000541b10005425200120032000a003b00e6
:1021e00082817100610164008100d1000080d30010
:1021f0008984d3000884d3008b05e8000442e800fa
:10220000f7ff3a00070037000804440089844c00b7
:1022100000004800818048008b05e9000442e90085
:10222000f9ff3a0082fe07004f05be004f04be00d2
:10223000000006000400200000003700889fbe0058
:102240008a9fbe008c1f78004f26dd00b3fe07007a
:10225000bafe33006120e100430032006250e10029
:1022600041003e003e0039006420e1003c003200a5
:10227000058255000f003b000402e80038003a00d8
:10228000800f5300818f5b00350034000800be00d2
:1022900003f0a10001f0a60003f0a0000cf0a700dd
:1022a000f9fc0700aefe37000603430087834b00ae
:1022b0000c4646000005530081855b000200330098
:1022c0000a03be000c00a0000402e900f6ff3b0078
:1022d000850578000602430087824b0004003a001f
:1022e0006000b80009f0a70001f0a0009cfe3700d4
:1022f0000002520081825a000704e000040033000b
:102300000603430087834b008b05e900faff370083
:10231000090578000604be000203be006011b80083
:1023200043fe0700e00f5200e08f5a00070035001f
:1023300002003c000c08a300040032000601be00ad
:1023400003f0a0000cf0a700cffc07000a8568008e
:1023500001f0a1000af0a70001f0a00080fe370004
:102360000800be007efe3700100220000cf0a60020
:08237000b08188007efe3700f9
:020000040000fa
:10237800782000003a200000002000002020000003
:102388002020000020790000203a000020000000f2
:1023980020200000202000002020000074200000e1
:1023a8003a2000000020000020200000202000002b
:1023b800207400002a31000030300000203a00006c
:1023c800200000000d0a0000006c0000203a000008
:1023d8002000000020200000202000002020000015
:1023e800722000003a200000002000002020000099
:1023f8002020000020440000312000003a20000086
:1024080000200000202000002020000020440000c0
:10241800312a000031300000302000003a2000004e
:1024280000200000202000002020000020440000a0
:10243800322000003a200000002000002020000088
:102448002020000020440000322a00003130000023
:10245800302000003a200000000000000a000000c0
:1024680065720000726f0000720a00000000000030
:020000040000fa
:102478000000fa00cc0707008a0707008d0607004e
:102488007e030700f1060700422cef00d90507007c
:102498006000b80010808800218088006000b800c3
:1024a80030808800418088006000b8005080880033
:1024b800618088006000b800708088008180880092
:1024c8006000b80090808800a18088006000b80093
:1024d800b0808800c18088000070ef000170ef00b4
:1024e8001c30ef001e30ef0000002800300e88007e
:1024f80000002800302e880065cea8008317210030
:102508000215210081122100001021009604070005
:102518001a30ef00d0808000e40f500056003200df
:10252800e40f50000c003c00e10f50002300320083
:10253800e10f500003003c000000e0000f003200f3
:102548009c003700e20f500028003200e30f5000d3
:102558003700320097003700e60f5000690032005c
:10256800e60f500056003500e70f500076003200a5
:10257800e80f5000840032008e0037006000b80079
:1025880070808800818088006000b8009080880092
:10259800a18088006000b800b0808800c1808800f1
:1025a80065cea900803e200092060700d0808000fa
:1025b8000000e800d08088007e00370065cea800c3
:1025c800b4fd200095fc2300020020008334240081
:1025d8000000200081342400b101070000712200ae
:1025e800840607007c010700720037000000200005
:1025f800812c240070808800818088006000b800e9
:1026080090808800a1808800b0fd200091fc230004
:10261800b0808800c180880000712200750607001c
:10262800d08080000000e800d0808800610037007a
:1026380000002000812c24007080880081808800a0
:1026480000002000812c240090808800a180880050
:10265800b0fd200091fc2300b0808800c180880074
:102668000071220063060700d08080000000e800a7
:10267800d08088004f00370000002000812c240003
:10268800708088008180880000002000812c240050
:1026980090808800a1808800b0fd2000910424006b
:1026a800b0808800c18088000071220051060700b0
:1026b800d08080000000e800d08088003d0037000e
:1026c8006000b800708088008180880000002000c9
:1026d800812c240090808800a1808800b0fd200013
:1026e80091042400b0808800c18088000071220015
:1026f80040060700d08080000000e800d0808800f5
:102708002c0037006000b800708088008180880045
:1027180000002000812c240090808800a18088007f
:1027280040be2c0061092400b0808800c180880068
:10273800007122002f060700d08080000000e8000a
:10274800d08088001b0037006000b80070808800c7
:10275800818088006000b80090808800a18088008f
:1027680040be2c0061092400b0808800c180880028
:10277800007122001f060700d08080000000e800da
:10278800d08088000b0037006000b8007080880097
:10279800818088006000b80090808800a18088004f
:1027a800b0fd2000910c2400b0808800c180880012
:1027b80000000000c01b290066050700108080008b
:1027c80021808000d5fc07000000780085050700ff
:1027d80060050700101c29005e0507003080800096
:1027e80041808000cdfc0700000078007d050700cf
:1027f80058050700c01c29005605070050808000b6
:102808006180800002002000433b240059fd07003e
:10281800b2fd2000930c24007afc0700bffc0700df
:10282800000078006f0507004a050700701d2900a1
:1028380048050700508080006180800002002a005f
:10284800c37024004bfd0700b2fd2000930c240048
:102858006cfc0700b1fc0700000078006105070068
:102868003c050700601e29003a05070029ff3700cc
:102878001000fa00881f78000000200001142400ce
:1028880040079800510798006000b800008fbe000c
:10289800d0cc2c00c1dc2300600798007107980099
:1028a8001e0178009e0190004e009000de0090000e
:1028b80072fb070018c0b3006e019000fe01900083
:1028c80094fc07000000e00001003c000044eb001d
:1028d8000804e000080032006e019000fe0190003c
:1028e8001e0078009e00900065fb070020079800f6
:1028f800310798001e0037001e0178009e019000e5
:102908004e009000de0090005cfb07000002be0055
:102918006e009000fe00900001f0a20018c0b30005
:102928000001be000400be0078fc07000000e000c3
:10293800010035000044eb000804e0000800320004
:102948006e019000fe0190001e0078009e0090002d
:102958004afb070020079800310798000400370059
:102968004e019000de01900022079800330798007e
:102978002e019000be019000028fbe002e01900033
:10298800be0190006000b80073020700e00120005b
:1029980098050700c2ff37001800fa002068a90050
:1029a80000002800300e880000002800302e880023
:1029b800310e800000002800008040008000eb00fd
:1029c80095fc0700b2fd200093042400e9fc0700f1
:1029d8000001be002afb0700d2cc2c00431c2400b7
:1029e800e4fc0700020020000358240005fc07004f
:1029f800008fbe00312e80000000280000804000bb
:102a08008000eb0084fc0700b2fd20009304240042
:102a1800d8fc07000001be0019fb0700d2cc2c002f
:102a2800431c2400d3fc07000200200003582400a4
:102a3800f4fb07002007980031079800310e80004a
:102a480000002800008040008000eb0072fc0700b6
:102a5800b2fd200093042400c6fc07000001be005c
:102a680007fb07000200200003582400e5fb0700cd
:102a78004007980051079800312e80000000280078
:102a8800008040008000eb0063fc0700b2fd2000de
:102a980093042400b7fc07000001be00f8fa070001
:102aa8000200200003582400d6fb070060079800a6
:102ab800710798004e019000de0190000000200090
:102ac80061392400cffb0700000f9800110f980010
:102ad8006e019000fe019000000020006139240082
:102ae800c8fb0700200f9800310f9800901e29009e
:102af800980407001e0078009e00900007fc07005d
:102b080000007800b704070092040700e01e2900bf
:102b1800900407002e009000be009000fffb070005
:102b280000007800af0407008a040700901f2900fe
:102b3800880407000e0890009e089000f7fb070025
:102b480000007800a704070082040700502029002d
:102b58008004070002002000832c24000e08900047
:102b68009e08900083fc0700ecfb0700000078003b
:102b78009c0407007704070050212900750407000a
:102b88002e089000be089000e4fb070000007800c3
:102b9800940407006f040700102229006d04070041
:102ba80002002000832c24002e089000be0890000c
:102bb80070fc0700d9fb07000000780089040700b3
:102bc80064040700601e290062040700800c2000ce
:102bd8000805070076ff37000000fa00c01b29002f
:102be8005c0407001080800021808000cbfb070078
:102bf800000078007b04070056040700101c290019
:102c0800540407003080800041808000c3fb070027
:102c180000007800730407004e040700c01c290058
:102c28004c04070050808000618080000200200072
:102c3800433b24004ffc0700b2fd2000930c240006
:102c480070fb0700b5fb070000007800650407006b
:102c580040040700701d29003e04070050808000d2
:102c68006180800002002a00c370240041fc070034
:102c7800b2fd2000930c240062fb0700a7fb0700ad
:102c8800000078005704070032040700601e29007e
:102c980030040700800c2000d6040700cfff37005f
:102ca8001c00fa00889fbe00000f9800110f9800c2
:102cb800220f9800330f9800440f9800550f980082
:102cc80010808000218080000001be000e08900066
:102cd8009e08900069fa07000004be00308080005a
:102ce800418080000001be002e089000be089000c0
:102cf80062fa07000801be00befa07002007980024
:102d080031079800508080006180800018c0b300af
:102d18000001be002e009000be0090007dfb070061
:102d28000000e00001003c000044eb000804e00063
:102d38001c0032005280800063808000028fbe0039
:102d48000c0037001e0178009e019000b2808800b8
:102d5800c380880010002000a6040700f226210086
:102d680033b023001e0078009e00900044fa07004c
:102d7800008fbe0018c0b3002e019000be01900065
:102d88001e0078009e00900060fb07000000e00035
:102d9800010034000044eb000804e000e9ff3a00b9
:102da8001b0037005280800063808000028fbe00c5
:102db8000c0037001e0178009e019000b280880048
:102dc800c3808800100020008a040700f226210032
:102dd80033b023001e0078009e00900027fa0700f9
:102de800008fbe0018c0b3002e019000be019000f5
:102df8001e0078009e00900046fb07000000e000df
:102e080001003d000044eb000804e000e9ff3a003f
:102e18002e019000be019000b2808800c380880017
:102e28002070ef000000000020d0bf000004e00088
:102e3800fdff320032808000438080004207980006
:102e48005307980010808000218080000001be0098
:102e58000e0890009e08900071fb07000000e0003b
:102e68006a00320030808000418080000001be008e
:102e78002e089000be08900000fa07000004be006b
:102e880010808000218080000001be000e089000a4
:102e98009e089000f9f907000001be000800be0076
:102ea800d8fa070060079800710798001080800022
:102eb8002180800018c0b3000001be000e089000f9
:102ec8009e08900013fb07000000e00001003c0092
:102ed8000044eb000804e000260032001280800065
:102ee80023808000028fbe00160037001e01780084
:102ef8009e01900072808800838088006e01900097
:102f0800fe0190001e0078009e00900099fb0700cb
:102f18004e019000de019000d9f9070090808800ea
:102f2800a18088001000200032040700d2cc2c00b9
:102f3800c3dc23001e0078009e009000d0f9070033
:102f4800008fbe0018c0b3000e0990009e099000c3
:102f58001e0078009e009000ecfa07000000e000d8
:102f6800010034000044eb000804e000dfff3a00f1
:102f7800660037001280800023808000028fbe0028
:102f8800160037001e0178009e01900072808800ac
:102f9800838088006e019000fe0190001e0078007a
:102fa8009e00900073fb07004e019000de01900028
:102fb800b3f9070090808800a180880010002000e5
:102fc8000c040700d2cc2c00c3dc23001e007800c0
:102fd8009e009000a9f90700008fbe0018c0b3003a
:102fe8000e0990009e0990001e0078009e00900037
:102ff800c8fa07000000e00001003d000044eb00b3
:103008000804e000dfff3a0040003700308080000d
:103018004180800018c0b3000001be002e08900057
:10302800be089000bbfa07000000e00001003c0069
:103038000044eb000804e0001c00320032808000ed
:1030480043808000028fbe000c0037001e0178000c
:103058009e01900092808800a380880010002000c4
:10306800e4030700d2cc2c00c3dc23001e00780048
:103078009e00900082f90700008fbe0018c0b300c0
:103088002e099000be0990001e0078009e00900056
:103098009efa07000000e000010034000044eb0045
:1030a8000804e000e9ff3a00180037003280800089
:1030b80043808000028fbe00090037001e0178009f
:1030c8009e01900092808800a38088001000200054
:1030d800c8030700d0cc2c00c1dc2300008fbe0041
:1030e80018c0b3002e099000be0990001e00780099
:1030f8009e00900087fa07000000e00001003d00f4
:103108000044eb000804e000ecff3a000e099000d0
:103118009e09900072808800838088002e099000a4
:10312800be09900092808800a38088002070ef007c
:103138000000000020d0bf000004e000fdff3200c6
:10314800508080006180800018c0b3000001be007c
:103158004e089000de0890006efa07000000e000bc
:1031680001003c000044eb000804e0001c003200b1
:103178005280800063808000028fbe000c00370000
:103188001e0178009e019000b2808800c3808800ec
:103198001000200097030700f226210033b0230017
:1031a8001e0078009e00900035f90700008fbe00d1
:1031b80018c0b3004e099000de0990001e00780088
:1031c8009e00900051fa07000000e0000100340062
:1031d8000044eb000804e000e9ff3a001b00370058
:1031e8005280800063808000028fbe000c00370090
:1031f8001e0178009e019000b2808800c38088007c
:10320800100020007b030700f226210033b02300c2
:103218001e0078009e00900018f90700008fbe007d
:1032280018c0b3004e099000de0990001e00780017
:103238009e00900037fa07000000e00001003d0002
:103248000044eb000804e000e9ff3a004e09900052
:10325800de099000b2808800c38088002070ef00eb
:103268000000000020d0bf000004e000fdff320095
:103278004f04be000080fa00000006000000fa00bb
:1032880021000700022cef000000280000608800e1
:103298000080fa00000006000000fa0080b5210056
:1032a8004061880080b521008061880000fa200014
:1032b8003061880000fa2000706188002a2cef0035
:1032c8002c2cef0000c02c0010618800002020008a
:1032d8000061880030002000206188000080fa002a
:1032e800000006000000fa000080fa000000060056
:1032f8000000fa000080fa00000006000000fa0052
:103308000080fa00000006000000fa0080b52100e5
:103318004065880080b5210080658800a62cef00f4
:10332800ae2cef00aa2cef00ac2cef0000c02c0054
:10333800106588000020200000658800300020000b
:10334800206588000080fa00000006000000fa00ee
:103358000080fa00000006000800fa00881f7800c4
:10336800008fbe00220798003307980018c0b300ea
:103378006011b8002e009000be009000e5f907002b
:103388000000e00001003c000044eb000804e000fd
:10339800080032006266260063fa23002e009000bf
:1033a800be009000b6f80700200798003107980083
:1033b8001100370018c0b3006011b8002e0090004b
:1033c800be009000d1f907000000e00001003500c0
:1033d8000044eb000804e0000700320062662600a3
:1033e80063fa23002e009000be009000a3f80700a7
:1033f800200798003107980018c0b3006011b80082
:103408001e0078009e009000c2f907000000e0004e
:1034180001003c000044eb000804e0000700320013
:103428006266260063fa23001e0078009e00900062
:1034380093f80700008fbe001000370018c0b300d3
:103448006011b8001e0078009e009000aff90700d8
:103458000000e000010035000044eb000804e00033
:10346800060032006266260063fa23001e00780018
:103478009e00900081f80700008fbe0018c0b300be
:103488000200200003142c002e009000be009000c3
:103498009ef907000000e000010034000044eb0042
:1034a8000804e00009003200450ea90040658000cc
:1034b800ec00b90080007800b0aa2a000008b80023
:1034c8004308de00706588004800370018c0b30064
:1034d80002002000031424002e009000be0090007b
:1034e8008cf907000000e00001003d000044eb00fb
:1034f8000804e00009003200450ea800406580007d
:10350800ec00b90080007800b0aa2a000008b800d2
:103518004308de00706588003400370018c0b30027
:103528006266260063fa2b002e009000be00900011
:1035380076f907000000e000010035000044eb00c8
:103548000804e0000f003200450ea9004065800025
:103558008000eb00b0f907002e019000be0190003a
:1035680004fa0700020020000314240025f90700cc
:103578006af90700000078000000ea00706588001a
:103588001a00370018c0b3006266260063fa2300e9
:103598002e009000be0090005ef907000000e000d9
:1035a80001003c000044eb000804e0000e0032007b
:1035b800450ea800406580008000eb0096f90700e2
:1035c8002e019000be019000eaf9070002002000d9
:1035d800031424000bf9070050f9070000007800d5
:1035e8007065880001003700ae2cef0018c0b300ea
:1035f8000200200003142c001e0078009e0090009a
:1036080042f907000000e000010034000044eb002c
:103618000804e00009003200452ea80080658000fb
:10362800ec00b90080007800b0aa2a000008b800b1
:103638004308de00306588004800370018c0b30032
:1036480002002000031424001e0078009e00900051
:1036580030f907000000e00001003d000044eb00e5
:103668000804e00009003200452ea90080658000aa
:10367800ec00b90080007800b0aa2a000008b80061
:103688004308de00306588003400370018c0b300f6
:103698006266260063fa2b001e0078009e009000e8
:1036a8001af907000000e000010035000044eb00b3
:1036b8000804e0000f003200452ea8008065800055
:1036c8008000eb0054f907001e0178009e0190006d
:1036d800a8f907000200200003142400c9f8070015
:1036e8000ef90700000078000000ea003065880045
:1036f8001a00370018c0b3006266260063fa230078
:103708001e0078009e00900002f907000000e0000b
:1037180001003c000044eb000804e0000e00320009
:10372800452ea900806580008000eb003af907006b
:103738001e0178009e0190008ef90700020020000b
:1037480003142400aff80700f4f80700000078001d
:103758003065880001003700a62cef004f04780080
:103768000080fa00000006000800fa00000f780048
:103778001107980022079800330798006000b800e6
:10378800809fbe006000b800809fbe00a0702d0022
:1037980031c22300809fbe006000b800809fbe0039
:1037a8006000b800809fbe00a6702d0037ba2300c5
:1037b800d4cc2c00c5d42300c24b270033f12300fe
:1037c8001e0078003b000700f48757006000b8002f
:1037d800809fbe006000b800809fbe00a0702d00d2
:1037e80031c22300809fbe006000b800809fbe00e9
:1037f8006000b800809fbe00a6702d0037ba230075
:10380800d4cc2c00c5d42300c24b270033f12300ad
:103818001e00900027000700f48757006000b800da
:10382800809fbe006000b800809fbe00a0702d0081
:1038380031c22300809fbe006000b800809fbe0098
:103848006000b800809fbe006033b8006022b800f6
:1038580092c22500f3d823002e009000150007001f
:10386800f48757006000b800809fbe006000b80071
:10387800809fbe00a0702d0031c22300809fbe0033
:103888006000b800809fbe006000b800809fbe0046
:103898006033b8006022b800020020000312240040
:1038a8003e00900003000700f48757000080fa00ec
:1038b800000006000e00fa00000f780012079800ba
:1038c8002307980034079800450798005607980082
:1038d800670798001e0078001e019000ae01900056
:1038e8000288be001e0078003e019000ce019000c4
:1038f80022009800330098001e0078005e019000b6
:10390800ee01900042009800530098001e007800d5
:103918003eb99700ceb997006200980073009800ee
:103928001e0078001eb99700aeb9970022109800c3
:10393800331098001e0078007eb197008eb997006a
:1039480002109800131098001e0078005eb19700ce
:10395800eeb1970022089800330898001e007800fe
:103968003eb19700ceb1970002089800130898005e
:103978001e0178006000b80060099800710998007d
:103988001e0178006000b8004009980051099800ad
:103998000080fa00000006000600fa00000f780018
:1039a80012079800230798001e0078001e01900057
:1039b800ae01900002089800130898000080fa00f1
:1039c800000006000600fa00000f780012079800b1
:1039d800230798001e0078001e019000ae01900099
:1039e80022089800330898000080fa0000000600ba
:1039f8000e00fa00889fbe00400798005207980002
:103a0800630798004e0090005e019000ee01900060
:103a180022089800330898004e009000000a900091
:103a2800900a90004e009000b00890002008900086
:103a38000001be000400be0010f70700008fbe00a2
:103a48004e009000d0089000400890000001be0091
:103a58001e0078009e00900008f707000002be00d4
:103a68004e00900090109000001090000001be00e1
:103a78000400be00e3f7070020079800310798000c
:103a88004e009000f0089000600890001e01780039
:103a98009e019000faf607004e0190006009980018
:103aa800710998004e009000f0089000600890009e
:103ab80018c0b30002002000832c240015f807006a
:103ac8000000e00001003c000044eb000804e000b6
:103ad800060032004e01900000002000812c2400d6
:103ae8006009980071099800110037004e00900095
:103af800f00890006008900018c0b3000200200091
:103b0800832c2c0001f807000000e00001003500bc
:103b18000044eb000804e000050032004e0190006c
:103b280000002000812c2c00600998007109980081
:103b38004e00900060049000f00490004e00900049
:103b480090009000100078001e0178009e019000ff
:103b580088f807000001be000800be00c8f607008c
:103b68000004be004e00900020029000b0029000b9
:103b78004e009000f0089000600890000001be0020
:103b88000400be007bf807000001be000800be006c
:103b9800bbf607000004be004e009000d000900065
:103ba800400090002e019000be01900071f80700bf
:103bb8000001be000800be00b1f607004e019000eb
:103bc80020119800311198004e0090001e017800d5
:103bd8009e01900042089800530898004e009000fb
:103be800b0109000201090004f04be000080fa0032
:103bf800000006000000fa002188a9002168a90039
:103c080010cea90010aea80050022000203688006f
:103c18002134800000fc2f00008060000000a0001c
:103c28002034880021e2a90021a2a9002182a9004c
:103c38002162a90001118000f0cf2f0000806000f0
:103c48000011880020c2a90020a2a9002082a90092
:103c58002062a9000111800090ff2f000080600001
:103c6800001188002002a9002362a90023a2a9004c
:103c780023e2a90023c2a90022a2a90011118000f1
:103c8800f0f32f000080600010118800701c2000e5
:103c9800401188000188a9002188a8000168a900ae
:103ca8002168a80021e2a8002342a8002e70ef0096
:103cb8002f70ef003070ef003170ef000080fa00d5
:103cc800000006000200fa00004f78002fd0bf0065
:103cd8000080fb00011a2100008040001e48780087
:103ce8002fd0bf000040e8002ff0b700f1022100fc
:103cf8009140780040c6b30080cf500001003a00e0
:103d08002f70ef000080fa00000006000200fa00a1
:103d18002ed0bf000080fb00011a21000080400067
:103d2800104f78002ed0bf000040e8002ef0b700fa
:103d3800e10221009140780040c6b30080cf5000d6
:103d480001003a002e70ef001e4078000080fa0053
:103d5800000006000400fa00100798000040eb007d
:103d6800004f780030d0bf00e14f500003003a0008
:103d78001e00900010407800d2ff070010c0b3006a
:103d8800004f7800060037001e80fb009e00900060
:103d98000080400010407800caff07001e4fe8006e
:103da8001e80fb009e0090000080400010407800bc
:103db8000004e000f4ff3a0030d0bf000004e00047
:103dc80006003a0010c0b30030f0b7001e009000a3
:103dd800104078000000fb00201188000080fa00e5
:103de800000006000600fa0020079800ae009000c8
:103df80011079800b0002000000f780080262100ed
:103e08001e0040008040eb00014878002e00900022
:103e18000000e00003003d002e0090000000ea00d2
:103e2800200798001e0fe900ae009000a0002000b7
:103e380000017800110009008200d8008000fd0010
:103e4800004078000043b0008040780080262100c0
:103e58001e004000014878002e0190007066260080
:103e68000090b900c288de004f90de00008050004c
:103e7800200798002e0090000000e000e9ff3a00bb
:103e88001e0090000000e00005003d001e0fe90044
:103e9800802621001e004000d1c2b30001487800ee
:103ea8009e00780080262100008040000080fa00f3
:103eb800000006000200fa001c0007002d000700a1
:103ec8006000b80030818800418188006000b80037
:103ed80050818800618188000000eb00000f7800a5
:103ee8000d0037001e0078008000400040272100a8
:103ef800008040008000eb00010878001e00780078
:103f08008000400080282100008040008000eb00f5
:103f1800010878001e0fe8001e007800e90f500025
:103f2800f0ff34000080fa00000006000000fa00ec
:103f380005e1a9000021ef00604420001008880076
:103f480005a1a9000421a90021088000f0fc2f0088
:103f5800008060000050a0002008880004c1a9006b
:103f68000068a9002068a80005e1a8000080fa0000
:103f7800000006000000fa0011e1a9000621ef0088
:103f88000080eb006008880011a1a9001021a90099
:103f980081088000f0fc2f00008060000050a00025
:103fa8008008880010c1a90000e8a90020e8a9003d
:103fb80011e1a8000080fa00000006000400fa00e1
:103fc800100798000621ef0030088000000f7800e5
:103fd80000000000310880001e007800808050003a
:103fe8001e009000808f5000faff39000080fa0010
:103ff800000006000600fa00200798002e00900036
:104008008000eb0004f70700f2512800b3f8230002
:1040180058f70700e2f60700100798000000eb00c9
:10402800000f7800030037001e009000e3ff070030
:104038001e0fe800703e20009e007800808f500020
:10404800f9ff34000080fa00000006000000fa00c2
:104058000400070026000700390007000080fa0066
:10406800000006000000fa0060cea80060eea8007c
:10407800610ea800612ea8006ecea9006eeea90000
:104088006f0ea9006f2ea900e135800000f82f00ff
:10409800808060006007200001007000e035880023
:1040a800e1358000f00f2800808060000080270044
:1040b80001007000e03588000136800000f82f000c
:1040c80080806000700720000100700000368800c2
:1040d80001368000f00f28008080600000902700e3
:1040e80001007000003688000080fa000000060019
:1040f8000000fa00010e8000c0ff2f000080600061
:10410800000e8800c041a900c061a800010e80000f
:10411800f0f82f0000806000000e8800010e80007b
:10412800f03f2e0000806000000e8800c1e1a8006a
:10413800c3c1a800c421ef000080fa0000000600f7
:104148000000fa00012e8000c0ff2f0000806000f0
:10415800002e8800c045a900c065a900012e800076
:10416800f0f82f0000806000002e8800012e8000eb
:10417800f03f2e0000806000002e8800c1e5a800f6
:10418800c3c5a800c425ef000080fa00000006009f
:104198000000fa00020007000080fa000000060094
:1041a8000000fa0021e3a9002003a9002023a900a8
:1041b8002043a9002063a9002083a90001198000d9
:1041c800000e20000100700000198800011980000d
:1041d800f0cf2f0000806000001988002143a9005b
:1041e8002183a90021a3a9002203a9002223a90051
:1041f8001119800030f82f00008060001019880025
:1042080011198000f0cf2f0000806000101988007d
:104218002343a90011198000f0ff210000806000ed
:104228001019880070c7b30024e3b7002119800073
:10423800f00f2e000080600000a0a0002019880068
:1042480025e3a9009119800080ff2f0000806000fd
:10425800901988003303a9002623ef002823ef00d4
:104268003023ef002e23ef0021e3a8000080fa009e
:10427800000006000000fa003003a8002003a9008f
:104288002023a800000000000019800061006000e1
:104298000000e000fcff3200001880000080fa00f7
:1042a800000006000000fa000080eb0000708800a3
:1042b8000080eb00807088000080eb0000718800af
:1042c8000080eb00807188000080eb00007288009d
:1042d8000080eb00807288000080eb00007388008b
:1042e80061cea900302ea900304ea900410ea900c8
:1042f800412ea9000e2eef001e2eef002e2eef00ed
:104308003e2eef004e2eef005e2eef000080eb00f9
:1043180070738800062eef00162eef00262eef0091
:10432800362eef00462eef00562eef00662eef00d9
:104338000a2eef001a2eef002a2eef003a2eef0079
:104348004a2eef005a2eef006a2eef000c2eef00d7
:104358001c2eef002c2eef003c2eef004c2eef0011
:104368005c2eef006c2eef00082eef00182eef00e9
:10437800282eef00382eef00482eef00582eef00c1
:10438800682eef00042eef00142eef00242eef000d
:10439800342eef00442eef00542eef00642eef0071
:1043a8000080fa00000006000000fa00313a8000a0
:1043b80000e02f00808060001002200001007000e3
:1043c800303a88004567a900213a800000fe2f0096
:1043d80000806000203a8800213a8000f0f32f0026
:1043e80000806000203a880032002000800720000a
:1043f800a1092000337420008049780081497800a1
:1044080082497800103a8000000178000200a0007c
:104418006004200071052000237420008049780082
:10442800814978008249780000000000113a800034
:10443800000027008080600000002300808f50006b
:10444800faff3a0000000000113a80000002200044
:10445800008060000000e000fbff32000080fa00ee
:10446800000006000000fa00020007000080fa00c1
:10447800000006000000fa002128a9002148a90030
:1044880041e2a900206ea800012ea800008ea90014
:10449800100ea8000f2ea9002e6ea9001e0ea9004e
:1044a80041a2a9000112800030fe2f0000806000a8
:1044b800c000b300001288004362a9004342a9006b
:1044c8004322a9004302a80042e2a80042c2a90070
:1044d80042a2a90045e2a9004402a9002148a80077
:1044e8000148a90041e2a8000080fa000000060087
:020000040000fa
:1044f80032100000020000008000000034100000ac
:104508000200000080000000381000006801000070
:104518008000000000100000220000008000000061
:104528007412000028000000800000002210000023
:104538000c00000080000000a0110000d400000062
:10454800800000002e100000040000008000000021
:10455800361000000200000080000000000000008b
:020000040000fa
:104568000000fa000000280000468800c228ef007a
:0c457800c3e8a8000080fa000000060064
:020000040000fa
:02000004000af0
:04afe000cfff00009f
:020000040000fa
:02000004000af0
:04afe400ffff00006b
:020000040000fa
:02000004000af0
:04afe8007fff0000e7
:020000040000fa
:02000004000af0
:04afec005aff000008
:020000040000fa
:02000004000af0
:04aff000bbff0000a3
:020000040000fa
:02000004000af0
:04aff400ffff00005b
:00000001FF
